{
  "_format": "hh-sol-artifact-1",
  "contractName": "SentinelGate",
  "sourceName": "contracts/rsk/SentinelGate.sol",
  "abi": [
    {
      "inputs": [
        {
          "internalType": "address",
          "name": "_vidaToken",
          "type": "address"
        },
        {
          "internalType": "address",
          "name": "_architect",
          "type": "address"
        },
        {
          "internalType": "address",
          "name": "_foundation",
          "type": "address"
        }
      ],
      "stateMutability": "nonpayable",
      "type": "constructor"
    },
    {
      "inputs": [],
      "name": "AccessControlBadConfirmation",
      "type": "error"
    },
    {
      "inputs": [
        {
          "internalType": "address",
          "name": "account",
          "type": "address"
        },
        {
          "internalType": "bytes32",
          "name": "neededRole",
          "type": "bytes32"
        }
      ],
      "name": "AccessControlUnauthorizedAccount",
      "type": "error"
    },
    {
      "inputs": [],
      "name": "ReentrancyGuardReentrantCall",
      "type": "error"
    },
    {
      "anonymous": false,
      "inputs": [
        {
          "indexed": true,
          "internalType": "address",
          "name": "bank",
          "type": "address"
        },
        {
          "indexed": false,
          "internalType": "bool",
          "name": "isPartner",
          "type": "bool"
        },
        {
          "indexed": false,
          "internalType": "uint256",
          "name": "onboardingFee",
          "type": "uint256"
        },
        {
          "indexed": false,
          "internalType": "uint256",
          "name": "timestamp",
          "type": "uint256"
        }
      ],
      "name": "BankOnboarded",
      "type": "event"
    },
    {
      "anonymous": false,
      "inputs": [
        {
          "indexed": true,
          "internalType": "address",
          "name": "from",
          "type": "address"
        },
        {
          "indexed": false,
          "internalType": "uint256",
          "name": "amount",
          "type": "uint256"
        },
        {
          "indexed": false,
          "internalType": "uint256",
          "name": "architectShare",
          "type": "uint256"
        },
        {
          "indexed": false,
          "internalType": "uint256",
          "name": "foundationShare",
          "type": "uint256"
        }
      ],
      "name": "FeeCollected",
      "type": "event"
    },
    {
      "anonymous": false,
      "inputs": [
        {
          "indexed": false,
          "internalType": "uint256",
          "name": "architectPercent",
          "type": "uint256"
        },
        {
          "indexed": false,
          "internalType": "uint256",
          "name": "foundationPercent",
          "type": "uint256"
        }
      ],
      "name": "FeeConfigUpdated",
      "type": "event"
    },
    {
      "anonymous": false,
      "inputs": [
        {
          "indexed": true,
          "internalType": "address",
          "name": "bank",
          "type": "address"
        },
        {
          "indexed": false,
          "internalType": "string",
          "name": "licenseType",
          "type": "string"
        },
        {
          "indexed": false,
          "internalType": "uint256",
          "name": "expiryTimestamp",
          "type": "uint256"
        },
        {
          "indexed": false,
          "internalType": "uint256",
          "name": "fee",
          "type": "uint256"
        }
      ],
      "name": "LicenseGranted",
      "type": "event"
    },
    {
      "anonymous": false,
      "inputs": [
        {
          "indexed": true,
          "internalType": "address",
          "name": "bank",
          "type": "address"
        },
        {
          "indexed": false,
          "internalType": "string",
          "name": "licenseType",
          "type": "string"
        }
      ],
      "name": "LicenseRevoked",
      "type": "event"
    },
    {
      "anonymous": false,
      "inputs": [
        {
          "indexed": true,
          "internalType": "bytes32",
          "name": "role",
          "type": "bytes32"
        },
        {
          "indexed": true,
          "internalType": "bytes32",
          "name": "previousAdminRole",
          "type": "bytes32"
        },
        {
          "indexed": true,
          "internalType": "bytes32",
          "name": "newAdminRole",
          "type": "bytes32"
        }
      ],
      "name": "RoleAdminChanged",
      "type": "event"
    },
    {
      "anonymous": false,
      "inputs": [
        {
          "indexed": true,
          "internalType": "bytes32",
          "name": "role",
          "type": "bytes32"
        },
        {
          "indexed": true,
          "internalType": "address",
          "name": "account",
          "type": "address"
        },
        {
          "indexed": true,
          "internalType": "address",
          "name": "sender",
          "type": "address"
        }
      ],
      "name": "RoleGranted",
      "type": "event"
    },
    {
      "anonymous": false,
      "inputs": [
        {
          "indexed": true,
          "internalType": "bytes32",
          "name": "role",
          "type": "bytes32"
        },
        {
          "indexed": true,
          "internalType": "address",
          "name": "account",
          "type": "address"
        },
        {
          "indexed": true,
          "internalType": "address",
          "name": "sender",
          "type": "address"
        }
      ],
      "name": "RoleRevoked",
      "type": "event"
    },
    {
      "inputs": [],
      "name": "ARCHITECT_ROLE",
      "outputs": [
        {
          "internalType": "bytes32",
          "name": "",
          "type": "bytes32"
        }
      ],
      "stateMutability": "view",
      "type": "function"
    },
    {
      "inputs": [],
      "name": "DEFAULT_ADMIN_ROLE",
      "outputs": [
        {
          "internalType": "bytes32",
          "name": "",
          "type": "bytes32"
        }
      ],
      "stateMutability": "view",
      "type": "function"
    },
    {
      "inputs": [],
      "name": "EXTERNAL_BANK_ROLE",
      "outputs": [
        {
          "internalType": "bytes32",
          "name": "",
          "type": "bytes32"
        }
      ],
      "stateMutability": "view",
      "type": "function"
    },
    {
      "inputs": [],
      "name": "FOUNDATION_ROLE",
      "outputs": [
        {
          "internalType": "bytes32",
          "name": "",
          "type": "bytes32"
        }
      ],
      "stateMutability": "view",
      "type": "function"
    },
    {
      "inputs": [],
      "name": "PARTNER_BANK_ROLE",
      "outputs": [
        {
          "internalType": "bytes32",
          "name": "",
          "type": "bytes32"
        }
      ],
      "stateMutability": "view",
      "type": "function"
    },
    {
      "inputs": [],
      "name": "adrsAnnualFee",
      "outputs": [
        {
          "internalType": "uint256",
          "name": "",
          "type": "uint256"
        }
      ],
      "stateMutability": "view",
      "type": "function"
    },
    {
      "inputs": [],
      "name": "architectFeePercent",
      "outputs": [
        {
          "internalType": "uint256",
          "name": "",
          "type": "uint256"
        }
      ],
      "stateMutability": "view",
      "type": "function"
    },
    {
      "inputs": [],
      "name": "architectWallet",
      "outputs": [
        {
          "internalType": "address",
          "name": "",
          "type": "address"
        }
      ],
      "stateMutability": "view",
      "type": "function"
    },
    {
      "inputs": [],
      "name": "bpsAnnualFee",
      "outputs": [
        {
          "internalType": "uint256",
          "name": "",
          "type": "uint256"
        }
      ],
      "stateMutability": "view",
      "type": "function"
    },
    {
      "inputs": [],
      "name": "foundationFeePercent",
      "outputs": [
        {
          "internalType": "uint256",
          "name": "",
          "type": "uint256"
        }
      ],
      "stateMutability": "view",
      "type": "function"
    },
    {
      "inputs": [],
      "name": "foundationWallet",
      "outputs": [
        {
          "internalType": "address",
          "name": "",
          "type": "address"
        }
      ],
      "stateMutability": "view",
      "type": "function"
    },
    {
      "inputs": [
        {
          "internalType": "address",
          "name": "_bank",
          "type": "address"
        }
      ],
      "name": "getLicenseDetails",
      "outputs": [
        {
          "components": [
            {
              "internalType": "bool",
              "name": "isPFFVerified",
              "type": "bool"
            },
            {
              "internalType": "uint256",
              "name": "adrsExpiry",
              "type": "uint256"
            },
            {
              "internalType": "uint256",
              "name": "bpsExpiry",
              "type": "uint256"
            },
            {
              "internalType": "uint256",
              "name": "sssExpiry",
              "type": "uint256"
            },
            {
              "internalType": "uint256",
              "name": "onboardingDate",
              "type": "uint256"
            },
            {
              "internalType": "bool",
              "name": "isPartnerBank",
              "type": "bool"
            }
          ],
          "internalType": "struct SentinelGate.LicenseStamp",
          "name": "",
          "type": "tuple"
        }
      ],
      "stateMutability": "view",
      "type": "function"
    },
    {
      "inputs": [
        {
          "internalType": "bytes32",
          "name": "role",
          "type": "bytes32"
        }
      ],
      "name": "getRoleAdmin",
      "outputs": [
        {
          "internalType": "bytes32",
          "name": "",
          "type": "bytes32"
        }
      ],
      "stateMutability": "view",
      "type": "function"
    },
    {
      "inputs": [],
      "name": "getSystemMetrics",
      "outputs": [
        {
          "internalType": "uint256",
          "name": "banksOnboarded",
          "type": "uint256"
        },
        {
          "internalType": "uint256",
          "name": "partnerBanks",
          "type": "uint256"
        },
        {
          "internalType": "uint256",
          "name": "externalBanks",
          "type": "uint256"
        },
        {
          "internalType": "uint256",
          "name": "feesCollected",
          "type": "uint256"
        },
        {
          "internalType": "uint256",
          "name": "architectPercent",
          "type": "uint256"
        },
        {
          "internalType": "uint256",
          "name": "foundationPercent",
          "type": "uint256"
        }
      ],
      "stateMutability": "view",
      "type": "function"
    },
    {
      "inputs": [
        {
          "internalType": "address",
          "name": "_bank",
          "type": "address"
        },
        {
          "internalType": "uint256",
          "name": "_durationDays",
          "type": "uint256"
        }
      ],
      "name": "grantADRSLicense",
      "outputs": [],
      "stateMutability": "nonpayable",
      "type": "function"
    },
    {
      "inputs": [
        {
          "internalType": "address",
          "name": "_bank",
          "type": "address"
        },
        {
          "internalType": "uint256",
          "name": "_durationDays",
          "type": "uint256"
        }
      ],
      "name": "grantBPSLicense",
      "outputs": [],
      "stateMutability": "nonpayable",
      "type": "function"
    },
    {
      "inputs": [
        {
          "internalType": "bytes32",
          "name": "role",
          "type": "bytes32"
        },
        {
          "internalType": "address",
          "name": "account",
          "type": "address"
        }
      ],
      "name": "grantRole",
      "outputs": [],
      "stateMutability": "nonpayable",
      "type": "function"
    },
    {
      "inputs": [
        {
          "internalType": "address",
          "name": "_bank",
          "type": "address"
        },
        {
          "internalType": "uint256",
          "name": "_durationDays",
          "type": "uint256"
        }
      ],
      "name": "grantSSSLicense",
      "outputs": [],
      "stateMutability": "nonpayable",
      "type": "function"
    },
    {
      "inputs": [
        {
          "internalType": "address",
          "name": "_bank",
          "type": "address"
        }
      ],
      "name": "hasActiveADRS",
      "outputs": [
        {
          "internalType": "bool",
          "name": "",
          "type": "bool"
        }
      ],
      "stateMutability": "view",
      "type": "function"
    },
    {
      "inputs": [
        {
          "internalType": "address",
          "name": "_bank",
          "type": "address"
        }
      ],
      "name": "hasActiveBPS",
      "outputs": [
        {
          "internalType": "bool",
          "name": "",
          "type": "bool"
        }
      ],
      "stateMutability": "view",
      "type": "function"
    },
    {
      "inputs": [
        {
          "internalType": "address",
          "name": "_bank",
          "type": "address"
        }
      ],
      "name": "hasActiveSSS",
      "outputs": [
        {
          "internalType": "bool",
          "name": "",
          "type": "bool"
        }
      ],
      "stateMutability": "view",
      "type": "function"
    },
    {
      "inputs": [
        {
          "internalType": "bytes32",
          "name": "role",
          "type": "bytes32"
        },
        {
          "internalType": "address",
          "name": "account",
          "type": "address"
        }
      ],
      "name": "hasRole",
      "outputs": [
        {
          "internalType": "bool",
          "name": "",
          "type": "bool"
        }
      ],
      "stateMutability": "view",
      "type": "function"
    },
    {
      "inputs": [
        {
          "internalType": "address",
          "name": "",
          "type": "address"
        }
      ],
      "name": "licenses",
      "outputs": [
        {
          "internalType": "bool",
          "name": "isPFFVerified",
          "type": "bool"
        },
        {
          "internalType": "uint256",
          "name": "adrsExpiry",
          "type": "uint256"
        },
        {
          "internalType": "uint256",
          "name": "bpsExpiry",
          "type": "uint256"
        },
        {
          "internalType": "uint256",
          "name": "sssExpiry",
          "type": "uint256"
        },
        {
          "internalType": "uint256",
          "name": "onboardingDate",
          "type": "uint256"
        },
        {
          "internalType": "bool",
          "name": "isPartnerBank",
          "type": "bool"
        }
      ],
      "stateMutability": "view",
      "type": "function"
    },
    {
      "inputs": [
        {
          "internalType": "address",
          "name": "_bank",
          "type": "address"
        },
        {
          "internalType": "bool",
          "name": "_isPartner",
          "type": "bool"
        }
      ],
      "name": "onboardBank",
      "outputs": [],
      "stateMutability": "nonpayable",
      "type": "function"
    },
    {
      "inputs": [],
      "name": "onboardingFee",
      "outputs": [
        {
          "internalType": "uint256",
          "name": "",
          "type": "uint256"
        }
      ],
      "stateMutability": "view",
      "type": "function"
    },
    {
      "inputs": [],
      "name": "partnerBankDiscount",
      "outputs": [
        {
          "internalType": "uint256",
          "name": "",
          "type": "uint256"
        }
      ],
      "stateMutability": "view",
      "type": "function"
    },
    {
      "inputs": [
        {
          "internalType": "bytes32",
          "name": "role",
          "type": "bytes32"
        },
        {
          "internalType": "address",
          "name": "callerConfirmation",
          "type": "address"
        }
      ],
      "name": "renounceRole",
      "outputs": [],
      "stateMutability": "nonpayable",
      "type": "function"
    },
    {
      "inputs": [
        {
          "internalType": "address",
          "name": "_bank",
          "type": "address"
        }
      ],
      "name": "revokeADRSLicense",
      "outputs": [],
      "stateMutability": "nonpayable",
      "type": "function"
    },
    {
      "inputs": [
        {
          "internalType": "address",
          "name": "_bank",
          "type": "address"
        }
      ],
      "name": "revokeBPSLicense",
      "outputs": [],
      "stateMutability": "nonpayable",
      "type": "function"
    },
    {
      "inputs": [
        {
          "internalType": "bytes32",
          "name": "role",
          "type": "bytes32"
        },
        {
          "internalType": "address",
          "name": "account",
          "type": "address"
        }
      ],
      "name": "revokeRole",
      "outputs": [],
      "stateMutability": "nonpayable",
      "type": "function"
    },
    {
      "inputs": [
        {
          "internalType": "address",
          "name": "_bank",
          "type": "address"
        }
      ],
      "name": "revokeSSSLicense",
      "outputs": [],
      "stateMutability": "nonpayable",
      "type": "function"
    },
    {
      "inputs": [],
      "name": "sssAnnualFee",
      "outputs": [
        {
          "internalType": "uint256",
          "name": "",
          "type": "uint256"
        }
      ],
      "stateMutability": "view",
      "type": "function"
    },
    {
      "inputs": [
        {
          "internalType": "bytes4",
          "name": "interfaceId",
          "type": "bytes4"
        }
      ],
      "name": "supportsInterface",
      "outputs": [
        {
          "internalType": "bool",
          "name": "",
          "type": "bool"
        }
      ],
      "stateMutability": "view",
      "type": "function"
    },
    {
      "inputs": [],
      "name": "totalBanksOnboarded",
      "outputs": [
        {
          "internalType": "uint256",
          "name": "",
          "type": "uint256"
        }
      ],
      "stateMutability": "view",
      "type": "function"
    },
    {
      "inputs": [],
      "name": "totalExternalBanks",
      "outputs": [
        {
          "internalType": "uint256",
          "name": "",
          "type": "uint256"
        }
      ],
      "stateMutability": "view",
      "type": "function"
    },
    {
      "inputs": [],
      "name": "totalFeesCollected",
      "outputs": [
        {
          "internalType": "uint256",
          "name": "",
          "type": "uint256"
        }
      ],
      "stateMutability": "view",
      "type": "function"
    },
    {
      "inputs": [],
      "name": "totalPartnerBanks",
      "outputs": [
        {
          "internalType": "uint256",
          "name": "",
          "type": "uint256"
        }
      ],
      "stateMutability": "view",
      "type": "function"
    },
    {
      "inputs": [
        {
          "internalType": "uint256",
          "name": "_newFee",
          "type": "uint256"
        }
      ],
      "name": "updateADRSFee",
      "outputs": [],
      "stateMutability": "nonpayable",
      "type": "function"
    },
    {
      "inputs": [
        {
          "internalType": "address",
          "name": "_newArchitect",
          "type": "address"
        }
      ],
      "name": "updateArchitectWallet",
      "outputs": [],
      "stateMutability": "nonpayable",
      "type": "function"
    },
    {
      "inputs": [
        {
          "internalType": "uint256",
          "name": "_newFee",
          "type": "uint256"
        }
      ],
      "name": "updateBPSFee",
      "outputs": [],
      "stateMutability": "nonpayable",
      "type": "function"
    },
    {
      "inputs": [
        {
          "internalType": "uint256",
          "name": "_architectPercent",
          "type": "uint256"
        },
        {
          "internalType": "uint256",
          "name": "_foundationPercent",
          "type": "uint256"
        }
      ],
      "name": "updateFeeSplit",
      "outputs": [],
      "stateMutability": "nonpayable",
      "type": "function"
    },
    {
      "inputs": [
        {
          "internalType": "address",
          "name": "_newFoundation",
          "type": "address"
        }
      ],
      "name": "updateFoundationWallet",
      "outputs": [],
      "stateMutability": "nonpayable",
      "type": "function"
    },
    {
      "inputs": [
        {
          "internalType": "uint256",
          "name": "_newFee",
          "type": "uint256"
        }
      ],
      "name": "updateOnboardingFee",
      "outputs": [],
      "stateMutability": "nonpayable",
      "type": "function"
    },
    {
      "inputs": [
        {
          "internalType": "uint256",
          "name": "_newDiscount",
          "type": "uint256"
        }
      ],
      "name": "updatePartnerDiscount",
      "outputs": [],
      "stateMutability": "nonpayable",
      "type": "function"
    },
    {
      "inputs": [
        {
          "internalType": "uint256",
          "name": "_newFee",
          "type": "uint256"
        }
      ],
      "name": "updateSSSFee",
      "outputs": [],
      "stateMutability": "nonpayable",
      "type": "function"
    },
    {
      "inputs": [],
      "name": "vidaToken",
      "outputs": [
        {
          "internalType": "contract FoundationVault",
          "name": "",
          "type": "address"
        }
      ],
      "stateMutability": "view",
      "type": "function"
    }
  ],
  "bytecode": "0x608060405260236003556041600455683635c9adc5dea00000600555681b1ae4d6e2ef500000600655681b1ae4d6e2ef500000600755685150ae84a8cdf0000060085560326009553480156200005457600080fd5b5060405162001f3538038062001f35833981016040819052620000779162000333565b600180556001600160a01b038316620000e85760405162461bcd60e51b815260206004820152602860248201527f53656e74696e656c476174653a205649444120746f6b656e206973207a65726f604482015267206164647265737360c01b60648201526084015b60405180910390fd5b6001600160a01b038216620001505760405162461bcd60e51b815260206004820152602760248201527f53656e74696e656c476174653a20617263686974656374206973207a65726f206044820152666164647265737360c81b6064820152608401620000df565b6001600160a01b038116620001b95760405162461bcd60e51b815260206004820152602860248201527f53656e74696e656c476174653a20666f756e646174696f6e206973207a65726f604482015267206164647265737360c01b6064820152608401620000df565b600a80546001600160a01b038086166001600160a01b031992831617909255600b8054858416908316179055600c8054928416929091169190911790556200020360008362000267565b50620002307fd81d72b65535f1777b4b20777e5306dade95bd1fde525ef999f6bd610befc1d48362000267565b506200025d7f91f4acb4e22d884ddd51fc71554726ebe920375da6f1520c331da617e41812618262000267565b505050506200037d565b6000828152602081815260408083206001600160a01b038516845290915281205460ff166200030c576000838152602081815260408083206001600160a01b03861684529091529020805460ff19166001179055620002c33390565b6001600160a01b0316826001600160a01b0316847f2f8788117e7eff1d82e926ec794901d17c78024a50270940304540a733656f0d60405160405180910390a450600162000310565b5060005b92915050565b80516001600160a01b03811681146200032e57600080fd5b919050565b6000806000606084860312156200034957600080fd5b620003548462000316565b9250620003646020850162000316565b9150620003746040850162000316565b90509250925092565b611ba8806200038d6000396000f3fe608060405234801561001057600080fd5b506004361061028a5760003560e01c806377d7c1611161015c578063d1f9dcb0116100ce578063ea0a321411610087578063ea0a321414610630578063f18a02c614610643578063f66cc96d146106be578063f7ce0b73146106d1578063fcff9b15146106e4578063fdb014e3146106f757600080fd5b8063d1f9dcb0146105ad578063d547741f146105b6578063dbff004d146105c9578063dea36742146105d2578063e45b051314610600578063e66fd9ef1461060957600080fd5b8063a217fddf11610120578063a217fddf14610546578063a2b3bb041461054e578063a44a5f5e14610561578063c73045a314610574578063c7317f3814610587578063cbd54bb41461059a57600080fd5b806377d7c161146104db5780638815f47a146104e45780638c1c150f1461050b57806391d148541461051e57806395d115131461053157600080fd5b80633eddd21b11610200578063622bfef7116101b9578063622bfef7146103f75780636637788a146104005780636b7ae8dc146104135780636baca915146104265780636cfccc2f146104895780636f2e7474146104c857600080fd5b80633eddd21b1461038f5780634d5f10b814610398578063575e7e2a146103ab5780635dc86e1d146103d257806360c6d8ae146103e55780636194bc67146103ee57600080fd5b80631c91e759116102525780631c91e759146103175780631fb89c371461032a578063248a9ca31461033357806328857a6d146103565780632f2ff15d1461036957806336568abe1461037c57600080fd5b806301ffc9a71461028f5780630766b96c146102b75780631298e132146102e2578063169c093e146102f95780631795a94514610302575b600080fd5b6102a261029d366004611850565b61070a565b60405190151581526020015b60405180910390f35b600b546102ca906001600160a01b031681565b6040516001600160a01b0390911681526020016102ae565b6102eb60085481565b6040519081526020016102ae565b6102eb60045481565b610315610310366004611881565b610741565b005b6103156103253660046118b6565b61075f565b6102eb60075481565b6102eb610341366004611881565b60009081526020819052604090206001015490565b610315610364366004611881565b6108bf565b6103156103773660046118e0565b6108dd565b61031561038a3660046118e0565b610908565b6102eb60065481565b6103156103a636600461190c565b61093b565b6102eb7fdf52aa2589b4b0dd726e3fecffcf5218499536de913efc5699599b4ee6d93d4f81565b6102a26103e036600461190c565b6109bb565b6102eb60105481565b6102eb600d5481565b6102eb600e5481565b61031561040e366004611881565b610a00565b600c546102ca906001600160a01b031681565b61043961043436600461190c565b610a81565b6040516102ae9190600060c0820190508251151582526020830151602083015260408301516040830152606083015160608301526080830151608083015260a0830151151560a083015292915050565b600d54600e54600f54601054600354600454604080519687526020870195909552938501929092526060840152608083015260a082015260c0016102ae565b6103156104d636600461190c565b610b2b565b6102eb600f5481565b6102eb7ffe982cd5bdb57bf1b1563b344e5c62dcb215e521ca5ef6605aea563b98b9ff5581565b610315610519366004611881565b610b91565b6102a261052c3660046118e0565b610baf565b6102eb600080516020611b5383398151915281565b6102eb600081565b61031561055c366004611927565b610bd8565b61031561056f3660046118b6565b610d18565b61031561058236600461190c565b610e49565b610315610595366004611881565b610ead565b6102a26105a836600461190c565b610ecb565b6102eb60055481565b6103156105c43660046118e0565b610f10565b6102eb60095481565b6102a26105e036600461190c565b6001600160a01b0316600090815260026020526040902060030154421090565b6102eb60035481565b6102eb7f91f4acb4e22d884ddd51fc71554726ebe920375da6f1520c331da617e418126181565b61031561063e36600461190c565b610f35565b61068d61065136600461190c565b600260208190526000918252604090912080546001820154928201546003830154600484015460059094015460ff938416959492939192911686565b60408051961515875260208701959095529385019290925260608401526080830152151560a082015260c0016102ae565b6103156106cc36600461190c565b610fdb565b6103156106df3660046118b6565b611080565b6103156106f2366004611957565b6111b1565b600a546102ca906001600160a01b031681565b60006001600160e01b03198216637965db0b60e01b148061073b57506301ffc9a760e01b6001600160e01b03198316145b92915050565b600080516020611b53833981519152610759816114f6565b50600555565b600080516020611b53833981519152610777816114f6565b61077f611503565b6001600160a01b03831660009081526002602052604090205460ff166107c05760405162461bcd60e51b81526004016107b79061198e565b60405180910390fd5b6001600160a01b03831660009081526002602052604081206005015460ff166107eb57600854610807565b60646009546008546107fd91906119d9565b61080791906119f0565b905061016d61081684836119d9565b61082091906119f0565b905061082c848261152d565b600061083b84620151806119d9565b6108459042611a12565b6001600160a01b03861660008181526002602081905260409182902060038101859055600181018590550183905551919250907fe1823f6d630bd211cf7b759d4a9dc6155b353212bc777d14406669568159f18f906108a79084908690611a25565b60405180910390a250506108ba60018055565b505050565b600080516020611b538339815191526108d7816114f6565b50600655565b6000828152602081905260409020600101546108f8816114f6565b6109028383611716565b50505050565b6001600160a01b03811633146109315760405163334bd91960e11b815260040160405180910390fd5b6108ba82826117a8565b600080516020611b53833981519152610953816114f6565b6001600160a01b0382166000818152600260208190526040808320600381018490556001810184905590910191909155517f0b75cebec6bd744ac9fb5114ecfeb62afc62f5d0a4af8e9f04f99034df60577d906109af90611a58565b60405180910390a25050565b6001600160a01b03811660009081526002602052604081206001015442108061073b5750506001600160a01b0316600090815260026020526040902060030154421090565b600080516020611b53833981519152610a18816114f6565b6064821115610a7b5760405162461bcd60e51b815260206004820152602960248201527f53656e74696e656c476174653a20646973636f756e742063616e6e6f7420657860448201526863656564203130302560b81b60648201526084016107b7565b50600955565b610abe6040518060c00160405280600015158152602001600081526020016000815260200160008152602001600081526020016000151581525090565b506001600160a01b0316600090815260026020818152604092839020835160c081018552815460ff9081161515825260018301549382019390935292810154938301939093526003830154606083015260048301546080830152600590920154909116151560a082015290565b600080516020611b53833981519152610b43816114f6565b6001600160a01b038216600081815260026020819052604080832090910191909155517f0b75cebec6bd744ac9fb5114ecfeb62afc62f5d0a4af8e9f04f99034df60577d906109af90611a7b565b600080516020611b53833981519152610ba9816114f6565b50600755565b6000918252602082815260408084206001600160a01b0393909316845291905290205460ff1690565b600080516020611b53833981519152610bf0816114f6565b610bfa8284611a12565b606414610c5b5760405162461bcd60e51b815260206004820152602960248201527f53656e74696e656c476174653a2070657263656e7461676573206d75737420736044820152680756d20746f203130360bc1b60648201526084016107b7565b601e8310158015610c6d575060288311155b610cd05760405162461bcd60e51b815260206004820152602e60248201527f53656e74696e656c476174653a206172636869746563742070657263656e742060448201526d6d7573742062652033302d34302560901b60648201526084016107b7565b6003839055600482905560408051848152602081018490527f1eab951da250f7e001396235b296e29bc73945b6a52fd471dd8f3de3398634be910160405180910390a1505050565b600080516020611b53833981519152610d30816114f6565b610d38611503565b6001600160a01b03831660009081526002602052604090205460ff16610d705760405162461bcd60e51b81526004016107b79061198e565b6001600160a01b03831660009081526002602052604081206005015460ff16610d9b57600654610db7565b6064600954600654610dad91906119d9565b610db791906119f0565b905061016d610dc684836119d9565b610dd091906119f0565b9050610ddc848261152d565b6000610deb84620151806119d9565b610df59042611a12565b6001600160a01b0386166000818152600260205260409081902060010183905551919250907fe1823f6d630bd211cf7b759d4a9dc6155b353212bc777d14406669568159f18f906108a79084908690611a9e565b600080516020611b53833981519152610e61816114f6565b6001600160a01b03821660008181526002602052604080822060010191909155517f0b75cebec6bd744ac9fb5114ecfeb62afc62f5d0a4af8e9f04f99034df60577d906109af90611ac2565b600080516020611b53833981519152610ec5816114f6565b50600855565b6001600160a01b03811660009081526002602081905260408220015442108061073b5750506001600160a01b0316600090815260026020526040902060030154421090565b600082815260208190526040902060010154610f2b816114f6565b61090283836117a8565b600080516020611b53833981519152610f4d816114f6565b6001600160a01b038216610fb85760405162461bcd60e51b815260206004820152602c60248201527f53656e74696e656c476174653a206e657720666f756e646174696f6e2069732060448201526b7a65726f206164647265737360a01b60648201526084016107b7565b50600c80546001600160a01b0319166001600160a01b0392909216919091179055565b600080516020611b53833981519152610ff3816114f6565b6001600160a01b03821661105d5760405162461bcd60e51b815260206004820152602b60248201527f53656e74696e656c476174653a206e657720617263686974656374206973207a60448201526a65726f206164647265737360a81b60648201526084016107b7565b50600b80546001600160a01b0319166001600160a01b0392909216919091179055565b600080516020611b53833981519152611098816114f6565b6110a0611503565b6001600160a01b03831660009081526002602052604090205460ff166110d85760405162461bcd60e51b81526004016107b79061198e565b6001600160a01b03831660009081526002602052604081206005015460ff166111035760075461111f565b606460095460075461111591906119d9565b61111f91906119f0565b905061016d61112e84836119d9565b61113891906119f0565b9050611144848261152d565b600061115384620151806119d9565b61115d9042611a12565b6001600160a01b0386166000818152600260208190526040918290200183905551919250907fe1823f6d630bd211cf7b759d4a9dc6155b353212bc777d14406669568159f18f906108a79084908690611ae6565b600080516020611b538339815191526111c9816114f6565b6111d1611503565b6001600160a01b0383166112325760405162461bcd60e51b815260206004820152602260248201527f53656e74696e656c476174653a2062616e6b206973207a65726f206164647265604482015261737360f01b60648201526084016107b7565b6001600160a01b03831660009081526002602052604090205460ff16156112a75760405162461bcd60e51b8152602060048201526024808201527f53656e74696e656c476174653a2062616e6b20616c7265616479206f6e626f616044820152631c99195960e21b60648201526084016107b7565b6000826112b6576005546112d2565b60646009546005546112c891906119d9565b6112d291906119f0565b600a54600c546040516323b872dd60e01b81526001600160a01b03888116600483015291821660248201526044810184905292935016906323b872dd906064016020604051808303816000875af1158015611331573d6000803e3d6000fd5b505050506040513d601f19601f820116820180604052508101906113559190611b09565b5082156113a1576113867ffe982cd5bdb57bf1b1563b344e5c62dcb215e521ca5ef6605aea563b98b9ff5585611716565b50600e805490600061139783611b26565b91905055506113e2565b6113cb7fdf52aa2589b4b0dd726e3fecffcf5218499536de913efc5699599b4ee6d93d4f85611716565b50600f80549060006113dc83611b26565b91905055505b6040805160c0810182526001808252600060208084018281528486018381526060860184815242608088019081528b151560a089019081526001600160a01b038e1687526002958690529886209751885490151560ff19918216178955935196880196909655905192860192909255905160038501559151600484015592516005909201805492151592909116919091179055600d80549161148383611b26565b9190505550806010600082825461149a9190611a12565b909155505060408051841515815260208101839052428183015290516001600160a01b038616917f651907c96fa2bb166ff754c43c4aafe967ca1f9a11cc501fb7ffb33883b205c7919081900360600190a2506108ba60018055565b6115008133611813565b50565b60026001540361152657604051633ee5aeb560e01b815260040160405180910390fd5b6002600155565b6000811161157d5760405162461bcd60e51b815260206004820181905260248201527f53656e74696e656c476174653a2066656520616d6f756e74206973207a65726f60448201526064016107b7565b600060646003548361158f91906119d9565b61159991906119f0565b905060006115a78284611b3f565b600a54600b546040516323b872dd60e01b81526001600160a01b03888116600483015291821660248201526044810186905292935016906323b872dd906064016020604051808303816000875af1158015611606573d6000803e3d6000fd5b505050506040513d601f19601f8201168201806040525081019061162a9190611b09565b50600a54600c546040516323b872dd60e01b81526001600160a01b0387811660048301529182166024820152604481018490529116906323b872dd906064016020604051808303816000875af1158015611688573d6000803e3d6000fd5b505050506040513d601f19601f820116820180604052508101906116ac9190611b09565b5082601060008282546116bf9190611a12565b909155505060408051848152602081018490529081018290526001600160a01b038516907f7e4199a81d431b89a16814e8730ae102c7b9b30c1a661bc67be86f4b185b17339060600160405180910390a250505050565b60006117228383610baf565b6117a0576000838152602081815260408083206001600160a01b03861684529091529020805460ff191660011790556117583390565b6001600160a01b0316826001600160a01b0316847f2f8788117e7eff1d82e926ec794901d17c78024a50270940304540a733656f0d60405160405180910390a450600161073b565b50600061073b565b60006117b48383610baf565b156117a0576000838152602081815260408083206001600160a01b0386168085529252808320805460ff1916905551339286917ff6391f5c32d9c69d2a47ea670b442974b53935d1edc7fd64eb21e047a839171b9190a450600161073b565b61181d8282610baf565b61184c5760405163e2517d3f60e01b81526001600160a01b0382166004820152602481018390526044016107b7565b5050565b60006020828403121561186257600080fd5b81356001600160e01b03198116811461187a57600080fd5b9392505050565b60006020828403121561189357600080fd5b5035919050565b80356001600160a01b03811681146118b157600080fd5b919050565b600080604083850312156118c957600080fd5b6118d28361189a565b946020939093013593505050565b600080604083850312156118f357600080fd5b823591506119036020840161189a565b90509250929050565b60006020828403121561191e57600080fd5b61187a8261189a565b6000806040838503121561193a57600080fd5b50508035926020909101359150565b801515811461150057600080fd5b6000806040838503121561196a57600080fd5b6119738361189a565b9150602083013561198381611949565b809150509250929050565b6020808252818101527f53656e74696e656c476174653a2062616e6b206e6f74206f6e626f6172646564604082015260600190565b634e487b7160e01b600052601160045260246000fd5b808202811582820484141761073b5761073b6119c3565b600082611a0d57634e487b7160e01b600052601260045260246000fd5b500490565b8082018082111561073b5761073b6119c3565b606081526000611a4860608301600381526253535360e81b602082015260400190565b6020830194909452506040015290565b60208152600061073b60208301600381526253535360e81b602082015260400190565b60208152600061073b60208301600381526242505360e81b602082015260400190565b606081526000611a486060830160048152634144525360e01b602082015260400190565b60208152600061073b6020830160048152634144525360e01b602082015260400190565b606081526000611a4860608301600381526242505360e81b602082015260400190565b600060208284031215611b1b57600080fd5b815161187a81611949565b600060018201611b3857611b386119c3565b5060010190565b8181038181111561073b5761073b6119c356fed81d72b65535f1777b4b20777e5306dade95bd1fde525ef999f6bd610befc1d4a26469706673582212202e3589fc6df2bbb1caad625b0d9c95ecdd1b90aa7ccb69cb155b0c9324d9102564736f6c63430008140033",
  "linkReferences": {},
  "deployedLinkReferences": {}
}