{
  "_format": "hh-sol-artifact-1",
  "contractName": "SharedAccount",
  "sourceName": "contracts/SharedAccount.sol",
  "abi": [
    {
      "inputs": [],
      "name": "AlreadyInitialized",
      "type": "error"
    },
    {
      "inputs": [],
      "name": "CannotRemoveLastAdmin",
      "type": "error"
    },
    {
      "inputs": [],
      "name": "InvalidAdmin",
      "type": "error"
    },
    {
      "inputs": [],
      "name": "NotAdmin",
      "type": "error"
    },
    {
      "inputs": [],
      "name": "NotInitialized",
      "type": "error"
    },
    {
      "inputs": [],
      "name": "ReentrancyGuardReentrantCall",
      "type": "error"
    },
    {
      "anonymous": false,
      "inputs": [
        {
          "indexed": false,
          "internalType": "string",
          "name": "accountName",
          "type": "string"
        },
        {
          "indexed": false,
          "internalType": "address[]",
          "name": "admins",
          "type": "address[]"
        },
        {
          "indexed": false,
          "internalType": "address",
          "name": "partner",
          "type": "address"
        },
        {
          "indexed": false,
          "internalType": "uint256",
          "name": "timestamp",
          "type": "uint256"
        }
      ],
      "name": "AccountInitialized",
      "type": "event"
    },
    {
      "anonymous": false,
      "inputs": [
        {
          "indexed": true,
          "internalType": "address",
          "name": "admin",
          "type": "address"
        },
        {
          "indexed": true,
          "internalType": "address",
          "name": "addedBy",
          "type": "address"
        }
      ],
      "name": "AdminAdded",
      "type": "event"
    },
    {
      "anonymous": false,
      "inputs": [
        {
          "indexed": true,
          "internalType": "address",
          "name": "admin",
          "type": "address"
        },
        {
          "indexed": true,
          "internalType": "address",
          "name": "removedBy",
          "type": "address"
        }
      ],
      "name": "AdminRemoved",
      "type": "event"
    },
    {
      "inputs": [],
      "name": "accountName",
      "outputs": [
        {
          "internalType": "string",
          "name": "",
          "type": "string"
        }
      ],
      "stateMutability": "view",
      "type": "function"
    },
    {
      "inputs": [
        {
          "internalType": "address",
          "name": "newAdmin",
          "type": "address"
        }
      ],
      "name": "addAdmin",
      "outputs": [],
      "stateMutability": "nonpayable",
      "type": "function"
    },
    {
      "inputs": [
        {
          "internalType": "uint256",
          "name": "",
          "type": "uint256"
        }
      ],
      "name": "admins",
      "outputs": [
        {
          "internalType": "address",
          "name": "",
          "type": "address"
        }
      ],
      "stateMutability": "view",
      "type": "function"
    },
    {
      "inputs": [],
      "name": "createdAt",
      "outputs": [
        {
          "internalType": "uint256",
          "name": "",
          "type": "uint256"
        }
      ],
      "stateMutability": "view",
      "type": "function"
    },
    {
      "inputs": [],
      "name": "getAdminCount",
      "outputs": [
        {
          "internalType": "uint256",
          "name": "",
          "type": "uint256"
        }
      ],
      "stateMutability": "view",
      "type": "function"
    },
    {
      "inputs": [],
      "name": "getAdmins",
      "outputs": [
        {
          "internalType": "address[]",
          "name": "",
          "type": "address[]"
        }
      ],
      "stateMutability": "view",
      "type": "function"
    },
    {
      "inputs": [
        {
          "internalType": "address[]",
          "name": "_admins",
          "type": "address[]"
        },
        {
          "internalType": "string",
          "name": "_accountName",
          "type": "string"
        },
        {
          "internalType": "address",
          "name": "_partner",
          "type": "address"
        }
      ],
      "name": "initialize",
      "outputs": [],
      "stateMutability": "nonpayable",
      "type": "function"
    },
    {
      "inputs": [],
      "name": "initialized",
      "outputs": [
        {
          "internalType": "bool",
          "name": "",
          "type": "bool"
        }
      ],
      "stateMutability": "view",
      "type": "function"
    },
    {
      "inputs": [
        {
          "internalType": "address",
          "name": "",
          "type": "address"
        }
      ],
      "name": "isAdmin",
      "outputs": [
        {
          "internalType": "bool",
          "name": "",
          "type": "bool"
        }
      ],
      "stateMutability": "view",
      "type": "function"
    },
    {
      "inputs": [],
      "name": "partner",
      "outputs": [
        {
          "internalType": "address",
          "name": "",
          "type": "address"
        }
      ],
      "stateMutability": "view",
      "type": "function"
    },
    {
      "inputs": [
        {
          "internalType": "address",
          "name": "admin",
          "type": "address"
        }
      ],
      "name": "removeAdmin",
      "outputs": [],
      "stateMutability": "nonpayable",
      "type": "function"
    }
  ],
  "bytecode": "0x608060405234801561001057600080fd5b506001600055610e09806100256000396000f3fe608060405234801561001057600080fd5b50600436106100a95760003560e01c8063704802751161007157806370480275146101485780638b7bf3eb1461015b578063be10862b1461016d578063c5e5798514610180578063cf09e0d014610195578063dc3736351461019e57600080fd5b806314bfd6d0146100ae578063158ef93e146100de5780631785f53c146100fb57806324d7806c1461011057806331ae450b14610133575b600080fd5b6100c16100bc366004610937565b6101b1565b6040516001600160a01b0390911681526020015b60405180910390f35b6006546100eb9060ff1681565b60405190151581526020016100d5565b61010e61010936600461096c565b6101db565b005b6100eb61011e36600461096c565b60046020526000908152604090205460ff1681565b61013b61040d565b6040516100d591906109d2565b61010e61015636600461096c565b61046f565b6005545b6040519081526020016100d5565b6002546100c1906001600160a01b031681565b6101886105d3565b6040516100d59190610a2b565b61015f60035481565b61010e6101ac366004610af5565b610661565b600581815481106101c157600080fd5b6000918252602090912001546001600160a01b0316905081565b3360009081526004602052604090205460ff1661020b57604051637bfa4b9f60e01b815260040160405180910390fd5b60065460ff1661022e576040516321c4e35760e21b815260040160405180910390fd5b6001600160a01b03811660009081526004602052604090205460ff1661028a5760405162461bcd60e51b815260206004820152600c60248201526b2737ba1030b71030b236b4b760a11b60448201526064015b60405180910390fd5b6005546001106102ad5760405163c13a62ad60e01b815260040160405180910390fd5b6001600160a01b0381166000908152600460205260408120805460ff191690555b6005548110156103d357816001600160a01b0316600582815481106102f5576102f5610bd4565b6000918252602090912001546001600160a01b0316036103c1576005805461031f90600190610c00565b8154811061032f5761032f610bd4565b600091825260209091200154600580546001600160a01b03909216918390811061035b5761035b610bd4565b9060005260206000200160006101000a8154816001600160a01b0302191690836001600160a01b03160217905550600580548061039a5761039a610c19565b600082815260209020810160001990810180546001600160a01b03191690550190556103d3565b806103cb81610c2f565b9150506102ce565b5060405133906001600160a01b038316907fdb9d5d31320daf5bc7181d565b6da4d12e30f0f4d5aa324a992426c14a1d19ce90600090a350565b6060600580548060200260200160405190810160405280929190818152602001828054801561046557602002820191906000526020600020905b81546001600160a01b03168152600190910190602001808311610447575b5050505050905090565b3360009081526004602052604090205460ff1661049f57604051637bfa4b9f60e01b815260040160405180910390fd5b60065460ff166104c2576040516321c4e35760e21b815260040160405180910390fd5b6001600160a01b0381166104e957604051630b5eba9f60e41b815260040160405180910390fd5b6001600160a01b03811660009081526004602052604090205460ff16156105455760405162461bcd60e51b815260206004820152601060248201526f20b63932b0b23c9030b71030b236b4b760811b6044820152606401610281565b6001600160a01b038116600081815260046020526040808220805460ff1916600190811790915560058054918201815583527f036b6384b5eca791c62761152d0c79bb0604c104a5fb6f4eb0703f3154bb3db00180546001600160a01b03191684179055513392917fbf3f493c772c8c283fd124432c2d0f539ab343faa04258fe88e52912d36b102b91a350565b600180546105e090610c48565b80601f016020809104026020016040519081016040528092919081815260200182805461060c90610c48565b80156106595780601f1061062e57610100808354040283529160200191610659565b820191906000526020600020905b81548152906001019060200180831161063c57829003601f168201915b505050505081565b60065460ff16156106845760405162dc149f60e41b815260040160405180910390fd5b60008351116106d55760405162461bcd60e51b815260206004820152601c60248201527f4d7573742068617665206174206c65617374206f6e652061646d696e000000006044820152606401610281565b600082511161071d5760405162461bcd60e51b8152602060048201526014602482015273496e76616c6964206163636f756e74206e616d6560601b6044820152606401610281565b6001600160a01b0381166107655760405162461bcd60e51b815260206004820152600f60248201526e24b73b30b634b2103830b93a3732b960891b6044820152606401610281565b60016107718382610cd1565b50600280546001600160a01b0319166001600160a01b0383161790554260035560005b83518110156108e65760008482815181106107b1576107b1610bd4565b6020026020010151905060006001600160a01b0316816001600160a01b0316036108155760405162461bcd60e51b8152602060048201526015602482015274496e76616c69642061646d696e206164647265737360581b6044820152606401610281565b6001600160a01b03811660009081526004602052604090205460ff16156108705760405162461bcd60e51b815260206004820152600f60248201526e223ab83634b1b0ba329030b236b4b760891b6044820152606401610281565b6001600160a01b03166000818152600460205260408120805460ff191660019081179091556005805491820181559091527f036b6384b5eca791c62761152d0c79bb0604c104a5fb6f4eb0703f3154bb3db00180546001600160a01b0319169091179055806108de81610c2f565b915050610794565b506006805460ff191660011790556040517f9e80f6e667c114044187bba70ca0b8270ef61f22291bdb54653e0d173bec57649061092a908490869085904290610d91565b60405180910390a1505050565b60006020828403121561094957600080fd5b5035919050565b80356001600160a01b038116811461096757600080fd5b919050565b60006020828403121561097e57600080fd5b61098782610950565b9392505050565b600081518084526020808501945080840160005b838110156109c75781516001600160a01b0316875295820195908201906001016109a2565b509495945050505050565b602081526000610987602083018461098e565b6000815180845260005b81811015610a0b576020818501810151868301820152016109ef565b506000602082860101526020601f19601f83011685010191505092915050565b60208152600061098760208301846109e5565b634e487b7160e01b600052604160045260246000fd5b604051601f8201601f1916810167ffffffffffffffff81118282101715610a7d57610a7d610a3e565b604052919050565b600082601f830112610a9657600080fd5b813567ffffffffffffffff811115610ab057610ab0610a3e565b610ac3601f8201601f1916602001610a54565b818152846020838601011115610ad857600080fd5b816020850160208301376000918101602001919091529392505050565b600080600060608486031215610b0a57600080fd5b833567ffffffffffffffff80821115610b2257600080fd5b818601915086601f830112610b3657600080fd5b8135602082821115610b4a57610b4a610a3e565b8160051b610b59828201610a54565b928352848101820192828101908b851115610b7357600080fd5b958301955b84871015610b9857610b8987610950565b82529583019590830190610b78565b9850505087013592505080821115610baf57600080fd5b50610bbc86828701610a85565b925050610bcb60408501610950565b90509250925092565b634e487b7160e01b600052603260045260246000fd5b634e487b7160e01b600052601160045260246000fd5b81810381811115610c1357610c13610bea565b92915050565b634e487b7160e01b600052603160045260246000fd5b600060018201610c4157610c41610bea565b5060010190565b600181811c90821680610c5c57607f821691505b602082108103610c7c57634e487b7160e01b600052602260045260246000fd5b50919050565b601f821115610ccc57600081815260208120601f850160051c81016020861015610ca95750805b601f850160051c820191505b81811015610cc857828155600101610cb5565b5050505b505050565b815167ffffffffffffffff811115610ceb57610ceb610a3e565b610cff81610cf98454610c48565b84610c82565b602080601f831160018114610d345760008415610d1c5750858301515b600019600386901b1c1916600185901b178555610cc8565b600085815260208120601f198616915b82811015610d6357888601518255948401946001909101908401610d44565b5085821015610d815787850151600019600388901b60f8161c191681555b5050505050600190811b01905550565b608081526000610da460808301876109e5565b8281036020840152610db6818761098e565b6001600160a01b039590951660408401525050606001529291505056fea264697066735822122013433105f05dcb1d1fd240ae9aba9d9f88b3449cbaa91db5b545e3c33f452c8264736f6c63430008140033",
  "linkReferences": {},
  "deployedLinkReferences": {}
}