{
  "_format": "hh-sol-artifact-1",
  "contractName": "SharedAccountFactory",
  "sourceName": "contracts/SharedAccountFactory.sol",
  "abi": [
    {
      "inputs": [
        {
          "internalType": "address",
          "name": "_pffVerifiedSBT",
          "type": "address"
        },
        {
          "internalType": "address",
          "name": "_sharedAccountImplementation",
          "type": "address"
        },
        {
          "internalType": "string",
          "name": "_sentinelWebhookURL",
          "type": "string"
        }
      ],
      "stateMutability": "nonpayable",
      "type": "constructor"
    },
    {
      "inputs": [],
      "name": "AccountCreationFailed",
      "type": "error"
    },
    {
      "inputs": [],
      "name": "InvalidAccountName",
      "type": "error"
    },
    {
      "inputs": [],
      "name": "InvalidSovereignID",
      "type": "error"
    },
    {
      "inputs": [],
      "name": "NotWhitelistedPartner",
      "type": "error"
    },
    {
      "inputs": [
        {
          "internalType": "address",
          "name": "owner",
          "type": "address"
        }
      ],
      "name": "OwnableInvalidOwner",
      "type": "error"
    },
    {
      "inputs": [
        {
          "internalType": "address",
          "name": "account",
          "type": "address"
        }
      ],
      "name": "OwnableUnauthorizedAccount",
      "type": "error"
    },
    {
      "inputs": [],
      "name": "ReentrancyGuardReentrantCall",
      "type": "error"
    },
    {
      "inputs": [
        {
          "internalType": "address",
          "name": "sovereignID",
          "type": "address"
        }
      ],
      "name": "SovereignIDNotVerified",
      "type": "error"
    },
    {
      "anonymous": false,
      "inputs": [
        {
          "indexed": true,
          "internalType": "address",
          "name": "account",
          "type": "address"
        },
        {
          "indexed": true,
          "internalType": "address",
          "name": "sovereignID",
          "type": "address"
        },
        {
          "indexed": true,
          "internalType": "address",
          "name": "partner",
          "type": "address"
        },
        {
          "indexed": false,
          "internalType": "string",
          "name": "accountName",
          "type": "string"
        },
        {
          "indexed": false,
          "internalType": "uint256",
          "name": "timestamp",
          "type": "uint256"
        }
      ],
      "name": "AccountCreated",
      "type": "event"
    },
    {
      "anonymous": false,
      "inputs": [
        {
          "indexed": true,
          "internalType": "address",
          "name": "previousOwner",
          "type": "address"
        },
        {
          "indexed": true,
          "internalType": "address",
          "name": "newOwner",
          "type": "address"
        }
      ],
      "name": "OwnershipTransferred",
      "type": "event"
    },
    {
      "anonymous": false,
      "inputs": [
        {
          "indexed": true,
          "internalType": "address",
          "name": "partner",
          "type": "address"
        }
      ],
      "name": "PartnerRemoved",
      "type": "event"
    },
    {
      "anonymous": false,
      "inputs": [
        {
          "indexed": true,
          "internalType": "address",
          "name": "partner",
          "type": "address"
        },
        {
          "indexed": false,
          "internalType": "string",
          "name": "partnerName",
          "type": "string"
        }
      ],
      "name": "PartnerWhitelisted",
      "type": "event"
    },
    {
      "anonymous": false,
      "inputs": [
        {
          "indexed": false,
          "internalType": "string",
          "name": "newURL",
          "type": "string"
        }
      ],
      "name": "SentinelWebhookUpdated",
      "type": "event"
    },
    {
      "inputs": [
        {
          "internalType": "uint256",
          "name": "",
          "type": "uint256"
        }
      ],
      "name": "allAccounts",
      "outputs": [
        {
          "internalType": "address",
          "name": "",
          "type": "address"
        }
      ],
      "stateMutability": "view",
      "type": "function"
    },
    {
      "inputs": [
        {
          "internalType": "address",
          "name": "sovereignID",
          "type": "address"
        },
        {
          "internalType": "string",
          "name": "accountName",
          "type": "string"
        },
        {
          "internalType": "address[]",
          "name": "additionalAdmins",
          "type": "address[]"
        }
      ],
      "name": "createAccount",
      "outputs": [
        {
          "internalType": "address",
          "name": "account",
          "type": "address"
        }
      ],
      "stateMutability": "nonpayable",
      "type": "function"
    },
    {
      "inputs": [
        {
          "internalType": "uint256",
          "name": "index",
          "type": "uint256"
        }
      ],
      "name": "getAccountAtIndex",
      "outputs": [
        {
          "internalType": "address",
          "name": "",
          "type": "address"
        }
      ],
      "stateMutability": "view",
      "type": "function"
    },
    {
      "inputs": [
        {
          "internalType": "address",
          "name": "sovereignID",
          "type": "address"
        }
      ],
      "name": "getAccountsBySovereign",
      "outputs": [
        {
          "internalType": "address[]",
          "name": "",
          "type": "address[]"
        }
      ],
      "stateMutability": "view",
      "type": "function"
    },
    {
      "inputs": [],
      "name": "getTotalAccounts",
      "outputs": [
        {
          "internalType": "uint256",
          "name": "",
          "type": "uint256"
        }
      ],
      "stateMutability": "view",
      "type": "function"
    },
    {
      "inputs": [],
      "name": "owner",
      "outputs": [
        {
          "internalType": "address",
          "name": "",
          "type": "address"
        }
      ],
      "stateMutability": "view",
      "type": "function"
    },
    {
      "inputs": [
        {
          "internalType": "address",
          "name": "",
          "type": "address"
        }
      ],
      "name": "partnerNames",
      "outputs": [
        {
          "internalType": "string",
          "name": "",
          "type": "string"
        }
      ],
      "stateMutability": "view",
      "type": "function"
    },
    {
      "inputs": [],
      "name": "pffVerifiedSBT",
      "outputs": [
        {
          "internalType": "contract IPFFVerifiedSBT",
          "name": "",
          "type": "address"
        }
      ],
      "stateMutability": "view",
      "type": "function"
    },
    {
      "inputs": [
        {
          "internalType": "address",
          "name": "partner",
          "type": "address"
        }
      ],
      "name": "removePartner",
      "outputs": [],
      "stateMutability": "nonpayable",
      "type": "function"
    },
    {
      "inputs": [],
      "name": "renounceOwnership",
      "outputs": [],
      "stateMutability": "nonpayable",
      "type": "function"
    },
    {
      "inputs": [],
      "name": "sentinelWebhookURL",
      "outputs": [
        {
          "internalType": "string",
          "name": "",
          "type": "string"
        }
      ],
      "stateMutability": "view",
      "type": "function"
    },
    {
      "inputs": [],
      "name": "sharedAccountImplementation",
      "outputs": [
        {
          "internalType": "address",
          "name": "",
          "type": "address"
        }
      ],
      "stateMutability": "view",
      "type": "function"
    },
    {
      "inputs": [
        {
          "internalType": "address",
          "name": "",
          "type": "address"
        },
        {
          "internalType": "uint256",
          "name": "",
          "type": "uint256"
        }
      ],
      "name": "sovereignAccounts",
      "outputs": [
        {
          "internalType": "address",
          "name": "",
          "type": "address"
        }
      ],
      "stateMutability": "view",
      "type": "function"
    },
    {
      "inputs": [
        {
          "internalType": "address",
          "name": "newOwner",
          "type": "address"
        }
      ],
      "name": "transferOwnership",
      "outputs": [],
      "stateMutability": "nonpayable",
      "type": "function"
    },
    {
      "inputs": [
        {
          "internalType": "address",
          "name": "newImplementation",
          "type": "address"
        }
      ],
      "name": "updateImplementation",
      "outputs": [],
      "stateMutability": "nonpayable",
      "type": "function"
    },
    {
      "inputs": [
        {
          "internalType": "string",
          "name": "newURL",
          "type": "string"
        }
      ],
      "name": "updateSentinelWebhook",
      "outputs": [],
      "stateMutability": "nonpayable",
      "type": "function"
    },
    {
      "inputs": [
        {
          "internalType": "address",
          "name": "partner",
          "type": "address"
        },
        {
          "internalType": "string",
          "name": "partnerName",
          "type": "string"
        }
      ],
      "name": "whitelistPartner",
      "outputs": [],
      "stateMutability": "nonpayable",
      "type": "function"
    },
    {
      "inputs": [
        {
          "internalType": "address",
          "name": "",
          "type": "address"
        }
      ],
      "name": "whitelistedPartners",
      "outputs": [
        {
          "internalType": "bool",
          "name": "",
          "type": "bool"
        }
      ],
      "stateMutability": "view",
      "type": "function"
    }
  ],
  "bytecode": "0x60a06040523480156200001157600080fd5b50604051620015f9380380620015f983398101604081905262000034916200012b565b33806200005b57604051631e4fbdf760e01b81526000600482015260240160405180910390fd5b6200006681620000a8565b50600180556001600160a01b03838116608052600280546001600160a01b03191691841691909117905560076200009e8282620002b4565b5050505062000380565b600080546001600160a01b038381166001600160a01b0319831681178455604051919092169283917f8be0079c531659141344cd1fd0a4f28419497f9722a3daafe3b4186f6b6457e09190a35050565b80516001600160a01b03811681146200011057600080fd5b919050565b634e487b7160e01b600052604160045260246000fd5b6000806000606084860312156200014157600080fd5b6200014c84620000f8565b925060206200015d818601620000f8565b60408601519093506001600160401b03808211156200017b57600080fd5b818701915087601f8301126200019057600080fd5b815181811115620001a557620001a562000115565b604051601f8201601f19908116603f01168101908382118183101715620001d057620001d062000115565b816040528281528a86848701011115620001e957600080fd5b600093505b828410156200020d5784840186015181850187015292850192620001ee565b60008684830101528096505050505050509250925092565b600181811c908216806200023a57607f821691505b6020821081036200025b57634e487b7160e01b600052602260045260246000fd5b50919050565b601f821115620002af57600081815260208120601f850160051c810160208610156200028a5750805b601f850160051c820191505b81811015620002ab5782815560010162000296565b5050505b505050565b81516001600160401b03811115620002d057620002d062000115565b620002e881620002e1845462000225565b8462000261565b602080601f831160018114620003205760008415620003075750858301515b600019600386901b1c1916600185901b178555620002ab565b600085815260208120601f198616915b82811015620003515788860151825594840194600190910190840162000330565b5085821015620003705787850151600019600388901b60f8161c191681555b5050505050600190811b01905550565b608051611256620003a36000396000818161028001526107a701526112566000f3fe608060405234801561001057600080fd5b50600436106101165760003560e01c80636c3fda1d116100a25780638da5cb5b116100715780638da5cb5b14610259578063da6841aa1461026a578063e2e2dd801461027b578063ea3c281a146102a2578063f2fde38b146102b557600080fd5b80636c3fda1d1461020b578063715018a61461021e578063829812c31461022657806388c307421461024657600080fd5b8063361eea3b116100e9578063361eea3b14610197578063419c2d73146101aa578063470cb313146101dd5780635183d6fd146101e55780635bc9182d146101f857600080fd5b8063025b22bc1461011b5780630eec68e8146101305780632d761df014610159578063320dc0f414610184575b600080fd5b61012e610129366004610d0a565b6102c8565b005b61014361013e366004610d0a565b610346565b6040516101509190610d2c565b60405180910390f35b60025461016c906001600160a01b031681565b6040516001600160a01b039091168152602001610150565b61012e610192366004610dc3565b6103e0565b61016c6101a5366004610e16565b610503565b6101cd6101b8366004610d0a565b60036020526000908152604090205460ff1681565b6040519015158152602001610150565b61014361053b565b61016c6101f3366004610e40565b610548565b61012e610206366004610e59565b6105c0565b61016c610219366004610e40565b61064e565b61012e610678565b610239610234366004610d0a565b61068c565b6040516101509190610edf565b61016c610254366004610ef2565b610702565b6000546001600160a01b031661016c565b600654604051908152602001610150565b61016c7f000000000000000000000000000000000000000000000000000000000000000081565b61012e6102b0366004610d0a565b610ab2565b61012e6102c3366004610d0a565b610b24565b6102d0610b62565b6001600160a01b0381166103245760405162461bcd60e51b815260206004820152601660248201527524b73b30b634b21034b6b83632b6b2b73a30ba34b7b760511b60448201526064015b60405180910390fd5b600280546001600160a01b0319166001600160a01b0392909216919091179055565b6004602052600090815260409020805461035f90610fa0565b80601f016020809104026020016040519081016040528092919081815260200182805461038b90610fa0565b80156103d85780601f106103ad576101008083540402835291602001916103d8565b820191906000526020600020905b8154815290600101906020018083116103bb57829003601f168201915b505050505081565b6103e8610b62565b6001600160a01b03831661043e5760405162461bcd60e51b815260206004820152601760248201527f496e76616c696420706172746e65722061646472657373000000000000000000604482015260640161031b565b806104825760405162461bcd60e51b8152602060048201526014602482015273496e76616c696420706172746e6572206e616d6560601b604482015260640161031b565b6001600160a01b0383166000908152600360209081526040808320805460ff19166001179055600490915290206104ba82848361103f565b50826001600160a01b03167f39083393b3d2d4fa8bddc90ecdd878a700b94e3e92d84941274db39138ece34383836040516104f6929190611129565b60405180910390a2505050565b6005602052816000526040600020818154811061051f57600080fd5b6000918252602090912001546001600160a01b03169150829050565b6007805461035f90610fa0565b60065460009082106105925760405162461bcd60e51b8152602060048201526013602482015272496e646578206f7574206f6620626f756e647360681b604482015260640161031b565b600682815481106105a5576105a5611145565b6000918252602090912001546001600160a01b031692915050565b6105c8610b62565b806106035760405162461bcd60e51b815260206004820152600b60248201526a125b9d985b1a590815549360aa1b604482015260640161031b565b600761061082848361103f565b507fca6cbfba8f636a045b5039e03b91abe2804a7e1d1e361948729375ecef18d4578282604051610642929190611129565b60405180910390a15050565b6006818154811061065e57600080fd5b6000918252602090912001546001600160a01b0316905081565b610680610b62565b61068a6000610b8f565b565b6001600160a01b0381166000908152600560209081526040918290208054835181840281018401909452808452606093928301828280156106f657602002820191906000526020600020905b81546001600160a01b031681526001909101906020018083116106d8575b50505050509050919050565b600061070c610bdf565b3360009081526003602052604090205460ff1661073c57604051630130f0af60e71b815260040160405180910390fd5b6001600160a01b0386166107635760405163091d9b4f60e31b815260040160405180910390fd5b60008490036107855760405163253e733760e21b815260040160405180910390fd5b6040516370a0823160e01b81526001600160a01b0387811660048301526000917f0000000000000000000000000000000000000000000000000000000000000000909116906370a0823190602401602060405180830381865afa1580156107f0573d6000803e3d6000fd5b505050506040513d601f19601f82011682018060405250810190610814919061115b565b90508060000361084257604051631484087360e31b81526001600160a01b038816600482015260240161031b565b600254610857906001600160a01b0316610c09565b91506001600160a01b038216610880576040516320188a5960e01b815260040160405180910390fd5b600061088d84600161118a565b67ffffffffffffffff8111156108a5576108a5610fda565b6040519080825280602002602001820160405280156108ce578160200160208202803683370190505b50905087816000815181106108e5576108e5611145565b60200260200101906001600160a01b031690816001600160a01b03168152505060005b8481101561097d5785858281811061092257610922611145565b90506020020160208101906109379190610d0a565b8261094383600161118a565b8151811061095357610953611145565b6001600160a01b039092166020928302919091019091015280610975816111a3565b915050610908565b5060405163dc37363560e01b81526001600160a01b0384169063dc373635906109b09084908b908b9033906004016111bc565b600060405180830381600087803b1580156109ca57600080fd5b505af11580156109de573d6000803e3d6000fd5b505050506001600160a01b03888116600081815260056020908152604080832080546001808201835591855292842090920180546001600160a01b0319908116968a169687179091556006805493840181559093527ff652222313e28459528d920b65115c16c04f3efc82aaedc97be59f3f377c0d3f90910180549092168417909155513392907f410678fc657328a1e6407cc0ed22eed97479cbc4ec7cc54e8051ada6c4f8340c90610a96908c908c9042906111fc565b60405180910390a45050610aa960018055565b95945050505050565b610aba610b62565b6001600160a01b0381166000908152600360209081526040808320805460ff1916905560049091528120610aed91610ca5565b6040516001600160a01b038216907fd2639eca7fc6fcdba5fa158fc8075b41bc021e97ac1e127b9da5f4fd925f082890600090a250565b610b2c610b62565b6001600160a01b038116610b5657604051631e4fbdf760e01b81526000600482015260240161031b565b610b5f81610b8f565b50565b6000546001600160a01b0316331461068a5760405163118cdaa760e01b815233600482015260240161031b565b600080546001600160a01b038381166001600160a01b0319831681178455604051919092169283917f8be0079c531659141344cd1fd0a4f28419497f9722a3daafe3b4186f6b6457e09190a35050565b600260015403610c0257604051633ee5aeb560e01b815260040160405180910390fd5b6002600155565b6000604051733d602d80600a3d3981f3363d3d373d3d3d363d7360601b81528260601b60148201526e5af43d82803e903d91602b57fd5bf360881b60288201526037816000f09150506001600160a01b038116610ca05760405162461bcd60e51b815260206004820152601560248201527410db1bdb994818dc99585d1a5bdb8819985a5b1959605a1b604482015260640161031b565b919050565b508054610cb190610fa0565b6000825580601f10610cc1575050565b601f016020900490600052602060002090810190610b5f91905b80821115610cef5760008155600101610cdb565b5090565b80356001600160a01b0381168114610ca057600080fd5b600060208284031215610d1c57600080fd5b610d2582610cf3565b9392505050565b600060208083528351808285015260005b81811015610d5957858101830151858201604001528201610d3d565b506000604082860101526040601f19601f8301168501019250505092915050565b60008083601f840112610d8c57600080fd5b50813567ffffffffffffffff811115610da457600080fd5b602083019150836020828501011115610dbc57600080fd5b9250929050565b600080600060408486031215610dd857600080fd5b610de184610cf3565b9250602084013567ffffffffffffffff811115610dfd57600080fd5b610e0986828701610d7a565b9497909650939450505050565b60008060408385031215610e2957600080fd5b610e3283610cf3565b946020939093013593505050565b600060208284031215610e5257600080fd5b5035919050565b60008060208385031215610e6c57600080fd5b823567ffffffffffffffff811115610e8357600080fd5b610e8f85828601610d7a565b90969095509350505050565b600081518084526020808501945080840160005b83811015610ed45781516001600160a01b031687529582019590820190600101610eaf565b509495945050505050565b602081526000610d256020830184610e9b565b600080600080600060608688031215610f0a57600080fd5b610f1386610cf3565b9450602086013567ffffffffffffffff80821115610f3057600080fd5b610f3c89838a01610d7a565b90965094506040880135915080821115610f5557600080fd5b818801915088601f830112610f6957600080fd5b813581811115610f7857600080fd5b8960208260051b8501011115610f8d57600080fd5b9699959850939650602001949392505050565b600181811c90821680610fb457607f821691505b602082108103610fd457634e487b7160e01b600052602260045260246000fd5b50919050565b634e487b7160e01b600052604160045260246000fd5b601f82111561103a57600081815260208120601f850160051c810160208610156110175750805b601f850160051c820191505b8181101561103657828155600101611023565b5050505b505050565b67ffffffffffffffff83111561105757611057610fda565b61106b836110658354610fa0565b83610ff0565b6000601f84116001811461109f57600085156110875750838201355b600019600387901b1c1916600186901b1783556110f9565b600083815260209020601f19861690835b828110156110d057868501358255602094850194600190920191016110b0565b50868210156110ed5760001960f88860031b161c19848701351681555b505060018560011b0183555b5050505050565b81835281816020850137506000828201602090810191909152601f909101601f19169091010190565b60208152600061113d602083018486611100565b949350505050565b634e487b7160e01b600052603260045260246000fd5b60006020828403121561116d57600080fd5b5051919050565b634e487b7160e01b600052601160045260246000fd5b8082018082111561119d5761119d611174565b92915050565b6000600182016111b5576111b5611174565b5060010190565b6060815260006111cf6060830187610e9b565b82810360208401526111e2818688611100565b91505060018060a01b038316604083015295945050505050565b604081526000611210604083018587611100565b905082602083015294935050505056fea264697066735822122005db54036a481955558d7f3ae2c50d0e0ab67cf5d132316eeeabf8470e85e04564736f6c63430008140033",
  "linkReferences": {},
  "deployedLinkReferences": {}
}