{
  "_format": "hh-sol-artifact-1",
  "contractName": "PFFVerifiedSBT",
  "sourceName": "contracts/PFFVerifiedSBT.sol",
  "abi": [
    {
      "inputs": [],
      "stateMutability": "nonpayable",
      "type": "constructor"
    },
    {
      "inputs": [
        {
          "internalType": "address",
          "name": "sender",
          "type": "address"
        },
        {
          "internalType": "uint256",
          "name": "tokenId",
          "type": "uint256"
        },
        {
          "internalType": "address",
          "name": "owner",
          "type": "address"
        }
      ],
      "name": "ERC721IncorrectOwner",
      "type": "error"
    },
    {
      "inputs": [
        {
          "internalType": "address",
          "name": "operator",
          "type": "address"
        },
        {
          "internalType": "uint256",
          "name": "tokenId",
          "type": "uint256"
        }
      ],
      "name": "ERC721InsufficientApproval",
      "type": "error"
    },
    {
      "inputs": [
        {
          "internalType": "address",
          "name": "approver",
          "type": "address"
        }
      ],
      "name": "ERC721InvalidApprover",
      "type": "error"
    },
    {
      "inputs": [
        {
          "internalType": "address",
          "name": "operator",
          "type": "address"
        }
      ],
      "name": "ERC721InvalidOperator",
      "type": "error"
    },
    {
      "inputs": [
        {
          "internalType": "address",
          "name": "owner",
          "type": "address"
        }
      ],
      "name": "ERC721InvalidOwner",
      "type": "error"
    },
    {
      "inputs": [
        {
          "internalType": "address",
          "name": "receiver",
          "type": "address"
        }
      ],
      "name": "ERC721InvalidReceiver",
      "type": "error"
    },
    {
      "inputs": [
        {
          "internalType": "address",
          "name": "sender",
          "type": "address"
        }
      ],
      "name": "ERC721InvalidSender",
      "type": "error"
    },
    {
      "inputs": [
        {
          "internalType": "uint256",
          "name": "tokenId",
          "type": "uint256"
        }
      ],
      "name": "ERC721NonexistentToken",
      "type": "error"
    },
    {
      "inputs": [
        {
          "internalType": "address",
          "name": "owner",
          "type": "address"
        }
      ],
      "name": "OwnableInvalidOwner",
      "type": "error"
    },
    {
      "inputs": [
        {
          "internalType": "address",
          "name": "account",
          "type": "address"
        }
      ],
      "name": "OwnableUnauthorizedAccount",
      "type": "error"
    },
    {
      "anonymous": false,
      "inputs": [
        {
          "indexed": true,
          "internalType": "address",
          "name": "owner",
          "type": "address"
        },
        {
          "indexed": true,
          "internalType": "address",
          "name": "approved",
          "type": "address"
        },
        {
          "indexed": true,
          "internalType": "uint256",
          "name": "tokenId",
          "type": "uint256"
        }
      ],
      "name": "Approval",
      "type": "event"
    },
    {
      "anonymous": false,
      "inputs": [
        {
          "indexed": true,
          "internalType": "address",
          "name": "owner",
          "type": "address"
        },
        {
          "indexed": true,
          "internalType": "address",
          "name": "operator",
          "type": "address"
        },
        {
          "indexed": false,
          "internalType": "bool",
          "name": "approved",
          "type": "bool"
        }
      ],
      "name": "ApprovalForAll",
      "type": "event"
    },
    {
      "anonymous": false,
      "inputs": [
        {
          "indexed": true,
          "internalType": "address",
          "name": "previousOwner",
          "type": "address"
        },
        {
          "indexed": true,
          "internalType": "address",
          "name": "newOwner",
          "type": "address"
        }
      ],
      "name": "OwnershipTransferred",
      "type": "event"
    },
    {
      "anonymous": false,
      "inputs": [
        {
          "indexed": true,
          "internalType": "address",
          "name": "to",
          "type": "address"
        },
        {
          "indexed": true,
          "internalType": "uint256",
          "name": "tokenId",
          "type": "uint256"
        },
        {
          "indexed": false,
          "internalType": "string",
          "name": "metadataURI",
          "type": "string"
        }
      ],
      "name": "SBTMinted",
      "type": "event"
    },
    {
      "anonymous": false,
      "inputs": [
        {
          "indexed": true,
          "internalType": "uint256",
          "name": "tokenId",
          "type": "uint256"
        },
        {
          "indexed": true,
          "internalType": "address",
          "name": "holder",
          "type": "address"
        }
      ],
      "name": "SBTRestored",
      "type": "event"
    },
    {
      "anonymous": false,
      "inputs": [
        {
          "indexed": true,
          "internalType": "uint256",
          "name": "tokenId",
          "type": "uint256"
        },
        {
          "indexed": true,
          "internalType": "address",
          "name": "holder",
          "type": "address"
        }
      ],
      "name": "SBTRevoked",
      "type": "event"
    },
    {
      "anonymous": false,
      "inputs": [
        {
          "indexed": true,
          "internalType": "address",
          "name": "from",
          "type": "address"
        },
        {
          "indexed": true,
          "internalType": "address",
          "name": "to",
          "type": "address"
        },
        {
          "indexed": true,
          "internalType": "uint256",
          "name": "tokenId",
          "type": "uint256"
        }
      ],
      "name": "Transfer",
      "type": "event"
    },
    {
      "inputs": [
        {
          "internalType": "address",
          "name": "",
          "type": "address"
        }
      ],
      "name": "addressToTokenId",
      "outputs": [
        {
          "internalType": "uint256",
          "name": "",
          "type": "uint256"
        }
      ],
      "stateMutability": "view",
      "type": "function"
    },
    {
      "inputs": [
        {
          "internalType": "address",
          "name": "to",
          "type": "address"
        },
        {
          "internalType": "uint256",
          "name": "tokenId",
          "type": "uint256"
        }
      ],
      "name": "approve",
      "outputs": [],
      "stateMutability": "nonpayable",
      "type": "function"
    },
    {
      "inputs": [
        {
          "internalType": "address",
          "name": "owner",
          "type": "address"
        }
      ],
      "name": "balanceOf",
      "outputs": [
        {
          "internalType": "uint256",
          "name": "",
          "type": "uint256"
        }
      ],
      "stateMutability": "view",
      "type": "function"
    },
    {
      "inputs": [
        {
          "internalType": "address[]",
          "name": "recipients",
          "type": "address[]"
        },
        {
          "internalType": "string[]",
          "name": "metadataURIs",
          "type": "string[]"
        }
      ],
      "name": "batchMintSBT",
      "outputs": [],
      "stateMutability": "nonpayable",
      "type": "function"
    },
    {
      "inputs": [
        {
          "internalType": "uint256",
          "name": "tokenId",
          "type": "uint256"
        }
      ],
      "name": "getApproved",
      "outputs": [
        {
          "internalType": "address",
          "name": "",
          "type": "address"
        }
      ],
      "stateMutability": "view",
      "type": "function"
    },
    {
      "inputs": [
        {
          "internalType": "address",
          "name": "owner",
          "type": "address"
        },
        {
          "internalType": "address",
          "name": "operator",
          "type": "address"
        }
      ],
      "name": "isApprovedForAll",
      "outputs": [
        {
          "internalType": "bool",
          "name": "",
          "type": "bool"
        }
      ],
      "stateMutability": "view",
      "type": "function"
    },
    {
      "inputs": [
        {
          "internalType": "uint256",
          "name": "",
          "type": "uint256"
        }
      ],
      "name": "isRevoked",
      "outputs": [
        {
          "internalType": "bool",
          "name": "",
          "type": "bool"
        }
      ],
      "stateMutability": "view",
      "type": "function"
    },
    {
      "inputs": [
        {
          "internalType": "address",
          "name": "account",
          "type": "address"
        }
      ],
      "name": "isVerified",
      "outputs": [
        {
          "internalType": "bool",
          "name": "",
          "type": "bool"
        }
      ],
      "stateMutability": "view",
      "type": "function"
    },
    {
      "inputs": [
        {
          "internalType": "address",
          "name": "to",
          "type": "address"
        },
        {
          "internalType": "string",
          "name": "metadataURI",
          "type": "string"
        }
      ],
      "name": "mintSBT",
      "outputs": [],
      "stateMutability": "nonpayable",
      "type": "function"
    },
    {
      "inputs": [],
      "name": "name",
      "outputs": [
        {
          "internalType": "string",
          "name": "",
          "type": "string"
        }
      ],
      "stateMutability": "view",
      "type": "function"
    },
    {
      "inputs": [],
      "name": "owner",
      "outputs": [
        {
          "internalType": "address",
          "name": "",
          "type": "address"
        }
      ],
      "stateMutability": "view",
      "type": "function"
    },
    {
      "inputs": [
        {
          "internalType": "uint256",
          "name": "tokenId",
          "type": "uint256"
        }
      ],
      "name": "ownerOf",
      "outputs": [
        {
          "internalType": "address",
          "name": "",
          "type": "address"
        }
      ],
      "stateMutability": "view",
      "type": "function"
    },
    {
      "inputs": [],
      "name": "renounceOwnership",
      "outputs": [],
      "stateMutability": "nonpayable",
      "type": "function"
    },
    {
      "inputs": [
        {
          "internalType": "uint256",
          "name": "tokenId",
          "type": "uint256"
        }
      ],
      "name": "restoreSBT",
      "outputs": [],
      "stateMutability": "nonpayable",
      "type": "function"
    },
    {
      "inputs": [
        {
          "internalType": "uint256",
          "name": "tokenId",
          "type": "uint256"
        }
      ],
      "name": "revokeSBT",
      "outputs": [],
      "stateMutability": "nonpayable",
      "type": "function"
    },
    {
      "inputs": [
        {
          "internalType": "address",
          "name": "from",
          "type": "address"
        },
        {
          "internalType": "address",
          "name": "to",
          "type": "address"
        },
        {
          "internalType": "uint256",
          "name": "tokenId",
          "type": "uint256"
        }
      ],
      "name": "safeTransferFrom",
      "outputs": [],
      "stateMutability": "nonpayable",
      "type": "function"
    },
    {
      "inputs": [
        {
          "internalType": "address",
          "name": "from",
          "type": "address"
        },
        {
          "internalType": "address",
          "name": "to",
          "type": "address"
        },
        {
          "internalType": "uint256",
          "name": "tokenId",
          "type": "uint256"
        },
        {
          "internalType": "bytes",
          "name": "data",
          "type": "bytes"
        }
      ],
      "name": "safeTransferFrom",
      "outputs": [],
      "stateMutability": "nonpayable",
      "type": "function"
    },
    {
      "inputs": [
        {
          "internalType": "address",
          "name": "operator",
          "type": "address"
        },
        {
          "internalType": "bool",
          "name": "approved",
          "type": "bool"
        }
      ],
      "name": "setApprovalForAll",
      "outputs": [],
      "stateMutability": "nonpayable",
      "type": "function"
    },
    {
      "inputs": [
        {
          "internalType": "bytes4",
          "name": "interfaceId",
          "type": "bytes4"
        }
      ],
      "name": "supportsInterface",
      "outputs": [
        {
          "internalType": "bool",
          "name": "",
          "type": "bool"
        }
      ],
      "stateMutability": "view",
      "type": "function"
    },
    {
      "inputs": [],
      "name": "symbol",
      "outputs": [
        {
          "internalType": "string",
          "name": "",
          "type": "string"
        }
      ],
      "stateMutability": "view",
      "type": "function"
    },
    {
      "inputs": [
        {
          "internalType": "uint256",
          "name": "tokenId",
          "type": "uint256"
        }
      ],
      "name": "tokenURI",
      "outputs": [
        {
          "internalType": "string",
          "name": "",
          "type": "string"
        }
      ],
      "stateMutability": "view",
      "type": "function"
    },
    {
      "inputs": [],
      "name": "totalSupply",
      "outputs": [
        {
          "internalType": "uint256",
          "name": "",
          "type": "uint256"
        }
      ],
      "stateMutability": "view",
      "type": "function"
    },
    {
      "inputs": [
        {
          "internalType": "address",
          "name": "from",
          "type": "address"
        },
        {
          "internalType": "address",
          "name": "to",
          "type": "address"
        },
        {
          "internalType": "uint256",
          "name": "tokenId",
          "type": "uint256"
        }
      ],
      "name": "transferFrom",
      "outputs": [],
      "stateMutability": "nonpayable",
      "type": "function"
    },
    {
      "inputs": [
        {
          "internalType": "address",
          "name": "newOwner",
          "type": "address"
        }
      ],
      "name": "transferOwnership",
      "outputs": [],
      "stateMutability": "nonpayable",
      "type": "function"
    }
  ],
  "bytecode": "0x60806040523480156200001157600080fd5b50336040518060400160405280601081526020016f1411918815995c9a599a59590814d09560821b815250604051806040016040528060078152602001661411918b54d09560ca1b81525081600090816200006d9190620001bc565b5060016200007c8282620001bc565b5050506001600160a01b038116620000ae57604051631e4fbdf760e01b81526000600482015260240160405180910390fd5b620000b981620000c5565b50600160075562000288565b600680546001600160a01b038381166001600160a01b0319831681179093556040519116919082907f8be0079c531659141344cd1fd0a4f28419497f9722a3daafe3b4186f6b6457e090600090a35050565b634e487b7160e01b600052604160045260246000fd5b600181811c908216806200014257607f821691505b6020821081036200016357634e487b7160e01b600052602260045260246000fd5b50919050565b601f821115620001b757600081815260208120601f850160051c81016020861015620001925750805b601f850160051c820191505b81811015620001b3578281556001016200019e565b5050505b505050565b81516001600160401b03811115620001d857620001d862000117565b620001f081620001e984546200012d565b8462000169565b602080601f8311600181146200022857600084156200020f5750858301515b600019600386901b1c1916600185901b178555620001b3565b600085815260208120601f198616915b82811015620002595788860151825594840194600190910190840162000238565b5085821015620002785787850151600019600388901b60f8161c191681555b5050505050600190811b01905550565b61193880620002986000396000f3fe608060405234801561001057600080fd5b50600436106101585760003560e01c806370a08231116100c3578063a953aca51161007c578063a953aca5146102ec578063b88d4fde146102ff578063b9209e3314610312578063c87b56dd14610325578063e985e9c514610338578063f2fde38b1461034b57600080fd5b806370a0823114610292578063715018a6146102a55780638da5cb5b146102ad5780639373f9ac146102be57806395d89b41146102d1578063a22cb465146102d957600080fd5b806337a28e3b1161011557806337a28e3b1461020357806342842e0e146102165780635ccc561e146102295780636352211e1461024c5780636511bf2e1461025f5780636c27a7db1461027f57600080fd5b806301ffc9a71461015d57806306fdde0314610185578063081812fc1461019a578063095ea7b3146101c557806318160ddd146101da57806323b872dd146101f0575b600080fd5b61017061016b3660046112d7565b61035e565b60405190151581526020015b60405180910390f35b61018d6103b0565b60405161017c9190611341565b6101ad6101a8366004611354565b610442565b6040516001600160a01b03909116815260200161017c565b6101d86101d3366004611389565b61046b565b005b6101e261047a565b60405190815260200161017c565b6101d86101fe3660046113b3565b610490565b6101d8610211366004611354565b610520565b6101d86102243660046113b3565b61060e565b610170610237366004611354565b600a6020526000908152604090205460ff1681565b6101ad61025a366004611354565b61062e565b6101e261026d3660046113ef565b60086020526000908152604090205481565b6101d861028d366004611456565b610639565b6101e26102a03660046113ef565b6107fc565b6101d8610844565b6006546001600160a01b03166101ad565b6101d86102cc36600461154e565b610858565b61018d6109b1565b6101d86102e73660046115b0565b6109c0565b6101d86102fa366004611354565b6109cb565b6101d861030d3660046115ec565b610ab1565b6101706103203660046113ef565b610ac9565b61018d610333366004611354565b610b0b565b610170610346366004611668565b610be0565b6101d86103593660046113ef565b610c0e565b60006001600160e01b031982166380ac58cd60e01b148061038f57506001600160e01b03198216635b5e139f60e01b145b806103aa57506301ffc9a760e01b6001600160e01b03198316145b92915050565b6060600080546103bf9061169b565b80601f01602080910402602001604051908101604052809291908181526020018280546103eb9061169b565b80156104385780601f1061040d57610100808354040283529160200191610438565b820191906000526020600020905b81548152906001019060200180831161041b57829003601f168201915b5050505050905090565b600061044d82610c4c565b506000828152600460205260409020546001600160a01b03166103aa565b610476828233610c85565b5050565b6000600160075461048b91906116eb565b905090565b6001600160a01b0382166104bf57604051633250574960e11b8152600060048201526024015b60405180910390fd5b60006104cc838333610c92565b9050836001600160a01b0316816001600160a01b03161461051a576040516364283d7b60e01b81526001600160a01b03808616600483015260248201849052821660448201526064016104b6565b50505050565b610528610d21565b6000818152600260205260409020546001600160a01b031661055c5760405162461bcd60e51b81526004016104b6906116fe565b6000818152600a602052604090205460ff16156105b35760405162461bcd60e51b8152602060048201526015602482015274151bdad95b88185b1c9958591e481c995d9bdad959605a1b60448201526064016104b6565b6000818152600a60205260409020805460ff191660011790556105d58161062e565b6001600160a01b0316817feaeb9980a1a2a391b22d80dd677442b013caa85f5e893137e9e17839d8e8eaf660405160405180910390a350565b61062983838360405180602001604052806000815250610ab1565b505050565b60006103aa82610c4c565b610641610d21565b8281146106885760405162461bcd60e51b8152602060048201526015602482015274082e4e4c2f240d8cadccee8d040dad2e6dac2e8c6d605b1b60448201526064016104b6565b60005b838110156107f55760008585838181106106a7576106a761172c565b90506020020160208101906106bc91906113ef565b905060008484848181106106d2576106d261172c565b90506020028101906106e49190611742565b8080601f0160208091040260200160405190810160405280939291908181526020018383808284376000920191909152509293505050506001600160a01b0382161580159061074957506001600160a01b038216600090815260086020526040902054155b156107e05760078054908190600061076083611789565b919050555061076f8382610d4e565b600081815260096020526040902061078783826117e8565b506001600160a01b03831660008181526008602052604090819020839055518291907f4b9ad712e7eaa8cc24efaf239a9107a8e27385fb66e301d70c4f0d5747bde653906107d6908690611341565b60405180910390a3505b505080806107ed90611789565b91505061068b565b5050505050565b60006001600160a01b038216610828576040516322718ad960e21b8152600060048201526024016104b6565b506001600160a01b031660009081526003602052604090205490565b61084c610d21565b6108566000610d68565b565b610860610d21565b6001600160a01b0382166108b65760405162461bcd60e51b815260206004820152601b60248201527f43616e6e6f74206d696e7420746f207a65726f2061646472657373000000000060448201526064016104b6565b6001600160a01b0382166000908152600860205260409020541561091c5760405162461bcd60e51b815260206004820152601760248201527f4164647265737320616c7265616479206861732053425400000000000000000060448201526064016104b6565b60078054908190600061092e83611789565b919050555061093d8382610d4e565b600081815260096020526040902061095583826117e8565b506001600160a01b03831660008181526008602052604090819020839055518291907f4b9ad712e7eaa8cc24efaf239a9107a8e27385fb66e301d70c4f0d5747bde653906109a4908690611341565b60405180910390a3505050565b6060600180546103bf9061169b565b610476338383610dba565b6109d3610d21565b6000818152600260205260409020546001600160a01b0316610a075760405162461bcd60e51b81526004016104b6906116fe565b6000818152600a602052604090205460ff16610a595760405162461bcd60e51b8152602060048201526011602482015270151bdad95b881b9bdd081c995d9bdad959607a1b60448201526064016104b6565b6000818152600a60205260409020805460ff19169055610a788161062e565b6001600160a01b0316817f325fdb5b21cabc79a813cf796abeaf4383af2d4fb1f7fe12c2d3b957250b285960405160405180910390a350565b610abc848484610490565b61051a3385858585610e51565b6001600160a01b038116600090815260086020526040812054808203610af25750600092915050565b6000908152600a602052604090205460ff161592915050565b6000818152600260205260409020546060906001600160a01b0316610b425760405162461bcd60e51b81526004016104b6906116fe565b60008281526009602052604090208054610b5b9061169b565b80601f0160208091040260200160405190810160405280929190818152602001828054610b879061169b565b8015610bd45780601f10610ba957610100808354040283529160200191610bd4565b820191906000526020600020905b815481529060010190602001808311610bb757829003601f168201915b50505050509050919050565b6001600160a01b03918216600090815260056020908152604080832093909416825291909152205460ff1690565b610c16610d21565b6001600160a01b038116610c4057604051631e4fbdf760e01b8152600060048201526024016104b6565b610c4981610d68565b50565b6000818152600260205260408120546001600160a01b0316806103aa57604051637e27328960e01b8152600481018490526024016104b6565b6106298383836001610f7b565b6000828152600260205260408120546001600160a01b03168015610d0d5760405162461bcd60e51b815260206004820152602c60248201527f5342543a20536f756c2d426f756e6420546f6b656e732063616e6e6f7420626560448201526b081d1c985b9cd9995c9c995960a21b60648201526084016104b6565b610d18858585611081565b95945050505050565b6006546001600160a01b031633146108565760405163118cdaa760e01b81523360048201526024016104b6565b61047682826040518060200160405280600081525061117a565b600680546001600160a01b038381166001600160a01b0319831681179093556040519116919082907f8be0079c531659141344cd1fd0a4f28419497f9722a3daafe3b4186f6b6457e090600090a35050565b6001600160a01b038216610dec57604051630b61174360e31b81526001600160a01b03831660048201526024016104b6565b6001600160a01b03838116600081815260056020908152604080832094871680845294825291829020805460ff191686151590811790915591519182527f17307eab39ab6107e8899845ad3d59bd9653f200f220920489ca2b5937696c3191016109a4565b6001600160a01b0383163b156107f557604051630a85bd0160e11b81526001600160a01b0384169063150b7a0290610e939088908890879087906004016118a8565b6020604051808303816000875af1925050508015610ece575060408051601f3d908101601f19168201909252610ecb918101906118e5565b60015b610f37573d808015610efc576040519150601f19603f3d011682016040523d82523d6000602084013e610f01565b606091505b508051600003610f2f57604051633250574960e11b81526001600160a01b03851660048201526024016104b6565b805160208201fd5b6001600160e01b03198116630a85bd0160e11b14610f7357604051633250574960e11b81526001600160a01b03851660048201526024016104b6565b505050505050565b8080610f8f57506001600160a01b03821615155b15611051576000610f9f84610c4c565b90506001600160a01b03831615801590610fcb5750826001600160a01b0316816001600160a01b031614155b8015610fde5750610fdc8184610be0565b155b156110075760405163a9fbf51f60e01b81526001600160a01b03841660048201526024016104b6565b811561104f5783856001600160a01b0316826001600160a01b03167f8c5be1e5ebec7d5bd14f71427d1e84f3dd0314c0f7b2291e5b200ac8c7c3b92560405160405180910390a45b505b5050600090815260046020526040902080546001600160a01b0319166001600160a01b0392909216919091179055565b6000828152600260205260408120546001600160a01b03908116908316156110ae576110ae818486611192565b6001600160a01b038116156110ec576110cb600085600080610f7b565b6001600160a01b038116600090815260036020526040902080546000190190555b6001600160a01b0385161561111b576001600160a01b0385166000908152600360205260409020805460010190555b60008481526002602052604080822080546001600160a01b0319166001600160a01b0389811691821790925591518793918516917fddf252ad1be2c89b69c2b068fc378daa952ba7f163c4a11628f55a4df523b3ef91a4949350505050565b61118483836111f6565b610629336000858585610e51565b61119d83838361125b565b610629576001600160a01b0383166111cb57604051637e27328960e01b8152600481018290526024016104b6565b60405163177e802f60e01b81526001600160a01b0383166004820152602481018290526044016104b6565b6001600160a01b03821661122057604051633250574960e11b8152600060048201526024016104b6565b600061122e83836000610c92565b90506001600160a01b03811615610629576040516339e3563760e11b8152600060048201526024016104b6565b60006001600160a01b038316158015906112b95750826001600160a01b0316846001600160a01b0316148061129557506112958484610be0565b806112b957506000828152600460205260409020546001600160a01b038481169116145b949350505050565b6001600160e01b031981168114610c4957600080fd5b6000602082840312156112e957600080fd5b81356112f4816112c1565b9392505050565b6000815180845260005b8181101561132157602081850181015186830182015201611305565b506000602082860101526020601f19601f83011685010191505092915050565b6020815260006112f460208301846112fb565b60006020828403121561136657600080fd5b5035919050565b80356001600160a01b038116811461138457600080fd5b919050565b6000806040838503121561139c57600080fd5b6113a58361136d565b946020939093013593505050565b6000806000606084860312156113c857600080fd5b6113d18461136d565b92506113df6020850161136d565b9150604084013590509250925092565b60006020828403121561140157600080fd5b6112f48261136d565b60008083601f84011261141c57600080fd5b50813567ffffffffffffffff81111561143457600080fd5b6020830191508360208260051b850101111561144f57600080fd5b9250929050565b6000806000806040858703121561146c57600080fd5b843567ffffffffffffffff8082111561148457600080fd5b6114908883890161140a565b909650945060208701359150808211156114a957600080fd5b506114b68782880161140a565b95989497509550505050565b634e487b7160e01b600052604160045260246000fd5b600067ffffffffffffffff808411156114f3576114f36114c2565b604051601f8501601f19908116603f0116810190828211818310171561151b5761151b6114c2565b8160405280935085815286868601111561153457600080fd5b858560208301376000602087830101525050509392505050565b6000806040838503121561156157600080fd5b61156a8361136d565b9150602083013567ffffffffffffffff81111561158657600080fd5b8301601f8101851361159757600080fd5b6115a6858235602084016114d8565b9150509250929050565b600080604083850312156115c357600080fd5b6115cc8361136d565b9150602083013580151581146115e157600080fd5b809150509250929050565b6000806000806080858703121561160257600080fd5b61160b8561136d565b93506116196020860161136d565b925060408501359150606085013567ffffffffffffffff81111561163c57600080fd5b8501601f8101871361164d57600080fd5b61165c878235602084016114d8565b91505092959194509250565b6000806040838503121561167b57600080fd5b6116848361136d565b91506116926020840161136d565b90509250929050565b600181811c908216806116af57607f821691505b6020821081036116cf57634e487b7160e01b600052602260045260246000fd5b50919050565b634e487b7160e01b600052601160045260246000fd5b818103818111156103aa576103aa6116d5565b602080825260149082015273151bdad95b88191bd95cc81b9bdd08195e1a5cdd60621b604082015260600190565b634e487b7160e01b600052603260045260246000fd5b6000808335601e1984360301811261175957600080fd5b83018035915067ffffffffffffffff82111561177457600080fd5b60200191503681900382131561144f57600080fd5b60006001820161179b5761179b6116d5565b5060010190565b601f82111561062957600081815260208120601f850160051c810160208610156117c95750805b601f850160051c820191505b81811015610f73578281556001016117d5565b815167ffffffffffffffff811115611802576118026114c2565b61181681611810845461169b565b846117a2565b602080601f83116001811461184b57600084156118335750858301515b600019600386901b1c1916600185901b178555610f73565b600085815260208120601f198616915b8281101561187a5788860151825594840194600190910190840161185b565b50858210156118985787850151600019600388901b60f8161c191681555b5050505050600190811b01905550565b6001600160a01b03858116825284166020820152604081018390526080606082018190526000906118db908301846112fb565b9695505050505050565b6000602082840312156118f757600080fd5b81516112f4816112c156fea2646970667358221220f1cb5e1dc8044f7d7ce619aba8a204eb373a2cd2343e1841a5deb8935a5dad1d64736f6c63430008140033",
  "linkReferences": {},
  "deployedLinkReferences": {}
}