{
  "_format": "hh-sol-artifact-1",
  "contractName": "SovrynSentinelGate",
  "sourceName": "contracts/SovrynSentinelGate.sol",
  "abi": [
    {
      "inputs": [
        {
          "internalType": "address",
          "name": "_architect",
          "type": "address"
        }
      ],
      "stateMutability": "nonpayable",
      "type": "constructor"
    },
    {
      "inputs": [],
      "name": "AccessControlBadConfirmation",
      "type": "error"
    },
    {
      "inputs": [
        {
          "internalType": "address",
          "name": "account",
          "type": "address"
        },
        {
          "internalType": "bytes32",
          "name": "neededRole",
          "type": "bytes32"
        }
      ],
      "name": "AccessControlUnauthorizedAccount",
      "type": "error"
    },
    {
      "inputs": [],
      "name": "ReentrancyGuardReentrantCall",
      "type": "error"
    },
    {
      "anonymous": false,
      "inputs": [
        {
          "indexed": true,
          "internalType": "address",
          "name": "citizen",
          "type": "address"
        },
        {
          "indexed": false,
          "internalType": "uint256",
          "name": "citizenAmount",
          "type": "uint256"
        },
        {
          "indexed": false,
          "internalType": "uint256",
          "name": "nationalAmount",
          "type": "uint256"
        },
        {
          "indexed": false,
          "internalType": "uint256",
          "name": "foundationAmount",
          "type": "uint256"
        },
        {
          "indexed": false,
          "internalType": "uint256",
          "name": "timestamp",
          "type": "uint256"
        }
      ],
      "name": "CitizenVitalized",
      "type": "event"
    },
    {
      "anonymous": false,
      "inputs": [
        {
          "indexed": false,
          "internalType": "string",
          "name": "contractName",
          "type": "string"
        },
        {
          "indexed": false,
          "internalType": "address",
          "name": "oldAddress",
          "type": "address"
        },
        {
          "indexed": false,
          "internalType": "address",
          "name": "newAddress",
          "type": "address"
        }
      ],
      "name": "ContractUpdated",
      "type": "event"
    },
    {
      "anonymous": false,
      "inputs": [
        {
          "indexed": false,
          "internalType": "address",
          "name": "vida",
          "type": "address"
        },
        {
          "indexed": false,
          "internalType": "address",
          "name": "nationalBlock",
          "type": "address"
        },
        {
          "indexed": false,
          "internalType": "address",
          "name": "foundation",
          "type": "address"
        }
      ],
      "name": "ContractsLinked",
      "type": "event"
    },
    {
      "anonymous": false,
      "inputs": [
        {
          "indexed": true,
          "internalType": "bytes32",
          "name": "role",
          "type": "bytes32"
        },
        {
          "indexed": true,
          "internalType": "bytes32",
          "name": "previousAdminRole",
          "type": "bytes32"
        },
        {
          "indexed": true,
          "internalType": "bytes32",
          "name": "newAdminRole",
          "type": "bytes32"
        }
      ],
      "name": "RoleAdminChanged",
      "type": "event"
    },
    {
      "anonymous": false,
      "inputs": [
        {
          "indexed": true,
          "internalType": "bytes32",
          "name": "role",
          "type": "bytes32"
        },
        {
          "indexed": true,
          "internalType": "address",
          "name": "account",
          "type": "address"
        },
        {
          "indexed": true,
          "internalType": "address",
          "name": "sender",
          "type": "address"
        }
      ],
      "name": "RoleGranted",
      "type": "event"
    },
    {
      "anonymous": false,
      "inputs": [
        {
          "indexed": true,
          "internalType": "bytes32",
          "name": "role",
          "type": "bytes32"
        },
        {
          "indexed": true,
          "internalType": "address",
          "name": "account",
          "type": "address"
        },
        {
          "indexed": true,
          "internalType": "address",
          "name": "sender",
          "type": "address"
        }
      ],
      "name": "RoleRevoked",
      "type": "event"
    },
    {
      "inputs": [],
      "name": "ARCHITECT_ROLE",
      "outputs": [
        {
          "internalType": "bytes32",
          "name": "",
          "type": "bytes32"
        }
      ],
      "stateMutability": "view",
      "type": "function"
    },
    {
      "inputs": [],
      "name": "CITIZEN_ALLOCATION",
      "outputs": [
        {
          "internalType": "uint256",
          "name": "",
          "type": "uint256"
        }
      ],
      "stateMutability": "view",
      "type": "function"
    },
    {
      "inputs": [],
      "name": "DEFAULT_ADMIN_ROLE",
      "outputs": [
        {
          "internalType": "bytes32",
          "name": "",
          "type": "bytes32"
        }
      ],
      "stateMutability": "view",
      "type": "function"
    },
    {
      "inputs": [],
      "name": "FOUNDATION_ALLOCATION",
      "outputs": [
        {
          "internalType": "uint256",
          "name": "",
          "type": "uint256"
        }
      ],
      "stateMutability": "view",
      "type": "function"
    },
    {
      "inputs": [],
      "name": "NATIONAL_ALLOCATION",
      "outputs": [
        {
          "internalType": "uint256",
          "name": "",
          "type": "uint256"
        }
      ],
      "stateMutability": "view",
      "type": "function"
    },
    {
      "inputs": [],
      "name": "TOTAL_PER_VITALIZATION",
      "outputs": [
        {
          "internalType": "uint256",
          "name": "",
          "type": "uint256"
        }
      ],
      "stateMutability": "view",
      "type": "function"
    },
    {
      "inputs": [
        {
          "internalType": "address",
          "name": "citizenWallet",
          "type": "address"
        }
      ],
      "name": "checkVitalizationStatus",
      "outputs": [
        {
          "internalType": "bool",
          "name": "vitalized",
          "type": "bool"
        },
        {
          "internalType": "uint256",
          "name": "timestamp",
          "type": "uint256"
        }
      ],
      "stateMutability": "view",
      "type": "function"
    },
    {
      "inputs": [],
      "name": "foundationVault",
      "outputs": [
        {
          "internalType": "contract FoundationVault",
          "name": "",
          "type": "address"
        }
      ],
      "stateMutability": "view",
      "type": "function"
    },
    {
      "inputs": [],
      "name": "getLinkedContracts",
      "outputs": [
        {
          "internalType": "address",
          "name": "vida",
          "type": "address"
        },
        {
          "internalType": "address",
          "name": "national",
          "type": "address"
        },
        {
          "internalType": "address",
          "name": "foundation",
          "type": "address"
        }
      ],
      "stateMutability": "view",
      "type": "function"
    },
    {
      "inputs": [
        {
          "internalType": "bytes32",
          "name": "role",
          "type": "bytes32"
        }
      ],
      "name": "getRoleAdmin",
      "outputs": [
        {
          "internalType": "bytes32",
          "name": "",
          "type": "bytes32"
        }
      ],
      "stateMutability": "view",
      "type": "function"
    },
    {
      "inputs": [],
      "name": "getSystemMetrics",
      "outputs": [
        {
          "internalType": "uint256",
          "name": "citizensVitalized",
          "type": "uint256"
        },
        {
          "internalType": "uint256",
          "name": "vidaMinted",
          "type": "uint256"
        },
        {
          "internalType": "uint256",
          "name": "averagePerCitizen",
          "type": "uint256"
        }
      ],
      "stateMutability": "view",
      "type": "function"
    },
    {
      "inputs": [
        {
          "internalType": "bytes32",
          "name": "role",
          "type": "bytes32"
        },
        {
          "internalType": "address",
          "name": "account",
          "type": "address"
        }
      ],
      "name": "grantRole",
      "outputs": [],
      "stateMutability": "nonpayable",
      "type": "function"
    },
    {
      "inputs": [
        {
          "internalType": "bytes32",
          "name": "role",
          "type": "bytes32"
        },
        {
          "internalType": "address",
          "name": "account",
          "type": "address"
        }
      ],
      "name": "hasRole",
      "outputs": [
        {
          "internalType": "bool",
          "name": "",
          "type": "bool"
        }
      ],
      "stateMutability": "view",
      "type": "function"
    },
    {
      "inputs": [
        {
          "internalType": "address",
          "name": "",
          "type": "address"
        }
      ],
      "name": "isVitalized",
      "outputs": [
        {
          "internalType": "bool",
          "name": "",
          "type": "bool"
        }
      ],
      "stateMutability": "view",
      "type": "function"
    },
    {
      "inputs": [
        {
          "internalType": "address",
          "name": "_vidaToken",
          "type": "address"
        },
        {
          "internalType": "address",
          "name": "_nationalBlock",
          "type": "address"
        },
        {
          "internalType": "address",
          "name": "_foundationVault",
          "type": "address"
        }
      ],
      "name": "linkContracts",
      "outputs": [],
      "stateMutability": "nonpayable",
      "type": "function"
    },
    {
      "inputs": [],
      "name": "nationalBlock",
      "outputs": [
        {
          "internalType": "contract NationalBlockNG",
          "name": "",
          "type": "address"
        }
      ],
      "stateMutability": "view",
      "type": "function"
    },
    {
      "inputs": [
        {
          "internalType": "bytes32",
          "name": "role",
          "type": "bytes32"
        },
        {
          "internalType": "address",
          "name": "callerConfirmation",
          "type": "address"
        }
      ],
      "name": "renounceRole",
      "outputs": [],
      "stateMutability": "nonpayable",
      "type": "function"
    },
    {
      "inputs": [
        {
          "internalType": "bytes32",
          "name": "role",
          "type": "bytes32"
        },
        {
          "internalType": "address",
          "name": "account",
          "type": "address"
        }
      ],
      "name": "revokeRole",
      "outputs": [],
      "stateMutability": "nonpayable",
      "type": "function"
    },
    {
      "inputs": [
        {
          "internalType": "bytes4",
          "name": "interfaceId",
          "type": "bytes4"
        }
      ],
      "name": "supportsInterface",
      "outputs": [
        {
          "internalType": "bool",
          "name": "",
          "type": "bool"
        }
      ],
      "stateMutability": "view",
      "type": "function"
    },
    {
      "inputs": [],
      "name": "totalCitizensVitalized",
      "outputs": [
        {
          "internalType": "uint256",
          "name": "",
          "type": "uint256"
        }
      ],
      "stateMutability": "view",
      "type": "function"
    },
    {
      "inputs": [],
      "name": "totalVidaMinted",
      "outputs": [
        {
          "internalType": "uint256",
          "name": "",
          "type": "uint256"
        }
      ],
      "stateMutability": "view",
      "type": "function"
    },
    {
      "inputs": [
        {
          "internalType": "address",
          "name": "newFoundationVault",
          "type": "address"
        }
      ],
      "name": "updateFoundationVault",
      "outputs": [],
      "stateMutability": "nonpayable",
      "type": "function"
    },
    {
      "inputs": [
        {
          "internalType": "address",
          "name": "newNationalBlock",
          "type": "address"
        }
      ],
      "name": "updateNationalBlock",
      "outputs": [],
      "stateMutability": "nonpayable",
      "type": "function"
    },
    {
      "inputs": [
        {
          "internalType": "address",
          "name": "newVidaToken",
          "type": "address"
        }
      ],
      "name": "updateVidaToken",
      "outputs": [],
      "stateMutability": "nonpayable",
      "type": "function"
    },
    {
      "inputs": [],
      "name": "vidaToken",
      "outputs": [
        {
          "internalType": "contract SovereignVida",
          "name": "",
          "type": "address"
        }
      ],
      "stateMutability": "view",
      "type": "function"
    },
    {
      "inputs": [
        {
          "internalType": "address",
          "name": "",
          "type": "address"
        }
      ],
      "name": "vitalizationTimestamp",
      "outputs": [
        {
          "internalType": "uint256",
          "name": "",
          "type": "uint256"
        }
      ],
      "stateMutability": "view",
      "type": "function"
    },
    {
      "inputs": [
        {
          "internalType": "address",
          "name": "citizenWallet",
          "type": "address"
        }
      ],
      "name": "vitalizeCitizen",
      "outputs": [],
      "stateMutability": "nonpayable",
      "type": "function"
    },
    {
      "inputs": [
        {
          "internalType": "address[]",
          "name": "citizenWallets",
          "type": "address[]"
        }
      ],
      "name": "vitalizeCitizenBatch",
      "outputs": [],
      "stateMutability": "nonpayable",
      "type": "function"
    }
  ],
  "bytecode": "0x60806040523480156200001157600080fd5b5060405162001b3c38038062001b3c83398101604081905262000034916200019a565b600180556001600160a01b038116620000a95760405162461bcd60e51b815260206004820152602d60248201527f536f7672796e53656e74696e656c476174653a2061726368697465637420697360448201526c207a65726f206164647265737360981b606482015260840160405180910390fd5b620000b6600082620000eb565b50620000e37fd81d72b65535f1777b4b20777e5306dade95bd1fde525ef999f6bd610befc1d482620000eb565b5050620001cc565b6000828152602081815260408083206001600160a01b038516845290915281205460ff1662000190576000838152602081815260408083206001600160a01b03861684529091529020805460ff19166001179055620001473390565b6001600160a01b0316826001600160a01b0316847f2f8788117e7eff1d82e926ec794901d17c78024a50270940304540a733656f0d60405160405180910390a450600162000194565b5060005b92915050565b600060208284031215620001ad57600080fd5b81516001600160a01b0381168114620001c557600080fd5b9392505050565b61196080620001dc6000396000f3fe608060405234801561001057600080fd5b50600436106101c45760003560e01c806365359fab116100f9578063ac5aba8b11610097578063d9ba5cfb11610071578063d9ba5cfb146103fb578063de13156914610404578063f7e7249c14610427578063fdb014e31461047857600080fd5b8063ac5aba8b146103c2578063b6bf4691146103d5578063d547741f146103e857600080fd5b806391d14854116100d357806391d148541461038057806395d115131461039357806399613a0414610323578063a217fddf146103ba57600080fd5b806365359fab146103455780636cfccc2f1461034e57806389e2c1d11461037157600080fd5b80632f2ff15d116101665780633793af5e116101405780633793af5e146102dd5780634ff4e3e0146102f05780635561c5b314610323578063613114031461033257600080fd5b80632f2ff15d146102a45780633091286f146102b757806336568abe146102ca57600080fd5b8063248a9ca3116101a2578063248a9ca31461024a578063289e89bf1461026d578063297ed59a1461027c5780632a2d37621461029157600080fd5b806301ffc9a7146101c95780630d6e46fb146101f157806313c560071461021c575b600080fd5b6101dc6101d7366004611599565b61048b565b60405190151581526020015b60405180910390f35b600354610204906001600160a01b031681565b6040516001600160a01b0390911681526020016101e8565b61023c61022a3660046115e6565b60066020526000908152604090205481565b6040519081526020016101e8565b61023c610258366004611601565b60009081526020819052604090206001015490565b61023c670de0b6b3a764000081565b61028f61028a3660046115e6565b6104c2565b005b61028f61029f3660046115e6565b610584565b61028f6102b236600461161a565b610a0b565b61028f6102c53660046115e6565b610a36565b61028f6102d836600461161a565b610ae2565b61028f6102eb3660046115e6565b610b1a565b600254600354600454604080516001600160a01b03948516815292841660208401529216918101919091526060016101e8565b61023c674563918244f4000081565b61028f610340366004611646565b610bcc565b61023c60085481565b610356611164565b604080519384526020840192909252908201526060016101e8565b61023c6798a7d9b8314c000081565b6101dc61038e36600461161a565b61118f565b61023c7fd81d72b65535f1777b4b20777e5306dade95bd1fde525ef999f6bd610befc1d481565b61023c600081565b61028f6103d03660046116bb565b6111b8565b600454610204906001600160a01b031681565b61028f6103f636600461161a565b611407565b61023c60075481565b6101dc6104123660046115e6565b60056020526000908152604090205460ff1681565b6104616104353660046115e6565b6001600160a01b031660009081526005602090815260408083205460069092529091205460ff90911691565b6040805192151583526020830191909152016101e8565b600254610204906001600160a01b031681565b60006001600160e01b03198216637965db0b60e01b14806104bc57506301ffc9a760e01b6001600160e01b03198316145b92915050565b60006104cd8161142c565b6001600160a01b0382166104fc5760405162461bcd60e51b81526004016104f3906116fe565b60405180910390fd5b600380546001600160a01b031981166001600160a01b03858116918217909355604080516060808252600d908201526c4e6174696f6e616c426c6f636b60981b6080820152939092166020840181905291830152907f508230d9e989b49c651e1c7be29de727f16d9c1027f7660466911e442c3121fb9060a0015b60405180910390a1505050565b7fd81d72b65535f1777b4b20777e5306dade95bd1fde525ef999f6bd610befc1d46105ae8161142c565b6105b6611439565b6002546001600160a01b03166105de5760405162461bcd60e51b81526004016104f390611745565b6001600160a01b0382166106045760405162461bcd60e51b81526004016104f39061178d565b6001600160a01b03821660009081526005602052604090205460ff161561063d5760405162461bcd60e51b81526004016104f3906117df565b6001600160a01b0382166000908152600560209081526040808320805460ff1916600117905560069091528120429055600780549161067b83611842565b90915550506002546040516340c10f1960e01b81523060048201526798a7d9b8314c000060248201526001600160a01b03909116906340c10f1990604401600060405180830381600087803b1580156106d357600080fd5b505af11580156106e7573d6000803e3d6000fd5b505050506798a7d9b8314c000060086000828254610705919061185b565b909155505060025460405163a9059cbb60e01b81526001600160a01b038481166004830152674563918244f4000060248301529091169063a9059cbb906044016020604051808303816000875af1158015610764573d6000803e3d6000fd5b505050506040513d601f19601f82011682018060405250810190610788919061186e565b6107a45760405162461bcd60e51b81526004016104f390611890565b60025460035460405163095ea7b360e01b81526001600160a01b039182166004820152674563918244f40000602482015291169063095ea7b3906044016020604051808303816000875af1158015610800573d6000803e3d6000fd5b505050506040513d601f19601f82011682018060405250810190610824919061186e565b5060035460405163170fb1f360e31b8152674563918244f400006004820152600160248201526001600160a01b039091169063b87d8f9890604401600060405180830381600087803b15801561087957600080fd5b505af115801561088d573d6000803e3d6000fd5b50506002546004805460405163095ea7b360e01b81526001600160a01b0391821692810192909252670de0b6b3a76400006024830152909116925063095ea7b391506044016020604051808303816000875af11580156108f1573d6000803e3d6000fd5b505050506040513d601f19601f82011682018060405250810190610915919061186e565b50600480546040805163f2c2a97960e01b8152670de0b6b3a7640000938101939093526024830152600c60448301526b3b34ba30b634bd30ba34b7b760a11b60648301526001600160a01b03169063f2c2a97990608401600060405180830381600087803b15801561098657600080fd5b505af115801561099a573d6000803e3d6000fd5b505060408051674563918244f400008082526020820152670de0b6b3a76400008183015242606082015290516001600160a01b03861693507f74640bf4b1cec16c3d63ef102b3b7ec17ca8532052ea9af859c74ca9def706b292509081900360800190a2610a0760018055565b5050565b600082815260208190526040902060010154610a268161142c565b610a308383611463565b50505050565b6000610a418161142c565b6001600160a01b038216610a675760405162461bcd60e51b81526004016104f3906116fe565b600280546001600160a01b031981166001600160a01b03858116918217909355604080516060808252600990820152682b34b230aa37b5b2b760b91b6080820152939092166020840181905291830152907f508230d9e989b49c651e1c7be29de727f16d9c1027f7660466911e442c3121fb9060a001610577565b6001600160a01b0381163314610b0b5760405163334bd91960e11b815260040160405180910390fd5b610b1582826114f5565b505050565b6000610b258161142c565b6001600160a01b038216610b4b5760405162461bcd60e51b81526004016104f3906116fe565b600480546001600160a01b031981166001600160a01b03858116918217909355604080516060808252600f908201526e119bdd5b99185d1a5bdb95985d5b1d608a1b6080820152939092166020840181905291830152907f508230d9e989b49c651e1c7be29de727f16d9c1027f7660466911e442c3121fb9060a001610577565b7fd81d72b65535f1777b4b20777e5306dade95bd1fde525ef999f6bd610befc1d4610bf68161142c565b610bfe611439565b6002546001600160a01b0316610c265760405162461bcd60e51b81526004016104f390611745565b81610c735760405162461bcd60e51b815260206004820152601f60248201527f536f7672796e53656e74696e656c476174653a20656d7074792062617463680060448201526064016104f3565b6064821115610cd05760405162461bcd60e51b815260206004820152602360248201527f536f7672796e53656e74696e656c476174653a20626174636820746f6f206c6160448201526272676560e81b60648201526084016104f3565b816000610ce5826798a7d9b8314c00006118db565b6002546040516340c10f1960e01b8152306004820152602481018390529192506001600160a01b0316906340c10f1990604401600060405180830381600087803b158015610d3257600080fd5b505af1158015610d46573d6000803e3d6000fd5b505050508060086000828254610d5c919061185b565b90915550600090505b82811015610f47576000868683818110610d8157610d816118f2565b9050602002016020810190610d9691906115e6565b90506001600160a01b038116610dbe5760405162461bcd60e51b81526004016104f39061178d565b6001600160a01b03811660009081526005602052604090205460ff1615610df75760405162461bcd60e51b81526004016104f3906117df565b6001600160a01b0381166000908152600560209081526040808320805460ff19166001179055600690915281204290556007805491610e3583611842565b909155505060025460405163a9059cbb60e01b81526001600160a01b038381166004830152674563918244f4000060248301529091169063a9059cbb906044016020604051808303816000875af1158015610e94573d6000803e3d6000fd5b505050506040513d601f19601f82011682018060405250810190610eb8919061186e565b610ed45760405162461bcd60e51b81526004016104f390611890565b60408051674563918244f400008082526020820152670de0b6b3a76400008183015242606082015290516001600160a01b038316917f74640bf4b1cec16c3d63ef102b3b7ec17ca8532052ea9af859c74ca9def706b2919081900360800190a25080610f3f81611842565b915050610d65565b506000610f5c83674563918244f400006118db565b60025460035460405163095ea7b360e01b81526001600160a01b03918216600482015260248101849052929350169063095ea7b3906044016020604051808303816000875af1158015610fb3573d6000803e3d6000fd5b505050506040513d601f19601f82011682018060405250810190610fd7919061186e565b5060035460405163170fb1f360e31b815260048101839052602481018590526001600160a01b039091169063b87d8f9890604401600060405180830381600087803b15801561102557600080fd5b505af1158015611039573d6000803e3d6000fd5b50505050600083670de0b6b3a764000061105391906118db565b6002546004805460405163095ea7b360e01b81526001600160a01b03918216928101929092526024820184905292935091169063095ea7b3906044016020604051808303816000875af11580156110ae573d6000803e3d6000fd5b505050506040513d601f19601f820116820180604052508101906110d2919061186e565b50600480546040805163f2c2a97960e01b8152928301849052602483015260126044830152710ecd2e8c2d8d2f4c2e8d2dedcbec4c2e8c6d60731b60648301526001600160a01b03169063f2c2a97990608401600060405180830381600087803b15801561113f57600080fd5b505af1158015611153573d6000803e3d6000fd5b5050505050505050610b1560018055565b600754600854600082611178576000611188565b6007546008546111889190611908565b9050909192565b6000918252602082815260408084206001600160a01b0393909316845291905290205460ff1690565b60006111c38161142c565b6002546001600160a01b0316156112315760405162461bcd60e51b815260206004820152602c60248201527f536f7672796e53656e74696e656c476174653a20636f6e74726163747320616c60448201526b1c9958591e481b1a5b9ad95960a21b60648201526084016104f3565b6001600160a01b03841661129e5760405162461bcd60e51b815260206004820152602e60248201527f536f7672796e53656e74696e656c476174653a205649444120746f6b656e206960448201526d73207a65726f206164647265737360901b60648201526084016104f3565b6001600160a01b03831661130f5760405162461bcd60e51b815260206004820152603260248201527f536f7672796e53656e74696e656c476174653a206e6174696f6e616c20626c6f604482015271636b206973207a65726f206164647265737360701b60648201526084016104f3565b6001600160a01b0382166113825760405162461bcd60e51b815260206004820152603460248201527f536f7672796e53656e74696e656c476174653a20666f756e646174696f6e207660448201527361756c74206973207a65726f206164647265737360601b60648201526084016104f3565b600280546001600160a01b038681166001600160a01b0319928316811790935560038054878316908416811790915560048054928716929093168217909255604080519384526020840192909252908201527f48b31e417fa5006eb3d97299e8c58a628374c9b3949da01efce5639350b39c119060600160405180910390a150505050565b6000828152602081905260409020600101546114228161142c565b610a3083836114f5565b6114368133611560565b50565b60026001540361145c57604051633ee5aeb560e01b815260040160405180910390fd5b6002600155565b600061146f838361118f565b6114ed576000838152602081815260408083206001600160a01b03861684529091529020805460ff191660011790556114a53390565b6001600160a01b0316826001600160a01b0316847f2f8788117e7eff1d82e926ec794901d17c78024a50270940304540a733656f0d60405160405180910390a45060016104bc565b5060006104bc565b6000611501838361118f565b156114ed576000838152602081815260408083206001600160a01b0386168085529252808320805460ff1916905551339286917ff6391f5c32d9c69d2a47ea670b442974b53935d1edc7fd64eb21e047a839171b9190a45060016104bc565b61156a828261118f565b610a075760405163e2517d3f60e01b81526001600160a01b0382166004820152602481018390526044016104f3565b6000602082840312156115ab57600080fd5b81356001600160e01b0319811681146115c357600080fd5b9392505050565b80356001600160a01b03811681146115e157600080fd5b919050565b6000602082840312156115f857600080fd5b6115c3826115ca565b60006020828403121561161357600080fd5b5035919050565b6000806040838503121561162d57600080fd5b8235915061163d602084016115ca565b90509250929050565b6000806020838503121561165957600080fd5b823567ffffffffffffffff8082111561167157600080fd5b818501915085601f83011261168557600080fd5b81358181111561169457600080fd5b8660208260051b85010111156116a957600080fd5b60209290920196919550909350505050565b6000806000606084860312156116d057600080fd5b6116d9846115ca565b92506116e7602085016115ca565b91506116f5604085016115ca565b90509250925092565b60208082526027908201527f536f7672796e53656e74696e656c476174653a206e65772061646472657373206040820152666973207a65726f60c81b606082015260800190565b60208082526028908201527f536f7672796e53656e74696e656c476174653a20636f6e747261637473206e6f6040820152671d081b1a5b9ad95960c21b606082015260800190565b60208082526032908201527f536f7672796e53656e74696e656c476174653a20636974697a656e2077616c6c6040820152716574206973207a65726f206164647265737360701b606082015260800190565b6020808252602d908201527f536f7672796e53656e74696e656c476174653a20636974697a656e20616c726560408201526c18591e481d9a5d185b1a5e9959609a1b606082015260800190565b634e487b7160e01b600052601160045260246000fd5b6000600182016118545761185461182c565b5060010190565b808201808211156104bc576104bc61182c565b60006020828403121561188057600080fd5b815180151581146115c357600080fd5b6020808252602b908201527f536f7672796e53656e74696e656c476174653a20636974697a656e207472616e60408201526a1cd9995c8819985a5b195960aa1b606082015260800190565b80820281158282048414176104bc576104bc61182c565b634e487b7160e01b600052603260045260246000fd5b60008261192557634e487b7160e01b600052601260045260246000fd5b50049056fea2646970667358221220c05cd178c12d8192b2614f4a1eed95e2e4e20d1b1187a8f321c53a62bc810dc564736f6c63430008140033",
  "linkReferences": {},
  "deployedLinkReferences": {}
}