{
  "_format": "hh-sol-artifact-1",
  "contractName": "SentinelSuite",
  "sourceName": "contracts/rsk/SentinelSuite.sol",
  "abi": [
    {
      "inputs": [
        {
          "internalType": "address",
          "name": "_vidaToken",
          "type": "address"
        },
        {
          "internalType": "address",
          "name": "_sentinelGate",
          "type": "address"
        },
        {
          "internalType": "address",
          "name": "_trustedForwarder",
          "type": "address"
        },
        {
          "internalType": "address",
          "name": "_architect",
          "type": "address"
        }
      ],
      "stateMutability": "nonpayable",
      "type": "constructor"
    },
    {
      "inputs": [],
      "name": "AccessControlBadConfirmation",
      "type": "error"
    },
    {
      "inputs": [
        {
          "internalType": "address",
          "name": "account",
          "type": "address"
        },
        {
          "internalType": "bytes32",
          "name": "neededRole",
          "type": "bytes32"
        }
      ],
      "name": "AccessControlUnauthorizedAccount",
      "type": "error"
    },
    {
      "inputs": [],
      "name": "ReentrancyGuardReentrantCall",
      "type": "error"
    },
    {
      "anonymous": false,
      "inputs": [
        {
          "indexed": true,
          "internalType": "uint256",
          "name": "paymentId",
          "type": "uint256"
        },
        {
          "indexed": true,
          "internalType": "address",
          "name": "from",
          "type": "address"
        },
        {
          "indexed": true,
          "internalType": "address",
          "name": "to",
          "type": "address"
        },
        {
          "indexed": false,
          "internalType": "uint256",
          "name": "amount",
          "type": "uint256"
        },
        {
          "indexed": false,
          "internalType": "string",
          "name": "currency",
          "type": "string"
        },
        {
          "indexed": false,
          "internalType": "bytes32",
          "name": "txHash",
          "type": "bytes32"
        }
      ],
      "name": "BorderlessPayment",
      "type": "event"
    },
    {
      "anonymous": false,
      "inputs": [
        {
          "indexed": true,
          "internalType": "uint256",
          "name": "loanId",
          "type": "uint256"
        },
        {
          "indexed": true,
          "internalType": "address",
          "name": "lender",
          "type": "address"
        },
        {
          "indexed": false,
          "internalType": "uint256",
          "name": "collateralRecovered",
          "type": "uint256"
        }
      ],
      "name": "DebtRecovered",
      "type": "event"
    },
    {
      "anonymous": false,
      "inputs": [
        {
          "indexed": true,
          "internalType": "uint256",
          "name": "loanId",
          "type": "uint256"
        },
        {
          "indexed": true,
          "internalType": "address",
          "name": "borrower",
          "type": "address"
        },
        {
          "indexed": true,
          "internalType": "address",
          "name": "lender",
          "type": "address"
        },
        {
          "indexed": false,
          "internalType": "uint256",
          "name": "principal",
          "type": "uint256"
        },
        {
          "indexed": false,
          "internalType": "uint256",
          "name": "collateral",
          "type": "uint256"
        },
        {
          "indexed": false,
          "internalType": "uint256",
          "name": "dueDate",
          "type": "uint256"
        }
      ],
      "name": "LoanCreated",
      "type": "event"
    },
    {
      "anonymous": false,
      "inputs": [
        {
          "indexed": true,
          "internalType": "uint256",
          "name": "loanId",
          "type": "uint256"
        },
        {
          "indexed": true,
          "internalType": "address",
          "name": "borrower",
          "type": "address"
        },
        {
          "indexed": false,
          "internalType": "uint256",
          "name": "collateralLocked",
          "type": "uint256"
        }
      ],
      "name": "LoanDefaulted",
      "type": "event"
    },
    {
      "anonymous": false,
      "inputs": [
        {
          "indexed": true,
          "internalType": "address",
          "name": "relayer",
          "type": "address"
        }
      ],
      "name": "RelayerAdded",
      "type": "event"
    },
    {
      "anonymous": false,
      "inputs": [
        {
          "indexed": true,
          "internalType": "address",
          "name": "relayer",
          "type": "address"
        }
      ],
      "name": "RelayerRemoved",
      "type": "event"
    },
    {
      "anonymous": false,
      "inputs": [
        {
          "indexed": true,
          "internalType": "bytes32",
          "name": "role",
          "type": "bytes32"
        },
        {
          "indexed": true,
          "internalType": "bytes32",
          "name": "previousAdminRole",
          "type": "bytes32"
        },
        {
          "indexed": true,
          "internalType": "bytes32",
          "name": "newAdminRole",
          "type": "bytes32"
        }
      ],
      "name": "RoleAdminChanged",
      "type": "event"
    },
    {
      "anonymous": false,
      "inputs": [
        {
          "indexed": true,
          "internalType": "bytes32",
          "name": "role",
          "type": "bytes32"
        },
        {
          "indexed": true,
          "internalType": "address",
          "name": "account",
          "type": "address"
        },
        {
          "indexed": true,
          "internalType": "address",
          "name": "sender",
          "type": "address"
        }
      ],
      "name": "RoleGranted",
      "type": "event"
    },
    {
      "anonymous": false,
      "inputs": [
        {
          "indexed": true,
          "internalType": "bytes32",
          "name": "role",
          "type": "bytes32"
        },
        {
          "indexed": true,
          "internalType": "address",
          "name": "account",
          "type": "address"
        },
        {
          "indexed": true,
          "internalType": "address",
          "name": "sender",
          "type": "address"
        }
      ],
      "name": "RoleRevoked",
      "type": "event"
    },
    {
      "inputs": [],
      "name": "ARCHITECT_ROLE",
      "outputs": [
        {
          "internalType": "bytes32",
          "name": "",
          "type": "bytes32"
        }
      ],
      "stateMutability": "view",
      "type": "function"
    },
    {
      "inputs": [],
      "name": "DEFAULT_ADMIN_ROLE",
      "outputs": [
        {
          "internalType": "bytes32",
          "name": "",
          "type": "bytes32"
        }
      ],
      "stateMutability": "view",
      "type": "function"
    },
    {
      "inputs": [],
      "name": "RELAYER_ROLE",
      "outputs": [
        {
          "internalType": "bytes32",
          "name": "",
          "type": "bytes32"
        }
      ],
      "stateMutability": "view",
      "type": "function"
    },
    {
      "inputs": [
        {
          "internalType": "address",
          "name": "_relayer",
          "type": "address"
        }
      ],
      "name": "addRelayer",
      "outputs": [],
      "stateMutability": "nonpayable",
      "type": "function"
    },
    {
      "inputs": [
        {
          "internalType": "address",
          "name": "",
          "type": "address"
        },
        {
          "internalType": "uint256",
          "name": "",
          "type": "uint256"
        }
      ],
      "name": "borrowerLoans",
      "outputs": [
        {
          "internalType": "uint256",
          "name": "",
          "type": "uint256"
        }
      ],
      "stateMutability": "view",
      "type": "function"
    },
    {
      "inputs": [
        {
          "internalType": "address",
          "name": "_borrower",
          "type": "address"
        },
        {
          "internalType": "address",
          "name": "_lender",
          "type": "address"
        },
        {
          "internalType": "uint256",
          "name": "_principal",
          "type": "uint256"
        },
        {
          "internalType": "uint256",
          "name": "_collateralAmount",
          "type": "uint256"
        },
        {
          "internalType": "uint256",
          "name": "_durationDays",
          "type": "uint256"
        }
      ],
      "name": "createLoan",
      "outputs": [
        {
          "internalType": "uint256",
          "name": "loanId",
          "type": "uint256"
        }
      ],
      "stateMutability": "nonpayable",
      "type": "function"
    },
    {
      "inputs": [
        {
          "internalType": "uint256",
          "name": "_loanId",
          "type": "uint256"
        }
      ],
      "name": "executeDebtRecovery",
      "outputs": [],
      "stateMutability": "nonpayable",
      "type": "function"
    },
    {
      "inputs": [],
      "name": "getADRSMetrics",
      "outputs": [
        {
          "internalType": "uint256",
          "name": "loansCreated",
          "type": "uint256"
        },
        {
          "internalType": "uint256",
          "name": "loansDefaulted",
          "type": "uint256"
        },
        {
          "internalType": "uint256",
          "name": "loansRecovered",
          "type": "uint256"
        },
        {
          "internalType": "uint256",
          "name": "collateralRecovered",
          "type": "uint256"
        }
      ],
      "stateMutability": "view",
      "type": "function"
    },
    {
      "inputs": [],
      "name": "getBPSMetrics",
      "outputs": [
        {
          "internalType": "uint256",
          "name": "paymentsProcessed",
          "type": "uint256"
        },
        {
          "internalType": "uint256",
          "name": "volumeTransferred",
          "type": "uint256"
        }
      ],
      "stateMutability": "view",
      "type": "function"
    },
    {
      "inputs": [
        {
          "internalType": "address",
          "name": "_borrower",
          "type": "address"
        }
      ],
      "name": "getBorrowerLoans",
      "outputs": [
        {
          "internalType": "uint256[]",
          "name": "",
          "type": "uint256[]"
        }
      ],
      "stateMutability": "view",
      "type": "function"
    },
    {
      "inputs": [
        {
          "internalType": "address",
          "name": "_lender",
          "type": "address"
        }
      ],
      "name": "getLenderLoans",
      "outputs": [
        {
          "internalType": "uint256[]",
          "name": "",
          "type": "uint256[]"
        }
      ],
      "stateMutability": "view",
      "type": "function"
    },
    {
      "inputs": [
        {
          "internalType": "uint256",
          "name": "_loanId",
          "type": "uint256"
        }
      ],
      "name": "getLoanDetails",
      "outputs": [
        {
          "components": [
            {
              "internalType": "uint256",
              "name": "id",
              "type": "uint256"
            },
            {
              "internalType": "address",
              "name": "borrower",
              "type": "address"
            },
            {
              "internalType": "address",
              "name": "lender",
              "type": "address"
            },
            {
              "internalType": "uint256",
              "name": "principal",
              "type": "uint256"
            },
            {
              "internalType": "uint256",
              "name": "collateralLocked",
              "type": "uint256"
            },
            {
              "internalType": "uint256",
              "name": "dueDate",
              "type": "uint256"
            },
            {
              "internalType": "bool",
              "name": "isActive",
              "type": "bool"
            },
            {
              "internalType": "bool",
              "name": "isDefaulted",
              "type": "bool"
            },
            {
              "internalType": "bool",
              "name": "isRecovered",
              "type": "bool"
            },
            {
              "internalType": "uint256",
              "name": "createdAt",
              "type": "uint256"
            },
            {
              "internalType": "uint256",
              "name": "recoveredAt",
              "type": "uint256"
            }
          ],
          "internalType": "struct SentinelSuite.Loan",
          "name": "",
          "type": "tuple"
        }
      ],
      "stateMutability": "view",
      "type": "function"
    },
    {
      "inputs": [
        {
          "internalType": "uint256",
          "name": "_paymentId",
          "type": "uint256"
        }
      ],
      "name": "getPaymentDetails",
      "outputs": [
        {
          "components": [
            {
              "internalType": "uint256",
              "name": "id",
              "type": "uint256"
            },
            {
              "internalType": "address",
              "name": "from",
              "type": "address"
            },
            {
              "internalType": "address",
              "name": "to",
              "type": "address"
            },
            {
              "internalType": "uint256",
              "name": "amount",
              "type": "uint256"
            },
            {
              "internalType": "string",
              "name": "currency",
              "type": "string"
            },
            {
              "internalType": "uint256",
              "name": "timestamp",
              "type": "uint256"
            },
            {
              "internalType": "bytes32",
              "name": "txHash",
              "type": "bytes32"
            }
          ],
          "internalType": "struct SentinelSuite.Payment",
          "name": "",
          "type": "tuple"
        }
      ],
      "stateMutability": "view",
      "type": "function"
    },
    {
      "inputs": [
        {
          "internalType": "bytes32",
          "name": "role",
          "type": "bytes32"
        }
      ],
      "name": "getRoleAdmin",
      "outputs": [
        {
          "internalType": "bytes32",
          "name": "",
          "type": "bytes32"
        }
      ],
      "stateMutability": "view",
      "type": "function"
    },
    {
      "inputs": [
        {
          "internalType": "address",
          "name": "_user",
          "type": "address"
        }
      ],
      "name": "getUserPayments",
      "outputs": [
        {
          "internalType": "uint256[]",
          "name": "",
          "type": "uint256[]"
        }
      ],
      "stateMutability": "view",
      "type": "function"
    },
    {
      "inputs": [
        {
          "internalType": "bytes32",
          "name": "role",
          "type": "bytes32"
        },
        {
          "internalType": "address",
          "name": "account",
          "type": "address"
        }
      ],
      "name": "grantRole",
      "outputs": [],
      "stateMutability": "nonpayable",
      "type": "function"
    },
    {
      "inputs": [
        {
          "internalType": "bytes32",
          "name": "role",
          "type": "bytes32"
        },
        {
          "internalType": "address",
          "name": "account",
          "type": "address"
        }
      ],
      "name": "hasRole",
      "outputs": [
        {
          "internalType": "bool",
          "name": "",
          "type": "bool"
        }
      ],
      "stateMutability": "view",
      "type": "function"
    },
    {
      "inputs": [
        {
          "internalType": "address",
          "name": "forwarder",
          "type": "address"
        }
      ],
      "name": "isTrustedForwarder",
      "outputs": [
        {
          "internalType": "bool",
          "name": "",
          "type": "bool"
        }
      ],
      "stateMutability": "view",
      "type": "function"
    },
    {
      "inputs": [
        {
          "internalType": "address",
          "name": "",
          "type": "address"
        },
        {
          "internalType": "uint256",
          "name": "",
          "type": "uint256"
        }
      ],
      "name": "lenderLoans",
      "outputs": [
        {
          "internalType": "uint256",
          "name": "",
          "type": "uint256"
        }
      ],
      "stateMutability": "view",
      "type": "function"
    },
    {
      "inputs": [
        {
          "internalType": "uint256",
          "name": "",
          "type": "uint256"
        }
      ],
      "name": "loans",
      "outputs": [
        {
          "internalType": "uint256",
          "name": "id",
          "type": "uint256"
        },
        {
          "internalType": "address",
          "name": "borrower",
          "type": "address"
        },
        {
          "internalType": "address",
          "name": "lender",
          "type": "address"
        },
        {
          "internalType": "uint256",
          "name": "principal",
          "type": "uint256"
        },
        {
          "internalType": "uint256",
          "name": "collateralLocked",
          "type": "uint256"
        },
        {
          "internalType": "uint256",
          "name": "dueDate",
          "type": "uint256"
        },
        {
          "internalType": "bool",
          "name": "isActive",
          "type": "bool"
        },
        {
          "internalType": "bool",
          "name": "isDefaulted",
          "type": "bool"
        },
        {
          "internalType": "bool",
          "name": "isRecovered",
          "type": "bool"
        },
        {
          "internalType": "uint256",
          "name": "createdAt",
          "type": "uint256"
        },
        {
          "internalType": "uint256",
          "name": "recoveredAt",
          "type": "uint256"
        }
      ],
      "stateMutability": "view",
      "type": "function"
    },
    {
      "inputs": [
        {
          "internalType": "uint256",
          "name": "_loanId",
          "type": "uint256"
        }
      ],
      "name": "markLoanDefaulted",
      "outputs": [],
      "stateMutability": "nonpayable",
      "type": "function"
    },
    {
      "inputs": [],
      "name": "nextLoanId",
      "outputs": [
        {
          "internalType": "uint256",
          "name": "",
          "type": "uint256"
        }
      ],
      "stateMutability": "view",
      "type": "function"
    },
    {
      "inputs": [],
      "name": "nextPaymentId",
      "outputs": [
        {
          "internalType": "uint256",
          "name": "",
          "type": "uint256"
        }
      ],
      "stateMutability": "view",
      "type": "function"
    },
    {
      "inputs": [
        {
          "internalType": "uint256",
          "name": "",
          "type": "uint256"
        }
      ],
      "name": "payments",
      "outputs": [
        {
          "internalType": "uint256",
          "name": "id",
          "type": "uint256"
        },
        {
          "internalType": "address",
          "name": "from",
          "type": "address"
        },
        {
          "internalType": "address",
          "name": "to",
          "type": "address"
        },
        {
          "internalType": "uint256",
          "name": "amount",
          "type": "uint256"
        },
        {
          "internalType": "string",
          "name": "currency",
          "type": "string"
        },
        {
          "internalType": "uint256",
          "name": "timestamp",
          "type": "uint256"
        },
        {
          "internalType": "bytes32",
          "name": "txHash",
          "type": "bytes32"
        }
      ],
      "stateMutability": "view",
      "type": "function"
    },
    {
      "inputs": [
        {
          "internalType": "address",
          "name": "_to",
          "type": "address"
        },
        {
          "internalType": "uint256",
          "name": "_amount",
          "type": "uint256"
        },
        {
          "internalType": "string",
          "name": "_currency",
          "type": "string"
        }
      ],
      "name": "processBorderlessPayment",
      "outputs": [
        {
          "internalType": "uint256",
          "name": "paymentId",
          "type": "uint256"
        }
      ],
      "stateMutability": "nonpayable",
      "type": "function"
    },
    {
      "inputs": [
        {
          "internalType": "address[]",
          "name": "_recipients",
          "type": "address[]"
        },
        {
          "internalType": "uint256[]",
          "name": "_amounts",
          "type": "uint256[]"
        },
        {
          "internalType": "string",
          "name": "_currency",
          "type": "string"
        }
      ],
      "name": "processBorderlessPaymentBatch",
      "outputs": [],
      "stateMutability": "nonpayable",
      "type": "function"
    },
    {
      "inputs": [
        {
          "internalType": "address",
          "name": "_borrower",
          "type": "address"
        }
      ],
      "name": "queryLockedCollateral",
      "outputs": [
        {
          "internalType": "uint256",
          "name": "lockedBalance",
          "type": "uint256"
        }
      ],
      "stateMutability": "view",
      "type": "function"
    },
    {
      "inputs": [
        {
          "internalType": "address",
          "name": "_relayer",
          "type": "address"
        }
      ],
      "name": "removeRelayer",
      "outputs": [],
      "stateMutability": "nonpayable",
      "type": "function"
    },
    {
      "inputs": [
        {
          "internalType": "bytes32",
          "name": "role",
          "type": "bytes32"
        },
        {
          "internalType": "address",
          "name": "callerConfirmation",
          "type": "address"
        }
      ],
      "name": "renounceRole",
      "outputs": [],
      "stateMutability": "nonpayable",
      "type": "function"
    },
    {
      "inputs": [
        {
          "internalType": "bytes32",
          "name": "role",
          "type": "bytes32"
        },
        {
          "internalType": "address",
          "name": "account",
          "type": "address"
        }
      ],
      "name": "revokeRole",
      "outputs": [],
      "stateMutability": "nonpayable",
      "type": "function"
    },
    {
      "inputs": [],
      "name": "sentinelGate",
      "outputs": [
        {
          "internalType": "contract SentinelGate",
          "name": "",
          "type": "address"
        }
      ],
      "stateMutability": "view",
      "type": "function"
    },
    {
      "inputs": [
        {
          "internalType": "bytes4",
          "name": "interfaceId",
          "type": "bytes4"
        }
      ],
      "name": "supportsInterface",
      "outputs": [
        {
          "internalType": "bool",
          "name": "",
          "type": "bool"
        }
      ],
      "stateMutability": "view",
      "type": "function"
    },
    {
      "inputs": [],
      "name": "totalCollateralRecovered",
      "outputs": [
        {
          "internalType": "uint256",
          "name": "",
          "type": "uint256"
        }
      ],
      "stateMutability": "view",
      "type": "function"
    },
    {
      "inputs": [],
      "name": "totalLoansCreated",
      "outputs": [
        {
          "internalType": "uint256",
          "name": "",
          "type": "uint256"
        }
      ],
      "stateMutability": "view",
      "type": "function"
    },
    {
      "inputs": [],
      "name": "totalLoansDefaulted",
      "outputs": [
        {
          "internalType": "uint256",
          "name": "",
          "type": "uint256"
        }
      ],
      "stateMutability": "view",
      "type": "function"
    },
    {
      "inputs": [],
      "name": "totalLoansRecovered",
      "outputs": [
        {
          "internalType": "uint256",
          "name": "",
          "type": "uint256"
        }
      ],
      "stateMutability": "view",
      "type": "function"
    },
    {
      "inputs": [],
      "name": "totalPaymentsProcessed",
      "outputs": [
        {
          "internalType": "uint256",
          "name": "",
          "type": "uint256"
        }
      ],
      "stateMutability": "view",
      "type": "function"
    },
    {
      "inputs": [],
      "name": "totalVolumeTransferred",
      "outputs": [
        {
          "internalType": "uint256",
          "name": "",
          "type": "uint256"
        }
      ],
      "stateMutability": "view",
      "type": "function"
    },
    {
      "inputs": [],
      "name": "trustedForwarder",
      "outputs": [
        {
          "internalType": "address",
          "name": "",
          "type": "address"
        }
      ],
      "stateMutability": "view",
      "type": "function"
    },
    {
      "inputs": [
        {
          "internalType": "address",
          "name": "",
          "type": "address"
        },
        {
          "internalType": "uint256",
          "name": "",
          "type": "uint256"
        }
      ],
      "name": "userPayments",
      "outputs": [
        {
          "internalType": "uint256",
          "name": "",
          "type": "uint256"
        }
      ],
      "stateMutability": "view",
      "type": "function"
    },
    {
      "inputs": [],
      "name": "vidaToken",
      "outputs": [
        {
          "internalType": "contract FoundationVault",
          "name": "",
          "type": "address"
        }
      ],
      "stateMutability": "view",
      "type": "function"
    }
  ],
  "bytecode": "0x60a06040523480156200001157600080fd5b50604051620033423803806200334283398101604081905262000034916200034d565b600180556001600160a01b038083166080528416620000ac5760405162461bcd60e51b815260206004820152602960248201527f53656e74696e656c53756974653a205649444120746f6b656e206973207a65726044820152686f206164647265737360b81b60648201526084015b60405180910390fd5b6001600160a01b038316620001195760405162461bcd60e51b815260206004820152602c60248201527f53656e74696e656c53756974653a2073656e74696e656c20676174652069732060448201526b7a65726f206164647265737360a01b6064820152608401620000a3565b6001600160a01b038116620001825760405162461bcd60e51b815260206004820152602860248201527f53656e74696e656c53756974653a20617263686974656374206973207a65726f604482015267206164647265737360c01b6064820152608401620000a3565b600280546001600160a01b038087166001600160a01b0319928316179092556003805492861692909116919091179055620001bf600082620001f7565b50620001ec7fd81d72b65535f1777b4b20777e5306dade95bd1fde525ef999f6bd610befc1d482620001f7565b505050505062000407565b6000828152602081815260408083206001600160a01b038516845290915281205460ff166200029e576000838152602081815260408083206001600160a01b03861684529091529020805460ff1916600117905562000255620002a8565b6001600160a01b0316826001600160a01b0316847f2f8788117e7eff1d82e926ec794901d17c78024a50270940304540a733656f0d60405160405180910390a4506001620002a2565b5060005b92915050565b6000620002b4620002b9565b905090565b6000366014808210801590620002d55750620002d53362000309565b156200030157620002ec36828403816000620003aa565b620002f791620003d6565b60601c9250505090565b339250505090565b60006200031560805190565b6001600160a01b0316826001600160a01b0316149050919050565b80516001600160a01b03811681146200034857600080fd5b919050565b600080600080608085870312156200036457600080fd5b6200036f8562000330565b93506200037f6020860162000330565b92506200038f6040860162000330565b91506200039f6060860162000330565b905092959194509250565b60008085851115620003bb57600080fd5b83861115620003c957600080fd5b5050820193919092039150565b6001600160601b03198135818116916014851015620003ff5780818660140360031b1b83161692505b505092915050565b608051612f11620004316000396000818161034d015281816103e901526125860152612f116000f3fe608060405234801561001057600080fd5b50600436106102535760003560e01c806391d1485411610146578063d547741f116100c3578063e3ed190211610087578063e3ed190214610667578063eee8b7ff1461067a578063eeeb0c171461068d578063fb987bf8146106a0578063fdb014e3146106b3578063fe97290c146106c657600080fd5b8063d547741f1461053b578063d92d7d771461054e578063dd39f00d14610561578063e1ec3c6814610574578063e3d7b24d1461065457600080fd5b80639d7dadeb1161010a5780639d7dadeb146104e15780639e70df2114610501578063a203a5a214610521578063a217fddf1461052a578063a45a253f1461053257600080fd5b806391d1485414610476578063926d7d7f1461048957806395d11513146104b057806398b765cf146104c55780639b22b920146104d857600080fd5b806360f0a5ac116101d45780637da0a877116101985780637da0a877146103e75780638392bb591461042157806387c514591461043457806387d817891461043d5780638cfeab351461046357600080fd5b806360f0a5ac1461037d57806366877b8d146103905780636ab62f33146103b05780636c48bb78146103b95780636fafbed7146103cc57600080fd5b806337e32d1d1161021b57806337e32d1d146102e25780633cdb72f1146102eb5780633fae84b6146102fe57806347fb610314610311578063572b6c051461033d57600080fd5b806301ffc9a71461025857806323aa7f0f14610280578063248a9ca3146102975780632f2ff15d146102ba57806336568abe146102cf575b600080fd5b61026b6102663660046125e0565b6106cf565b60405190151581526020015b60405180910390f35b61028960085481565b604051908152602001610277565b6102896102a5366004612611565b60009081526020819052604090206001015490565b6102cd6102c8366004612646565b610706565b005b6102cd6102dd366004612646565b610731565b610289600f5481565b6102896102f9366004612672565b610779565b6102cd61030c366004612611565b6107aa565b600854600954600a54600b54604080519485526020850193909352918301526060820152608001610277565b61026b61034b36600461269c565b7f00000000000000000000000000000000000000000000000000000000000000006001600160a01b0390811691161490565b6102cd61038b36600461269c565b610a71565b6103a361039e366004612611565b610aec565b60405161027791906126b7565b61028960105481565b6102896103c73660046127b0565b610c0c565b600f5460105460408051928352602083019190915201610277565b7f00000000000000000000000000000000000000000000000000000000000000005b6040516001600160a01b039091168152602001610277565b61028961042f36600461269c565b610fa1565b61028960075481565b61045061044b366004612611565b6110b7565b6040516102779796959493929190612850565b610289610471366004612672565b611189565b61026b610484366004612646565b6111a5565b6102897fe2b7fb3b832174769106daebcfd6d1970523240dda11281102db9363b83b0dc481565b610289600080516020612ebc83398151915281565b600354610409906001600160a01b031681565b610289600e5481565b6104f46104ef36600461269c565b6111ce565b604051610277919061289f565b61051461050f366004612611565b61123a565b60405161027791906128e3565b610289600b5481565b610289600081565b610289600a5481565b6102cd610549366004612646565b611375565b6102cd61055c366004612611565b61139a565b6102cd61056f36600461269c565b6115fa565b6105ef610582366004612611565b600460208190526000918252604090912080546001820154600283015460038401549484015460058501546006860154600787015460089097015495976001600160a01b039586169794909516959293919260ff808316936101008404821693620100009004909116918b565b604080519b8c526001600160a01b039a8b1660208d015298909916978a01979097526060890195909552608088019390935260a0870191909152151560c0860152151560e0850152151561010084015261012083015261014082015261016001610277565b610289610662366004612956565b6116da565b610289610675366004612672565b611c9d565b6104f461068836600461269c565b611cb9565b6104f461069b36600461269c565b611d23565b6102cd6106ae3660046129e8565b611d8d565b600254610409906001600160a01b031681565b61028960095481565b60006001600160e01b03198216637965db0b60e01b148061070057506301ffc9a760e01b6001600160e01b03198316145b92915050565b600082815260208190526040902060010154610721816123d5565b61072b83836123e6565b50505050565b610739612479565b6001600160a01b0316816001600160a01b03161461076a5760405163334bd91960e11b815260040160405180910390fd5b6107748282612488565b505050565b6006602052816000526040600020818154811061079557600080fd5b90600052602060002001600091509150505481565b600080516020612ebc8339815191526107c2816123d5565b6107ca612511565b6000828152600460205260409020805483146108015760405162461bcd60e51b81526004016107f890612a82565b60405180910390fd5b6006810154610100900460ff166108645760405162461bcd60e51b815260206004820152602160248201527f53656e74696e656c53756974653a206c6f616e206e6f742064656661756c74656044820152601960fa1b60648201526084016107f8565b600681015462010000900460ff16156108cd5760405162461bcd60e51b815260206004820152602560248201527f53656e74696e656c53756974653a206465627420616c7265616479207265636f6044820152641d995c995960da1b60648201526084016107f8565b60025460018201546004808401546040516302fe2e9360e31b81526001600160a01b039384169281019290925260248201529116906317f1749890604401600060405180830381600087803b15801561092557600080fd5b505af1158015610939573d6000803e3d6000fd5b5050600280546001850154918501546004808701546040516323b872dd60e01b81526001600160a01b039586169281019290925291841660248201526044810191909152911692506323b872dd91506064016020604051808303816000875af11580156109aa573d6000803e3d6000fd5b505050506040513d601f19601f820116820180604052508101906109ce9190612ac4565b5060068101805462ff00ff191662010000179055426008820155600a80549060006109f883612afc565b91905055508060040154600b6000828254610a139190612b15565b9091555050600281015460048201546040519081526001600160a01b039091169084907f040cfeb64dd12405bf1c973ca1cc8fc37643f646c320be57caed5a4085c1c69b9060200160405180910390a350610a6d60018055565b5050565b600080516020612ebc833981519152610a89816123d5565b610ab37fe2b7fb3b832174769106daebcfd6d1970523240dda11281102db9363b83b0dc483612488565b506040516001600160a01b038316907f10e1f7ce9fd7d1b90a66d13a2ab3cb8dd7f29f3f8d520b143b063ccfbab6906b90600090a25050565b610b616040518061016001604052806000815260200160006001600160a01b0316815260200160006001600160a01b0316815260200160008152602001600081526020016000815260200160001515815260200160001515815260200160001515815260200160008152602001600081525090565b506000908152600460208181526040928390208351610160810185528154815260018201546001600160a01b039081169382019390935260028201549092169382019390935260038301546060820152908201546080820152600582015460a0820152600682015460ff808216151560c08401526101008083048216151560e08501526201000090920416151590820152600782015461012082015260089091015461014082015290565b6000610c16612511565b6003546001600160a01b031663cbd54bb4610c2f612479565b6040516001600160e01b031960e084901b1681526001600160a01b039091166004820152602401602060405180830381865afa158015610c73573d6000803e3d6000fd5b505050506040513d601f19601f82011682018060405250810190610c979190612ac4565b610cb35760405162461bcd60e51b81526004016107f890612b28565b6001600160a01b038516610cd95760405162461bcd60e51b81526004016107f890612b6b565b60008411610cf95760405162461bcd60e51b81526004016107f890612bb3565b6000610d03612479565b6002546040516323b872dd60e01b81526001600160a01b0380841660048301528981166024830152604482018990529293509116906323b872dd906064016020604051808303816000875af1158015610d60573d6000803e3d6000fd5b505050506040513d601f19601f82011682018060405250810190610d849190612ac4565b50600e8054906000610d9583612afc565b919050559150600081878742604051602001610db49493929190612bf4565b6040516020818303038152906040528051906020012090506040518060e00160405280848152602001836001600160a01b03168152602001886001600160a01b0316815260200187815260200186868080601f01602080910402602001604051908101604052809392919081815260200183838082843760009201829052509385525050426020808501919091526040938401869052878352600c81529183902084518155918401516001830180546001600160a01b03199081166001600160a01b0393841617909155938501516002840180549095169116179092556060830151600382015560808301519091506004820190610eb29082612cbd565b5060a0820151600582015560c0909101516006909101556001600160a01b038083166000908152600d6020908152604080832080546001818101835591855283852001889055938b16835282208054938401815582528120909101849055600f805491610f1e83612afc565b91905055508560106000828254610f359190612b15565b92505081905550866001600160a01b0316826001600160a01b0316847f8467da3285b09b8fbb1be023b44d8efcc0a01f34b7ed464546f73b6d20a5212289898987604051610f869493929190612d7d565b60405180910390a45050610f9960018055565b949350505050565b6003546000906001600160a01b0316635dc86e1d610fbd612479565b6040516001600160e01b031960e084901b1681526001600160a01b039091166004820152602401602060405180830381865afa158015611001573d6000803e3d6000fd5b505050506040513d601f19601f820116820180604052508101906110259190612ac4565b6110415760405162461bcd60e51b81526004016107f890612dbd565b6002546040516331d6ac3d60e21b81526001600160a01b0384811660048301529091169063c75ab0f490602401606060405180830381865afa15801561108b573d6000803e3d6000fd5b505050506040513d601f19601f820116820180604052508101906110af9190612e01565b509392505050565b600c602052600090815260409020805460018201546002830154600384015460048501805494956001600160a01b0394851695939094169391926110fa90612c3d565b80601f016020809104026020016040519081016040528092919081815260200182805461112690612c3d565b80156111735780601f1061114857610100808354040283529160200191611173565b820191906000526020600020905b81548152906001019060200180831161115657829003601f168201915b5050505050908060050154908060060154905087565b600d602052816000526040600020818154811061079557600080fd5b6000918252602082815260408084206001600160a01b0393909316845291905290205460ff1690565b6001600160a01b0381166000908152600d602090815260409182902080548351818402810184019094528084526060939283018282801561122e57602002820191906000526020600020905b81548152602001906001019080831161121a575b50505050509050919050565b6040805160e0810182526000808252602082018190529181018290526060808201839052608082015260a0810182905260c08101919091526000828152600c6020908152604091829020825160e0810184528154815260018201546001600160a01b0390811693820193909352600282015490921692820192909252600382015460608201526004820180549192916080840191906112d890612c3d565b80601f016020809104026020016040519081016040528092919081815260200182805461130490612c3d565b80156113515780601f1061132657610100808354040283529160200191611351565b820191906000526020600020905b81548152906001019060200180831161133457829003601f168201915b50505050508152602001600582015481526020016006820154815250509050919050565b600082815260208190526040902060010154611390816123d5565b61072b8383612488565b6113a2612511565b6003546001600160a01b0316635dc86e1d6113bb612479565b6040516001600160e01b031960e084901b1681526001600160a01b039091166004820152602401602060405180830381865afa1580156113ff573d6000803e3d6000fd5b505050506040513d601f19601f820116820180604052508101906114239190612ac4565b61143f5760405162461bcd60e51b81526004016107f890612dbd565b60008181526004602052604090208054821461146d5760405162461bcd60e51b81526004016107f890612a82565b600681015460ff166114c15760405162461bcd60e51b815260206004820152601e60248201527f53656e74696e656c53756974653a206c6f616e206e6f7420616374697665000060448201526064016107f8565b6006810154610100900460ff16156115295760405162461bcd60e51b815260206004820152602560248201527f53656e74696e656c53756974653a206c6f616e20616c726561647920646566616044820152641d5b1d195960da1b60648201526084016107f8565b8060050154421161157c5760405162461bcd60e51b815260206004820152601f60248201527f53656e74696e656c53756974653a206c6f616e206e6f7420796574206475650060448201526064016107f8565b60068101805461ff0019166101001790556009805490600061159d83612afc565b9091555050600181015460048201546040519081526001600160a01b039091169083907f2d6de712d035bfecc1593860af7eae0831e978cab3cd96f778478b1fdc443bc39060200160405180910390a3506115f760018055565b50565b600080516020612ebc833981519152611612816123d5565b6001600160a01b0382166116775760405162461bcd60e51b815260206004820152602660248201527f53656e74696e656c53756974653a2072656c61796572206973207a65726f206160448201526564647265737360d01b60648201526084016107f8565b6116a17fe2b7fb3b832174769106daebcfd6d1970523240dda11281102db9363b83b0dc4836123e6565b506040516001600160a01b038316907f03580ee9f53a62b7cb409a2cb56f9be87747dd15017afc5cef6eef321e4fb2c590600090a25050565b60006116e4612511565b6003546001600160a01b0316635dc86e1d6116fd612479565b6040516001600160e01b031960e084901b1681526001600160a01b039091166004820152602401602060405180830381865afa158015611741573d6000803e3d6000fd5b505050506040513d601f19601f820116820180604052508101906117659190612ac4565b6117815760405162461bcd60e51b81526004016107f890612dbd565b6001600160a01b0386166117e75760405162461bcd60e51b815260206004820152602760248201527f53656e74696e656c53756974653a20626f72726f776572206973207a65726f206044820152666164647265737360c81b60648201526084016107f8565b6001600160a01b03851661184b5760405162461bcd60e51b815260206004820152602560248201527f53656e74696e656c53756974653a206c656e646572206973207a65726f206164604482015264647265737360d81b60648201526084016107f8565b600084116118a75760405162461bcd60e51b8152602060048201526024808201527f53656e74696e656c53756974653a207072696e636970616c206d7573742062656044820152630203e20360e41b60648201526084016107f8565b600083116119055760405162461bcd60e51b815260206004820152602560248201527f53656e74696e656c53756974653a20636f6c6c61746572616c206d7573742062604482015264065203e20360dc1b60648201526084016107f8565b6002546040516331d6ac3d60e21b81526001600160a01b038881166004830152600092169063c75ab0f490602401606060405180830381865afa158015611950573d6000803e3d6000fd5b505050506040513d601f19601f820116820180604052508101906119749190612e01565b50915050838110156119de5760405162461bcd60e51b815260206004820152602d60248201527f53656e74696e656c53756974653a20696e73756666696369656e74206c6f636b60448201526c19590818dbdb1b185d195c985b609a1b60648201526084016107f8565b600780549060006119ee83612afc565b9091555091506000611a038462015180612e2f565b611a0d9042612b15565b9050604051806101600160405280848152602001896001600160a01b03168152602001886001600160a01b031681526020018781526020018681526020018281526020016001151581526020016000151581526020016000151581526020014281526020016000815250600460008581526020019081526020016000206000820151816000015560208201518160010160006101000a8154816001600160a01b0302191690836001600160a01b0316021790555060408201518160020160006101000a8154816001600160a01b0302191690836001600160a01b03160217905550606082015181600301556080820151816004015560a0820151816005015560c08201518160060160006101000a81548160ff02191690831515021790555060e08201518160060160016101000a81548160ff0219169083151502179055506101008201518160060160026101000a81548160ff0219169083151502179055506101208201518160070155610140820151816008015590505060056000896001600160a01b03166001600160a01b0316815260200190815260200160002083908060018154018082558091505060019003906000526020600020016000909190919091505560066000886001600160a01b03166001600160a01b0316815260200190815260200160002083908060018154018082558091505060019003906000526020600020016000909190919091505560086000815480929190611c3190612afc565b909155505060408051878152602081018790529081018290526001600160a01b0380891691908a169085907f6850239cc8fa897edd78465a234c3240b84bbfb1c55cac4b85364de88ce710959060600160405180910390a45050611c9460018055565b95945050505050565b6005602052816000526040600020818154811061079557600080fd5b6001600160a01b03811660009081526005602090815260409182902080548351818402810184019094528084526060939283018282801561122e576020028201919060005260206000209081548152602001906001019080831161121a5750505050509050919050565b6001600160a01b03811660009081526006602090815260409182902080548351818402810184019094528084526060939283018282801561122e576020028201919060005260206000209081548152602001906001019080831161121a5750505050509050919050565b611d95612511565b6003546001600160a01b031663cbd54bb4611dae612479565b6040516001600160e01b031960e084901b1681526001600160a01b039091166004820152602401602060405180830381865afa158015611df2573d6000803e3d6000fd5b505050506040513d601f19601f82011682018060405250810190611e169190612ac4565b611e325760405162461bcd60e51b81526004016107f890612b28565b848314611e8d5760405162461bcd60e51b8152602060048201526024808201527f53656e74696e656c53756974653a206172726179206c656e677468206d69736d6044820152630c2e8c6d60e31b60648201526084016107f8565b84611eda5760405162461bcd60e51b815260206004820152601a60248201527f53656e74696e656c53756974653a20656d70747920626174636800000000000060448201526064016107f8565b6064851115611f2b5760405162461bcd60e51b815260206004820152601e60248201527f53656e74696e656c53756974653a20626174636820746f6f206c61726765000060448201526064016107f8565b6000611f35612479565b905060005b868110156123c2576000888883818110611f5657611f56612e46565b9050602002016020810190611f6b919061269c565b6001600160a01b031603611f915760405162461bcd60e51b81526004016107f890612b6b565b6000868683818110611fa557611fa5612e46565b9050602002013511611fc95760405162461bcd60e51b81526004016107f890612bb3565b6002546001600160a01b03166323b872dd838a8a85818110611fed57611fed612e46565b9050602002016020810190612002919061269c565b89898681811061201457612014612e46565b6040516001600160e01b031960e088901b1681526001600160a01b039586166004820152949093166024850152506020909102013560448201526064016020604051808303816000875af1158015612070573d6000803e3d6000fd5b505050506040513d601f19601f820116820180604052508101906120949190612ac4565b50600e8054600091826120a683612afc565b9190505590506000838a8a858181106120c1576120c1612e46565b90506020020160208101906120d6919061269c565b8989868181106120e8576120e8612e46565b90506020020135426040516020016121039493929190612bf4565b6040516020818303038152906040528051906020012090506040518060e00160405280838152602001856001600160a01b031681526020018b8b8681811061214d5761214d612e46565b9050602002016020810190612162919061269c565b6001600160a01b0316815260200189898681811061218257612182612e46565b90506020020135815260200187878080601f01602080910402602001604051908101604052809392919081815260200183838082843760009201829052509385525050426020808501919091526040938401869052868352600c81529183902084518155918401516001830180546001600160a01b03199081166001600160a01b039384161790915593850151600284018054909516911617909255606083015160038201556080830151909150600482019061223f9082612cbd565b5060a0820151600582015560c0909101516006909101556001600160a01b0384166000908152600d602081815260408320805460018101825590845290832001849055908b8b8681811061229557612295612e46565b90506020020160208101906122aa919061269c565b6001600160a01b0316815260208082019290925260400160009081208054600181018255908252918120909101839055600f8054916122e883612afc565b91905055508787848181106122ff576122ff612e46565b90506020020135601060008282546123179190612b15565b909155508a9050898481811061232f5761232f612e46565b9050602002016020810190612344919061269c565b6001600160a01b0316846001600160a01b0316837f8467da3285b09b8fbb1be023b44d8efcc0a01f34b7ed464546f73b6d20a521228b8b8881811061238b5761238b612e46565b905060200201358a8a876040516123a59493929190612d7d565b60405180910390a4505080806123ba90612afc565b915050611f3a565b50506123cd60018055565b505050505050565b6115f7816123e1612479565b61253b565b60006123f283836111a5565b612471576000838152602081815260408083206001600160a01b03861684529091529020805460ff19166001179055612429612479565b6001600160a01b0316826001600160a01b0316847f2f8788117e7eff1d82e926ec794901d17c78024a50270940304540a733656f0d60405160405180910390a4506001610700565b506000610700565b6000612483612574565b905090565b600061249483836111a5565b15612471576000838152602081815260408083206001600160a01b03861684529091529020805460ff191690556124c9612479565b6001600160a01b0316826001600160a01b0316847ff6391f5c32d9c69d2a47ea670b442974b53935d1edc7fd64eb21e047a839171b60405160405180910390a4506001610700565b60026001540361253457604051633ee5aeb560e01b815260040160405180910390fd5b6002600155565b61254582826111a5565b610a6d5760405163e2517d3f60e01b81526001600160a01b0382166004820152602481018390526044016107f8565b60003660148082108015906125b157507f00000000000000000000000000000000000000000000000000000000000000006001600160a01b031633145b156125d8576125c536828403816000612e5c565b6125ce91612e86565b60601c9250505090565b339250505090565b6000602082840312156125f257600080fd5b81356001600160e01b03198116811461260a57600080fd5b9392505050565b60006020828403121561262357600080fd5b5035919050565b80356001600160a01b038116811461264157600080fd5b919050565b6000806040838503121561265957600080fd5b823591506126696020840161262a565b90509250929050565b6000806040838503121561268557600080fd5b61268e8361262a565b946020939093013593505050565b6000602082840312156126ae57600080fd5b61260a8261262a565b815181526020808301516101608301916126db908401826001600160a01b03169052565b5060408301516126f660408401826001600160a01b03169052565b50606083015160608301526080830151608083015260a083015160a083015260c083015161272860c084018215159052565b5060e083015161273c60e084018215159052565b5061010083810151151590830152610120808401519083015261014092830151929091019190915290565b60008083601f84011261277957600080fd5b50813567ffffffffffffffff81111561279157600080fd5b6020830191508360208285010111156127a957600080fd5b9250929050565b600080600080606085870312156127c657600080fd5b6127cf8561262a565b935060208501359250604085013567ffffffffffffffff8111156127f257600080fd5b6127fe87828801612767565b95989497509550505050565b6000815180845260005b8181101561283057602081850181015186830182015201612814565b506000602082860101526020601f19601f83011685010191505092915050565b8781526001600160a01b038781166020830152861660408201526060810185905260e0608082018190526000906128899083018661280a565b60a08301949094525060c0015295945050505050565b6020808252825182820181905260009190848201906040850190845b818110156128d7578351835292840192918401916001016128bb565b50909695505050505050565b60208152815160208201526000602083015160018060a01b038082166040850152806040860151166060850152505060608301516080830152608083015160e060a084015261293661010084018261280a565b905060a084015160c084015260c084015160e08401528091505092915050565b600080600080600060a0868803121561296e57600080fd5b6129778661262a565b94506129856020870161262a565b94979496505050506040830135926060810135926080909101359150565b60008083601f8401126129b557600080fd5b50813567ffffffffffffffff8111156129cd57600080fd5b6020830191508360208260051b85010111156127a957600080fd5b60008060008060008060608789031215612a0157600080fd5b863567ffffffffffffffff80821115612a1957600080fd5b612a258a838b016129a3565b90985096506020890135915080821115612a3e57600080fd5b612a4a8a838b016129a3565b90965094506040890135915080821115612a6357600080fd5b50612a7089828a01612767565b979a9699509497509295939492505050565b60208082526022908201527f53656e74696e656c53756974653a206c6f616e20646f6573206e6f74206578696040820152611cdd60f21b606082015260800190565b600060208284031215612ad657600080fd5b8151801515811461260a57600080fd5b634e487b7160e01b600052601160045260246000fd5b600060018201612b0e57612b0e612ae6565b5060010190565b8082018082111561070057610700612ae6565b60208082526023908201527f53656e74696e656c53756974653a20425053206c6963656e73652072657175696040820152621c995960ea1b606082015260800190565b60208082526028908201527f53656e74696e656c53756974653a20726563697069656e74206973207a65726f604082015267206164647265737360c01b606082015260800190565b60208082526021908201527f53656e74696e656c53756974653a20616d6f756e74206d757374206265203e206040820152600360fc1b606082015260800190565b6bffffffffffffffffffffffff19606095861b811682529390941b90921660148401526028830152604882015260680190565b634e487b7160e01b600052604160045260246000fd5b600181811c90821680612c5157607f821691505b602082108103612c7157634e487b7160e01b600052602260045260246000fd5b50919050565b601f82111561077457600081815260208120601f850160051c81016020861015612c9e5750805b601f850160051c820191505b818110156123cd57828155600101612caa565b815167ffffffffffffffff811115612cd757612cd7612c27565b612ceb81612ce58454612c3d565b84612c77565b602080601f831160018114612d205760008415612d085750858301515b600019600386901b1c1916600185901b1785556123cd565b600085815260208120601f198616915b82811015612d4f57888601518255948401946001909101908401612d30565b5085821015612d6d5787850151600019600388901b60f8161c191681555b5050505050600190811b01905550565b848152606060208201528260608201528284608083013760006080848301015260006080601f19601f860116830101905082604083015295945050505050565b60208082526024908201527f53656e74696e656c53756974653a2041445253206c6963656e736520726571756040820152631a5c995960e21b606082015260800190565b600080600060608486031215612e1657600080fd5b8351925060208401519150604084015190509250925092565b808202811582820484141761070057610700612ae6565b634e487b7160e01b600052603260045260246000fd5b60008085851115612e6c57600080fd5b83861115612e7957600080fd5b5050820193919092039150565b6bffffffffffffffffffffffff198135818116916014851015612eb35780818660140360031b1b83161692505b50509291505056fed81d72b65535f1777b4b20777e5306dade95bd1fde525ef999f6bd610befc1d4a2646970667358221220e26c8d95edda944d96ee81afd024ec8cfb29e843bfc93fe0c73ea7bcf26a2da264736f6c63430008140033",
  "linkReferences": {},
  "deployedLinkReferences": {}
}