{
  "_format": "hh-sol-artifact-1",
  "contractName": "NationalBlockNG",
  "sourceName": "contracts/NationalBlockNG.sol",
  "abi": [
    {
      "inputs": [
        {
          "internalType": "address",
          "name": "_vidaToken",
          "type": "address"
        },
        {
          "internalType": "address",
          "name": "_architect",
          "type": "address"
        }
      ],
      "stateMutability": "nonpayable",
      "type": "constructor"
    },
    {
      "inputs": [],
      "name": "AccessControlBadConfirmation",
      "type": "error"
    },
    {
      "inputs": [
        {
          "internalType": "address",
          "name": "account",
          "type": "address"
        },
        {
          "internalType": "bytes32",
          "name": "neededRole",
          "type": "bytes32"
        }
      ],
      "name": "AccessControlUnauthorizedAccount",
      "type": "error"
    },
    {
      "inputs": [],
      "name": "ReentrancyGuardReentrantCall",
      "type": "error"
    },
    {
      "inputs": [
        {
          "internalType": "address",
          "name": "token",
          "type": "address"
        }
      ],
      "name": "SafeERC20FailedOperation",
      "type": "error"
    },
    {
      "anonymous": false,
      "inputs": [
        {
          "indexed": true,
          "internalType": "address",
          "name": "partner",
          "type": "address"
        },
        {
          "indexed": false,
          "internalType": "string",
          "name": "bankName",
          "type": "string"
        }
      ],
      "name": "BankingPartnerAdded",
      "type": "event"
    },
    {
      "anonymous": false,
      "inputs": [
        {
          "indexed": true,
          "internalType": "address",
          "name": "partner",
          "type": "address"
        }
      ],
      "name": "BankingPartnerRemoved",
      "type": "event"
    },
    {
      "anonymous": false,
      "inputs": [
        {
          "indexed": true,
          "internalType": "uint256",
          "name": "requestId",
          "type": "uint256"
        },
        {
          "indexed": true,
          "internalType": "address",
          "name": "approver",
          "type": "address"
        }
      ],
      "name": "ReleaseApproved",
      "type": "event"
    },
    {
      "anonymous": false,
      "inputs": [
        {
          "indexed": true,
          "internalType": "uint256",
          "name": "requestId",
          "type": "uint256"
        },
        {
          "indexed": true,
          "internalType": "address",
          "name": "recipient",
          "type": "address"
        },
        {
          "indexed": false,
          "internalType": "uint256",
          "name": "amount",
          "type": "uint256"
        }
      ],
      "name": "ReleaseExecuted",
      "type": "event"
    },
    {
      "anonymous": false,
      "inputs": [
        {
          "indexed": true,
          "internalType": "uint256",
          "name": "requestId",
          "type": "uint256"
        },
        {
          "indexed": true,
          "internalType": "address",
          "name": "requester",
          "type": "address"
        },
        {
          "indexed": false,
          "internalType": "uint256",
          "name": "amount",
          "type": "uint256"
        },
        {
          "indexed": false,
          "internalType": "string",
          "name": "projectName",
          "type": "string"
        }
      ],
      "name": "ReleaseRequested",
      "type": "event"
    },
    {
      "anonymous": false,
      "inputs": [
        {
          "indexed": true,
          "internalType": "bytes32",
          "name": "role",
          "type": "bytes32"
        },
        {
          "indexed": true,
          "internalType": "bytes32",
          "name": "previousAdminRole",
          "type": "bytes32"
        },
        {
          "indexed": true,
          "internalType": "bytes32",
          "name": "newAdminRole",
          "type": "bytes32"
        }
      ],
      "name": "RoleAdminChanged",
      "type": "event"
    },
    {
      "anonymous": false,
      "inputs": [
        {
          "indexed": true,
          "internalType": "bytes32",
          "name": "role",
          "type": "bytes32"
        },
        {
          "indexed": true,
          "internalType": "address",
          "name": "account",
          "type": "address"
        },
        {
          "indexed": true,
          "internalType": "address",
          "name": "sender",
          "type": "address"
        }
      ],
      "name": "RoleGranted",
      "type": "event"
    },
    {
      "anonymous": false,
      "inputs": [
        {
          "indexed": true,
          "internalType": "bytes32",
          "name": "role",
          "type": "bytes32"
        },
        {
          "indexed": true,
          "internalType": "address",
          "name": "account",
          "type": "address"
        },
        {
          "indexed": true,
          "internalType": "address",
          "name": "sender",
          "type": "address"
        }
      ],
      "name": "RoleRevoked",
      "type": "event"
    },
    {
      "anonymous": false,
      "inputs": [
        {
          "indexed": true,
          "internalType": "address",
          "name": "from",
          "type": "address"
        },
        {
          "indexed": false,
          "internalType": "uint256",
          "name": "amount",
          "type": "uint256"
        },
        {
          "indexed": false,
          "internalType": "uint256",
          "name": "citizenCount",
          "type": "uint256"
        }
      ],
      "name": "VidaDeposited",
      "type": "event"
    },
    {
      "inputs": [],
      "name": "ARCHITECT_ROLE",
      "outputs": [
        {
          "internalType": "bytes32",
          "name": "",
          "type": "bytes32"
        }
      ],
      "stateMutability": "view",
      "type": "function"
    },
    {
      "inputs": [],
      "name": "BANKING_PARTNER_ROLE",
      "outputs": [
        {
          "internalType": "bytes32",
          "name": "",
          "type": "bytes32"
        }
      ],
      "stateMutability": "view",
      "type": "function"
    },
    {
      "inputs": [],
      "name": "DEFAULT_ADMIN_ROLE",
      "outputs": [
        {
          "internalType": "bytes32",
          "name": "",
          "type": "bytes32"
        }
      ],
      "stateMutability": "view",
      "type": "function"
    },
    {
      "inputs": [],
      "name": "SENTINEL_ROLE",
      "outputs": [
        {
          "internalType": "bytes32",
          "name": "",
          "type": "bytes32"
        }
      ],
      "stateMutability": "view",
      "type": "function"
    },
    {
      "inputs": [
        {
          "internalType": "address",
          "name": "partner",
          "type": "address"
        },
        {
          "internalType": "string",
          "name": "bankName",
          "type": "string"
        }
      ],
      "name": "addBankingPartner",
      "outputs": [],
      "stateMutability": "nonpayable",
      "type": "function"
    },
    {
      "inputs": [
        {
          "internalType": "uint256",
          "name": "requestId",
          "type": "uint256"
        }
      ],
      "name": "approveRelease",
      "outputs": [],
      "stateMutability": "nonpayable",
      "type": "function"
    },
    {
      "inputs": [
        {
          "internalType": "uint256",
          "name": "amount",
          "type": "uint256"
        },
        {
          "internalType": "uint256",
          "name": "citizenCount",
          "type": "uint256"
        }
      ],
      "name": "depositVida",
      "outputs": [],
      "stateMutability": "nonpayable",
      "type": "function"
    },
    {
      "inputs": [
        {
          "internalType": "uint256",
          "name": "requestId",
          "type": "uint256"
        },
        {
          "internalType": "address",
          "name": "recipient",
          "type": "address"
        }
      ],
      "name": "executeRelease",
      "outputs": [],
      "stateMutability": "nonpayable",
      "type": "function"
    },
    {
      "inputs": [
        {
          "internalType": "uint256",
          "name": "requestId",
          "type": "uint256"
        }
      ],
      "name": "getReleaseRequest",
      "outputs": [
        {
          "components": [
            {
              "internalType": "uint256",
              "name": "id",
              "type": "uint256"
            },
            {
              "internalType": "address",
              "name": "requester",
              "type": "address"
            },
            {
              "internalType": "uint256",
              "name": "amount",
              "type": "uint256"
            },
            {
              "internalType": "string",
              "name": "projectName",
              "type": "string"
            },
            {
              "internalType": "string",
              "name": "justification",
              "type": "string"
            },
            {
              "internalType": "bool",
              "name": "approved",
              "type": "bool"
            },
            {
              "internalType": "bool",
              "name": "executed",
              "type": "bool"
            },
            {
              "internalType": "uint256",
              "name": "requestedAt",
              "type": "uint256"
            },
            {
              "internalType": "uint256",
              "name": "approvedAt",
              "type": "uint256"
            }
          ],
          "internalType": "struct NationalBlockNG.ReleaseRequest",
          "name": "",
          "type": "tuple"
        }
      ],
      "stateMutability": "view",
      "type": "function"
    },
    {
      "inputs": [
        {
          "internalType": "bytes32",
          "name": "role",
          "type": "bytes32"
        }
      ],
      "name": "getRoleAdmin",
      "outputs": [
        {
          "internalType": "bytes32",
          "name": "",
          "type": "bytes32"
        }
      ],
      "stateMutability": "view",
      "type": "function"
    },
    {
      "inputs": [],
      "name": "getTreasuryMetrics",
      "outputs": [
        {
          "internalType": "uint256",
          "name": "currentBalance",
          "type": "uint256"
        },
        {
          "internalType": "uint256",
          "name": "deposited",
          "type": "uint256"
        },
        {
          "internalType": "uint256",
          "name": "released",
          "type": "uint256"
        },
        {
          "internalType": "uint256",
          "name": "citizensVitalized",
          "type": "uint256"
        },
        {
          "internalType": "uint256",
          "name": "averagePerCitizen",
          "type": "uint256"
        }
      ],
      "stateMutability": "view",
      "type": "function"
    },
    {
      "inputs": [
        {
          "internalType": "bytes32",
          "name": "role",
          "type": "bytes32"
        },
        {
          "internalType": "address",
          "name": "account",
          "type": "address"
        }
      ],
      "name": "grantRole",
      "outputs": [],
      "stateMutability": "nonpayable",
      "type": "function"
    },
    {
      "inputs": [
        {
          "internalType": "address",
          "name": "sentinel",
          "type": "address"
        }
      ],
      "name": "grantSentinelRole",
      "outputs": [],
      "stateMutability": "nonpayable",
      "type": "function"
    },
    {
      "inputs": [
        {
          "internalType": "bytes32",
          "name": "role",
          "type": "bytes32"
        },
        {
          "internalType": "address",
          "name": "account",
          "type": "address"
        }
      ],
      "name": "hasRole",
      "outputs": [
        {
          "internalType": "bool",
          "name": "",
          "type": "bool"
        }
      ],
      "stateMutability": "view",
      "type": "function"
    },
    {
      "inputs": [
        {
          "internalType": "address",
          "name": "account",
          "type": "address"
        }
      ],
      "name": "isBankingPartner",
      "outputs": [
        {
          "internalType": "bool",
          "name": "",
          "type": "bool"
        }
      ],
      "stateMutability": "view",
      "type": "function"
    },
    {
      "inputs": [],
      "name": "nextRequestId",
      "outputs": [
        {
          "internalType": "uint256",
          "name": "",
          "type": "uint256"
        }
      ],
      "stateMutability": "view",
      "type": "function"
    },
    {
      "inputs": [
        {
          "internalType": "uint256",
          "name": "",
          "type": "uint256"
        }
      ],
      "name": "releaseRequests",
      "outputs": [
        {
          "internalType": "uint256",
          "name": "id",
          "type": "uint256"
        },
        {
          "internalType": "address",
          "name": "requester",
          "type": "address"
        },
        {
          "internalType": "uint256",
          "name": "amount",
          "type": "uint256"
        },
        {
          "internalType": "string",
          "name": "projectName",
          "type": "string"
        },
        {
          "internalType": "string",
          "name": "justification",
          "type": "string"
        },
        {
          "internalType": "bool",
          "name": "approved",
          "type": "bool"
        },
        {
          "internalType": "bool",
          "name": "executed",
          "type": "bool"
        },
        {
          "internalType": "uint256",
          "name": "requestedAt",
          "type": "uint256"
        },
        {
          "internalType": "uint256",
          "name": "approvedAt",
          "type": "uint256"
        }
      ],
      "stateMutability": "view",
      "type": "function"
    },
    {
      "inputs": [
        {
          "internalType": "address",
          "name": "partner",
          "type": "address"
        }
      ],
      "name": "removeBankingPartner",
      "outputs": [],
      "stateMutability": "nonpayable",
      "type": "function"
    },
    {
      "inputs": [
        {
          "internalType": "bytes32",
          "name": "role",
          "type": "bytes32"
        },
        {
          "internalType": "address",
          "name": "callerConfirmation",
          "type": "address"
        }
      ],
      "name": "renounceRole",
      "outputs": [],
      "stateMutability": "nonpayable",
      "type": "function"
    },
    {
      "inputs": [
        {
          "internalType": "uint256",
          "name": "amount",
          "type": "uint256"
        },
        {
          "internalType": "string",
          "name": "projectName",
          "type": "string"
        },
        {
          "internalType": "string",
          "name": "justification",
          "type": "string"
        }
      ],
      "name": "requestRelease",
      "outputs": [
        {
          "internalType": "uint256",
          "name": "requestId",
          "type": "uint256"
        }
      ],
      "stateMutability": "nonpayable",
      "type": "function"
    },
    {
      "inputs": [
        {
          "internalType": "bytes32",
          "name": "role",
          "type": "bytes32"
        },
        {
          "internalType": "address",
          "name": "account",
          "type": "address"
        }
      ],
      "name": "revokeRole",
      "outputs": [],
      "stateMutability": "nonpayable",
      "type": "function"
    },
    {
      "inputs": [
        {
          "internalType": "bytes4",
          "name": "interfaceId",
          "type": "bytes4"
        }
      ],
      "name": "supportsInterface",
      "outputs": [
        {
          "internalType": "bool",
          "name": "",
          "type": "bool"
        }
      ],
      "stateMutability": "view",
      "type": "function"
    },
    {
      "inputs": [],
      "name": "totalCitizensVitalized",
      "outputs": [
        {
          "internalType": "uint256",
          "name": "",
          "type": "uint256"
        }
      ],
      "stateMutability": "view",
      "type": "function"
    },
    {
      "inputs": [],
      "name": "totalDeposited",
      "outputs": [
        {
          "internalType": "uint256",
          "name": "",
          "type": "uint256"
        }
      ],
      "stateMutability": "view",
      "type": "function"
    },
    {
      "inputs": [],
      "name": "totalReleased",
      "outputs": [
        {
          "internalType": "uint256",
          "name": "",
          "type": "uint256"
        }
      ],
      "stateMutability": "view",
      "type": "function"
    },
    {
      "inputs": [],
      "name": "vidaToken",
      "outputs": [
        {
          "internalType": "contract IERC20",
          "name": "",
          "type": "address"
        }
      ],
      "stateMutability": "view",
      "type": "function"
    },
    {
      "inputs": [],
      "name": "viewBalance",
      "outputs": [
        {
          "internalType": "uint256",
          "name": "",
          "type": "uint256"
        }
      ],
      "stateMutability": "view",
      "type": "function"
    }
  ],
  "bytecode": "0x60a06040523480156200001157600080fd5b5060405162001e9138038062001e9183398101604081905262000034916200022f565b600180556001600160a01b038216620000a85760405162461bcd60e51b815260206004820152602b60248201527f4e6174696f6e616c426c6f636b4e473a205649444120746f6b656e206973207a60448201526a65726f206164647265737360a81b60648201526084015b60405180910390fd5b6001600160a01b038116620001135760405162461bcd60e51b815260206004820152602a60248201527f4e6174696f6e616c426c6f636b4e473a20617263686974656374206973207a65604482015269726f206164647265737360b01b60648201526084016200009f565b6001600160a01b0382166080526200012d60008262000163565b506200015a7fd81d72b65535f1777b4b20777e5306dade95bd1fde525ef999f6bd610befc1d48262000163565b50505062000267565b6000828152602081815260408083206001600160a01b038516845290915281205460ff1662000208576000838152602081815260408083206001600160a01b03861684529091529020805460ff19166001179055620001bf3390565b6001600160a01b0316826001600160a01b0316847f2f8788117e7eff1d82e926ec794901d17c78024a50270940304540a733656f0d60405160405180910390a45060016200020c565b5060005b92915050565b80516001600160a01b03811681146200022a57600080fd5b919050565b600080604083850312156200024357600080fd5b6200024e8362000212565b91506200025e6020840162000212565b90509250929050565b608051611beb620002a6600039600081816103e5015281816108640152818161095401528181610e2d0152818161103a01526111e20152611beb6000f3fe608060405234801561001057600080fd5b50600436106101a85760003560e01c806391d14854116100f9578063d547741f11610097578063e33b7de311610071578063e33b7de3146103c4578063f0ce9cb8146103cd578063fdb014e3146103e0578063ff50abdc1461041f57600080fd5b8063d547741f14610378578063d9ba5cfb1461038b578063dc3879421461039457600080fd5b8063a9660d00116100d3578063a9660d0014610317578063b87d8f981461033f578063bb015b5a14610352578063c95ddea21461036557600080fd5b806391d14854146102e757806395d11513146102fa578063a217fddf1461030f57600080fd5b80632f2ff15d1161016657806355912f241161014057806355912f24146102a357806369245ad7146102b85780636a84a985146102cb57806385cbabb4146102d457600080fd5b80632f2ff15d1461027557806336568abe146102885780633ff1e05b1461029b57600080fd5b8062b56221146101ad57806301ffc9a7146101c257806313430d92146101ea5780631bd2cea11461021f578063248a9ca314610232578063293a31d314610255575b600080fd5b6101c06101bb366004611538565b610428565b005b6101d56101d036600461155a565b610491565b60405190151581526020015b60405180910390f35b6102117f0e58f09080507613e45c927895fdc351ce79a3743ce0a3e127396951be78d0a981565b6040519081526020016101e1565b6101c061022d366004611584565b6104c8565b610211610240366004611584565b60009081526020819052604090206001015490565b610268610263366004611584565b6105e7565b6040516101e191906115e3565b6101c0610283366004611693565b6107e9565b6101c0610296366004611693565b610814565b61021161084c565b610211600080516020611b9683398151915281565b6101c06102c6366004611538565b6108dc565b61021160065481565b6102116102e2366004611708565b61091e565b6101d56102f5366004611693565b610c43565b610211600080516020611b7683398151915281565b610211600081565b61032a610325366004611584565b610c6c565b6040516101e199989796959493929190611782565b6101c061034d3660046117f2565b610dd6565b6101c0610360366004611693565b610ec5565b6101c0610373366004611814565b6110b4565b6101c0610386366004611693565b611195565b61021160045481565b61039c6111ba565b604080519586526020860194909452928401919091526060830152608082015260a0016101e1565b61021160035481565b6101d56103db366004611538565b611288565b6104077f000000000000000000000000000000000000000000000000000000000000000081565b6040516001600160a01b0390911681526020016101e1565b61021160025481565b600080516020611b76833981519152610440816112a2565b610458600080516020611b96833981519152836112af565b506040516001600160a01b038316907fd528677b54b9c1a159ac03282631d0566babca97f673032464fb33c295be902e90600090a25050565b60006001600160e01b03198216637965db0b60e01b14806104c257506301ffc9a760e01b6001600160e01b03198316145b92915050565b600080516020611b768339815191526104e0816112a2565b6000828152600560205260409020805483146105175760405162461bcd60e51b815260040161050e90611867565b60405180910390fd5b600581015460ff16156105765760405162461bcd60e51b815260206004820152602160248201527f4e6174696f6e616c426c6f636b4e473a20616c726561647920617070726f76656044820152601960fa1b606482015260840161050e565b6005810154610100900460ff16156105a05760405162461bcd60e51b815260040161050e906118ae565b60058101805460ff19166001179055426007820155604051339084907f492f404869834bbfb3dfd354d8ebd27ca988aa59eda4724d2e604400e1635df090600090a3505050565b6106436040518061012001604052806000815260200160006001600160a01b0316815260200160008152602001606081526020016060815260200160001515815260200160001515815260200160008152602001600081525090565b6000828152600560209081526040918290208251610120810184528154815260018201546001600160a01b03169281019290925260028101549282019290925260038201805491929160608401919061069b906118ef565b80601f01602080910402602001604051908101604052809291908181526020018280546106c7906118ef565b80156107145780601f106106e957610100808354040283529160200191610714565b820191906000526020600020905b8154815290600101906020018083116106f757829003601f168201915b5050505050815260200160048201805461072d906118ef565b80601f0160208091040260200160405190810160405280929190818152602001828054610759906118ef565b80156107a65780601f1061077b576101008083540402835291602001916107a6565b820191906000526020600020905b81548152906001019060200180831161078957829003601f168201915b5050509183525050600582015460ff8082161515602084015261010090910416151560408201526006820154606082015260079091015460809091015292915050565b600082815260208190526040902060010154610804816112a2565b61080e8383611322565b50505050565b6001600160a01b038116331461083d5760405163334bd91960e11b815260040160405180910390fd5b61084782826112af565b505050565b6040516370a0823160e01b81523060048201526000907f00000000000000000000000000000000000000000000000000000000000000006001600160a01b0316906370a0823190602401602060405180830381865afa1580156108b3573d6000803e3d6000fd5b505050506040513d601f19601f820116820180604052508101906108d79190611929565b905090565b600080516020611b768339815191526108f4816112a2565b6108477f0e58f09080507613e45c927895fdc351ce79a3743ce0a3e127396951be78d0a983611322565b600080861161093f5760405162461bcd60e51b815260040161050e90611942565b6040516370a0823160e01b81523060048201527f00000000000000000000000000000000000000000000000000000000000000006001600160a01b0316906370a0823190602401602060405180830381865afa1580156109a3573d6000803e3d6000fd5b505050506040513d601f19601f820116820180604052508101906109c79190611929565b861115610a245760405162461bcd60e51b815260206004820152602560248201527f4e6174696f6e616c426c6f636b4e473a20696e73756666696369656e742062616044820152646c616e636560d81b606482015260840161050e565b83610a805760405162461bcd60e51b815260206004820152602660248201527f4e6174696f6e616c426c6f636b4e473a2070726f6a656374206e616d652072656044820152651c5d5a5c995960d21b606482015260840161050e565b60068054906000610a908361199b565b919050559050604051806101200160405280828152602001336001600160a01b0316815260200187815260200186868080601f016020809104026020016040519081016040528093929190818152602001838380828437600092019190915250505090825250604080516020601f870181900481028201810190925285815291810191908690869081908401838280828437600092018290525093855250505060208083018290526040808401839052426060808601919091526080909401839052858352600582529182902084518155908401516001820180546001600160a01b0319166001600160a01b03909216919091179055908301516002820155908201516003820190610ba29082611a18565b5060808201516004820190610bb79082611a18565b5060a082015160058201805460c085015161ffff1990911692151561ff00191692909217610100921515830217905560e0830151600683015590910151600790910155604051339082907f0baa8b224a953d40156114c31cc0413ca588736dc379a532c3db9deef443b7ce90610c32908a908a908a90611b01565b60405180910390a395945050505050565b6000918252602082815260408084206001600160a01b0393909316845291905290205460ff1690565b600560205260009081526040902080546001820154600283015460038401805493946001600160a01b0390931693919291610ca6906118ef565b80601f0160208091040260200160405190810160405280929190818152602001828054610cd2906118ef565b8015610d1f5780601f10610cf457610100808354040283529160200191610d1f565b820191906000526020600020905b815481529060010190602001808311610d0257829003601f168201915b505050505090806004018054610d34906118ef565b80601f0160208091040260200160405190810160405280929190818152602001828054610d60906118ef565b8015610dad5780601f10610d8257610100808354040283529160200191610dad565b820191906000526020600020905b815481529060010190602001808311610d9057829003601f168201915b50505060058401546006850154600790950154939460ff80831695610100909304169350915089565b7f0e58f09080507613e45c927895fdc351ce79a3743ce0a3e127396951be78d0a9610e00816112a2565b60008311610e205760405162461bcd60e51b815260040161050e90611942565b610e556001600160a01b037f0000000000000000000000000000000000000000000000000000000000000000163330866113ac565b8260026000828254610e679190611b24565b925050819055508160046000828254610e809190611b24565b9091555050604080518481526020810184905233917f17164ba6d2425cedcc107c5b2021f245e66a5708902ba7e0fbc1ab4a7c317722910160405180910390a2505050565b600080516020611b76833981519152610edd816112a2565b610ee5611413565b600083815260056020526040902080548414610f135760405162461bcd60e51b815260040161050e90611867565b600581015460ff16610f675760405162461bcd60e51b815260206004820152601d60248201527f4e6174696f6e616c426c6f636b4e473a206e6f7420617070726f766564000000604482015260640161050e565b6005810154610100900460ff1615610f915760405162461bcd60e51b815260040161050e906118ae565b6001600160a01b038316610ffa5760405162461bcd60e51b815260206004820152602a60248201527f4e6174696f6e616c426c6f636b4e473a20726563697069656e74206973207a65604482015269726f206164647265737360b01b606482015260840161050e565b60058101805461ff001916610100179055600281015460038054600090611022908490611b24565b90915550506002810154611062906001600160a01b037f00000000000000000000000000000000000000000000000000000000000000001690859061143d565b826001600160a01b0316847fc951bd951e410cab64ebb6d00f4c9e158119ab3c5d9f61eba24d35e8d12fae9083600201546040516110a291815260200190565b60405180910390a35061084760018055565b600080516020611b768339815191526110cc816112a2565b6001600160a01b0384166111335760405162461bcd60e51b815260206004820152602860248201527f4e6174696f6e616c426c6f636b4e473a20706172746e6572206973207a65726f604482015267206164647265737360c01b606482015260840161050e565b61114b600080516020611b9683398151915285611322565b50836001600160a01b03167f2826c81823771afc5b7fbb726fcde5a92c8a0eb1f2641fe3694bed9db165d3d28484604051611187929190611b37565b60405180910390a250505050565b6000828152602081905260409020600101546111b0816112a2565b61080e83836112af565b6040516370a0823160e01b815230600482015260009081908190819081906001600160a01b037f000000000000000000000000000000000000000000000000000000000000000016906370a0823190602401602060405180830381865afa158015611229573d6000803e3d6000fd5b505050506040513d601f19601f8201168201806040525081019061124d9190611929565b945060025493506003549250600454915060006004541161126f57600061127f565b60045460025461127f9190611b53565b90509091929394565b60006104c2600080516020611b9683398151915283610c43565b6112ac813361146e565b50565b60006112bb8383610c43565b1561131a576000838152602081815260408083206001600160a01b0386168085529252808320805460ff1916905551339286917ff6391f5c32d9c69d2a47ea670b442974b53935d1edc7fd64eb21e047a839171b9190a45060016104c2565b5060006104c2565b600061132e8383610c43565b61131a576000838152602081815260408083206001600160a01b03861684529091529020805460ff191660011790556113643390565b6001600160a01b0316826001600160a01b0316847f2f8788117e7eff1d82e926ec794901d17c78024a50270940304540a733656f0d60405160405180910390a45060016104c2565b6040516001600160a01b03848116602483015283811660448301526064820183905261080e9186918216906323b872dd906084015b604051602081830303815290604052915060e01b6020820180516001600160e01b0383818316178352505050506114ab565b60026001540361143657604051633ee5aeb560e01b815260040160405180910390fd5b6002600155565b6040516001600160a01b0383811660248301526044820183905261084791859182169063a9059cbb906064016113e1565b6114788282610c43565b6114a75760405163e2517d3f60e01b81526001600160a01b03821660048201526024810183905260440161050e565b5050565b600080602060008451602086016000885af1806114ce576040513d6000823e3d81fd5b50506000513d915081156114e65780600114156114f3565b6001600160a01b0384163b155b1561080e57604051635274afe760e01b81526001600160a01b038516600482015260240161050e565b80356001600160a01b038116811461153357600080fd5b919050565b60006020828403121561154a57600080fd5b6115538261151c565b9392505050565b60006020828403121561156c57600080fd5b81356001600160e01b03198116811461155357600080fd5b60006020828403121561159657600080fd5b5035919050565b6000815180845260005b818110156115c3576020818501810151868301820152016115a7565b506000602082860101526020601f19601f83011685010191505092915050565b60208152815160208201526000602083015161160a60408401826001600160a01b03169052565b5060408301516060830152606083015161012080608085015261163161014085018361159d565b91506080850151601f198584030160a086015261164e838261159d565b92505060a085015161166460c086018215159052565b5060c085015180151560e08601525060e085015161010085810191909152909401519390920192909252919050565b600080604083850312156116a657600080fd5b823591506116b66020840161151c565b90509250929050565b60008083601f8401126116d157600080fd5b50813567ffffffffffffffff8111156116e957600080fd5b60208301915083602082850101111561170157600080fd5b9250929050565b60008060008060006060868803121561172057600080fd5b85359450602086013567ffffffffffffffff8082111561173f57600080fd5b61174b89838a016116bf565b9096509450604088013591508082111561176457600080fd5b50611771888289016116bf565b969995985093965092949392505050565b8981526001600160a01b038916602082015260408101889052610120606082018190526000906117b48382018a61159d565b905082810360808401526117c8818961159d565b96151560a0840152505092151560c084015260e08301919091526101009091015295945050505050565b6000806040838503121561180557600080fd5b50508035926020909101359150565b60008060006040848603121561182957600080fd5b6118328461151c565b9250602084013567ffffffffffffffff81111561184e57600080fd5b61185a868287016116bf565b9497909650939450505050565b60208082526027908201527f4e6174696f6e616c426c6f636b4e473a207265717565737420646f6573206e6f6040820152661d08195e1a5cdd60ca1b606082015260800190565b60208082526021908201527f4e6174696f6e616c426c6f636b4e473a20616c726561647920657865637574656040820152601960fa1b606082015260800190565b600181811c9082168061190357607f821691505b60208210810361192357634e487b7160e01b600052602260045260246000fd5b50919050565b60006020828403121561193b57600080fd5b5051919050565b60208082526023908201527f4e6174696f6e616c426c6f636b4e473a20616d6f756e74206d7573742062652060408201526203e20360ec1b606082015260800190565b634e487b7160e01b600052601160045260246000fd5b6000600182016119ad576119ad611985565b5060010190565b634e487b7160e01b600052604160045260246000fd5b601f82111561084757600081815260208120601f850160051c810160208610156119f15750805b601f850160051c820191505b81811015611a10578281556001016119fd565b505050505050565b815167ffffffffffffffff811115611a3257611a326119b4565b611a4681611a4084546118ef565b846119ca565b602080601f831160018114611a7b5760008415611a635750858301515b600019600386901b1c1916600185901b178555611a10565b600085815260208120601f198616915b82811015611aaa57888601518255948401946001909101908401611a8b565b5085821015611ac85787850151600019600388901b60f8161c191681555b5050505050600190811b01905550565b81835281816020850137506000828201602090810191909152601f909101601f19169091010190565b838152604060208201526000611b1b604083018486611ad8565b95945050505050565b808201808211156104c2576104c2611985565b602081526000611b4b602083018486611ad8565b949350505050565b600082611b7057634e487b7160e01b600052601260045260246000fd5b50049056fed81d72b65535f1777b4b20777e5306dade95bd1fde525ef999f6bd610befc1d47418232f5f6f6f8a69ef4e891bedc1b1a9c57ec59fbf4bf6d7f98ff971ffb70aa2646970667358221220aab5c5d751f0f6c8aa70833a33c7f28a2162b4db4c833da8db524e78a9c3a6ae64736f6c63430008140033",
  "linkReferences": {},
  "deployedLinkReferences": {}
}