{
  "_format": "hh-sol-artifact-1",
  "contractName": "FoundationVault",
  "sourceName": "contracts/FoundationVault.sol",
  "abi": [
    {
      "inputs": [
        {
          "internalType": "address",
          "name": "_vidaToken",
          "type": "address"
        },
        {
          "internalType": "address",
          "name": "_architect",
          "type": "address"
        }
      ],
      "stateMutability": "nonpayable",
      "type": "constructor"
    },
    {
      "inputs": [],
      "name": "AccessControlBadConfirmation",
      "type": "error"
    },
    {
      "inputs": [
        {
          "internalType": "address",
          "name": "account",
          "type": "address"
        },
        {
          "internalType": "bytes32",
          "name": "neededRole",
          "type": "bytes32"
        }
      ],
      "name": "AccessControlUnauthorizedAccount",
      "type": "error"
    },
    {
      "inputs": [],
      "name": "ReentrancyGuardReentrantCall",
      "type": "error"
    },
    {
      "inputs": [
        {
          "internalType": "address",
          "name": "token",
          "type": "address"
        }
      ],
      "name": "SafeERC20FailedOperation",
      "type": "error"
    },
    {
      "anonymous": false,
      "inputs": [
        {
          "indexed": true,
          "internalType": "address",
          "name": "partner",
          "type": "address"
        },
        {
          "indexed": false,
          "internalType": "string",
          "name": "bankName",
          "type": "string"
        }
      ],
      "name": "BankingPartnerAdded",
      "type": "event"
    },
    {
      "anonymous": false,
      "inputs": [
        {
          "indexed": true,
          "internalType": "address",
          "name": "partner",
          "type": "address"
        }
      ],
      "name": "BankingPartnerRemoved",
      "type": "event"
    },
    {
      "anonymous": false,
      "inputs": [
        {
          "indexed": true,
          "internalType": "uint256",
          "name": "lockId",
          "type": "uint256"
        },
        {
          "indexed": true,
          "internalType": "address",
          "name": "partner",
          "type": "address"
        },
        {
          "indexed": false,
          "internalType": "uint256",
          "name": "amount",
          "type": "uint256"
        },
        {
          "indexed": false,
          "internalType": "string",
          "name": "loanReference",
          "type": "string"
        }
      ],
      "name": "CollateralLocked",
      "type": "event"
    },
    {
      "anonymous": false,
      "inputs": [
        {
          "indexed": true,
          "internalType": "uint256",
          "name": "lockId",
          "type": "uint256"
        },
        {
          "indexed": true,
          "internalType": "address",
          "name": "partner",
          "type": "address"
        },
        {
          "indexed": false,
          "internalType": "uint256",
          "name": "amount",
          "type": "uint256"
        }
      ],
      "name": "CollateralReleased",
      "type": "event"
    },
    {
      "anonymous": false,
      "inputs": [
        {
          "indexed": true,
          "internalType": "bytes32",
          "name": "role",
          "type": "bytes32"
        },
        {
          "indexed": true,
          "internalType": "bytes32",
          "name": "previousAdminRole",
          "type": "bytes32"
        },
        {
          "indexed": true,
          "internalType": "bytes32",
          "name": "newAdminRole",
          "type": "bytes32"
        }
      ],
      "name": "RoleAdminChanged",
      "type": "event"
    },
    {
      "anonymous": false,
      "inputs": [
        {
          "indexed": true,
          "internalType": "bytes32",
          "name": "role",
          "type": "bytes32"
        },
        {
          "indexed": true,
          "internalType": "address",
          "name": "account",
          "type": "address"
        },
        {
          "indexed": true,
          "internalType": "address",
          "name": "sender",
          "type": "address"
        }
      ],
      "name": "RoleGranted",
      "type": "event"
    },
    {
      "anonymous": false,
      "inputs": [
        {
          "indexed": true,
          "internalType": "bytes32",
          "name": "role",
          "type": "bytes32"
        },
        {
          "indexed": true,
          "internalType": "address",
          "name": "account",
          "type": "address"
        },
        {
          "indexed": true,
          "internalType": "address",
          "name": "sender",
          "type": "address"
        }
      ],
      "name": "RoleRevoked",
      "type": "event"
    },
    {
      "anonymous": false,
      "inputs": [
        {
          "indexed": true,
          "internalType": "address",
          "name": "from",
          "type": "address"
        },
        {
          "indexed": false,
          "internalType": "uint256",
          "name": "amount",
          "type": "uint256"
        },
        {
          "indexed": false,
          "internalType": "string",
          "name": "source",
          "type": "string"
        }
      ],
      "name": "VidaDeposited",
      "type": "event"
    },
    {
      "inputs": [],
      "name": "ARCHITECT_ROLE",
      "outputs": [
        {
          "internalType": "bytes32",
          "name": "",
          "type": "bytes32"
        }
      ],
      "stateMutability": "view",
      "type": "function"
    },
    {
      "inputs": [],
      "name": "BANKING_PARTNER_ROLE",
      "outputs": [
        {
          "internalType": "bytes32",
          "name": "",
          "type": "bytes32"
        }
      ],
      "stateMutability": "view",
      "type": "function"
    },
    {
      "inputs": [],
      "name": "DEFAULT_ADMIN_ROLE",
      "outputs": [
        {
          "internalType": "bytes32",
          "name": "",
          "type": "bytes32"
        }
      ],
      "stateMutability": "view",
      "type": "function"
    },
    {
      "inputs": [],
      "name": "SENTINEL_ROLE",
      "outputs": [
        {
          "internalType": "bytes32",
          "name": "",
          "type": "bytes32"
        }
      ],
      "stateMutability": "view",
      "type": "function"
    },
    {
      "inputs": [
        {
          "internalType": "address",
          "name": "partner",
          "type": "address"
        },
        {
          "internalType": "string",
          "name": "bankName",
          "type": "string"
        }
      ],
      "name": "addBankingPartner",
      "outputs": [],
      "stateMutability": "nonpayable",
      "type": "function"
    },
    {
      "inputs": [],
      "name": "availableBalance",
      "outputs": [
        {
          "internalType": "uint256",
          "name": "",
          "type": "uint256"
        }
      ],
      "stateMutability": "view",
      "type": "function"
    },
    {
      "inputs": [
        {
          "internalType": "uint256",
          "name": "",
          "type": "uint256"
        }
      ],
      "name": "collateralLocks",
      "outputs": [
        {
          "internalType": "uint256",
          "name": "id",
          "type": "uint256"
        },
        {
          "internalType": "address",
          "name": "bankingPartner",
          "type": "address"
        },
        {
          "internalType": "uint256",
          "name": "amount",
          "type": "uint256"
        },
        {
          "internalType": "string",
          "name": "loanReference",
          "type": "string"
        },
        {
          "internalType": "string",
          "name": "purpose",
          "type": "string"
        },
        {
          "internalType": "bool",
          "name": "active",
          "type": "bool"
        },
        {
          "internalType": "uint256",
          "name": "lockedAt",
          "type": "uint256"
        },
        {
          "internalType": "uint256",
          "name": "releaseAt",
          "type": "uint256"
        }
      ],
      "stateMutability": "view",
      "type": "function"
    },
    {
      "inputs": [
        {
          "internalType": "uint256",
          "name": "amount",
          "type": "uint256"
        },
        {
          "internalType": "string",
          "name": "source",
          "type": "string"
        }
      ],
      "name": "depositVida",
      "outputs": [],
      "stateMutability": "nonpayable",
      "type": "function"
    },
    {
      "inputs": [
        {
          "internalType": "uint256",
          "name": "lockId",
          "type": "uint256"
        }
      ],
      "name": "getCollateralLock",
      "outputs": [
        {
          "components": [
            {
              "internalType": "uint256",
              "name": "id",
              "type": "uint256"
            },
            {
              "internalType": "address",
              "name": "bankingPartner",
              "type": "address"
            },
            {
              "internalType": "uint256",
              "name": "amount",
              "type": "uint256"
            },
            {
              "internalType": "string",
              "name": "loanReference",
              "type": "string"
            },
            {
              "internalType": "string",
              "name": "purpose",
              "type": "string"
            },
            {
              "internalType": "bool",
              "name": "active",
              "type": "bool"
            },
            {
              "internalType": "uint256",
              "name": "lockedAt",
              "type": "uint256"
            },
            {
              "internalType": "uint256",
              "name": "releaseAt",
              "type": "uint256"
            }
          ],
          "internalType": "struct FoundationVault.CollateralLock",
          "name": "",
          "type": "tuple"
        }
      ],
      "stateMutability": "view",
      "type": "function"
    },
    {
      "inputs": [
        {
          "internalType": "address",
          "name": "partner",
          "type": "address"
        }
      ],
      "name": "getPartnerActiveLocks",
      "outputs": [
        {
          "internalType": "uint256[]",
          "name": "activeLockIds",
          "type": "uint256[]"
        }
      ],
      "stateMutability": "view",
      "type": "function"
    },
    {
      "inputs": [
        {
          "internalType": "address",
          "name": "partner",
          "type": "address"
        }
      ],
      "name": "getPartnerLockedAmount",
      "outputs": [
        {
          "internalType": "uint256",
          "name": "totalLocked",
          "type": "uint256"
        }
      ],
      "stateMutability": "view",
      "type": "function"
    },
    {
      "inputs": [
        {
          "internalType": "bytes32",
          "name": "role",
          "type": "bytes32"
        }
      ],
      "name": "getRoleAdmin",
      "outputs": [
        {
          "internalType": "bytes32",
          "name": "",
          "type": "bytes32"
        }
      ],
      "stateMutability": "view",
      "type": "function"
    },
    {
      "inputs": [],
      "name": "getVaultMetrics",
      "outputs": [
        {
          "internalType": "uint256",
          "name": "total",
          "type": "uint256"
        },
        {
          "internalType": "uint256",
          "name": "available",
          "type": "uint256"
        },
        {
          "internalType": "uint256",
          "name": "locked",
          "type": "uint256"
        },
        {
          "internalType": "uint256",
          "name": "deposited",
          "type": "uint256"
        },
        {
          "internalType": "uint256",
          "name": "released",
          "type": "uint256"
        }
      ],
      "stateMutability": "view",
      "type": "function"
    },
    {
      "inputs": [
        {
          "internalType": "bytes32",
          "name": "role",
          "type": "bytes32"
        },
        {
          "internalType": "address",
          "name": "account",
          "type": "address"
        }
      ],
      "name": "grantRole",
      "outputs": [],
      "stateMutability": "nonpayable",
      "type": "function"
    },
    {
      "inputs": [
        {
          "internalType": "address",
          "name": "sentinel",
          "type": "address"
        }
      ],
      "name": "grantSentinelRole",
      "outputs": [],
      "stateMutability": "nonpayable",
      "type": "function"
    },
    {
      "inputs": [
        {
          "internalType": "bytes32",
          "name": "role",
          "type": "bytes32"
        },
        {
          "internalType": "address",
          "name": "account",
          "type": "address"
        }
      ],
      "name": "hasRole",
      "outputs": [
        {
          "internalType": "bool",
          "name": "",
          "type": "bool"
        }
      ],
      "stateMutability": "view",
      "type": "function"
    },
    {
      "inputs": [
        {
          "internalType": "address",
          "name": "account",
          "type": "address"
        }
      ],
      "name": "isBankingPartner",
      "outputs": [
        {
          "internalType": "bool",
          "name": "",
          "type": "bool"
        }
      ],
      "stateMutability": "view",
      "type": "function"
    },
    {
      "inputs": [
        {
          "internalType": "address",
          "name": "bankingPartner",
          "type": "address"
        },
        {
          "internalType": "uint256",
          "name": "amount",
          "type": "uint256"
        },
        {
          "internalType": "string",
          "name": "loanReference",
          "type": "string"
        },
        {
          "internalType": "string",
          "name": "purpose",
          "type": "string"
        },
        {
          "internalType": "uint256",
          "name": "lockDurationDays",
          "type": "uint256"
        }
      ],
      "name": "lockForCollateral",
      "outputs": [
        {
          "internalType": "uint256",
          "name": "lockId",
          "type": "uint256"
        }
      ],
      "stateMutability": "nonpayable",
      "type": "function"
    },
    {
      "inputs": [],
      "name": "nextLockId",
      "outputs": [
        {
          "internalType": "uint256",
          "name": "",
          "type": "uint256"
        }
      ],
      "stateMutability": "view",
      "type": "function"
    },
    {
      "inputs": [
        {
          "internalType": "address",
          "name": "",
          "type": "address"
        },
        {
          "internalType": "uint256",
          "name": "",
          "type": "uint256"
        }
      ],
      "name": "partnerLocks",
      "outputs": [
        {
          "internalType": "uint256",
          "name": "",
          "type": "uint256"
        }
      ],
      "stateMutability": "view",
      "type": "function"
    },
    {
      "inputs": [
        {
          "internalType": "uint256",
          "name": "lockId",
          "type": "uint256"
        }
      ],
      "name": "releaseCollateral",
      "outputs": [],
      "stateMutability": "nonpayable",
      "type": "function"
    },
    {
      "inputs": [
        {
          "internalType": "address",
          "name": "partner",
          "type": "address"
        }
      ],
      "name": "removeBankingPartner",
      "outputs": [],
      "stateMutability": "nonpayable",
      "type": "function"
    },
    {
      "inputs": [
        {
          "internalType": "bytes32",
          "name": "role",
          "type": "bytes32"
        },
        {
          "internalType": "address",
          "name": "callerConfirmation",
          "type": "address"
        }
      ],
      "name": "renounceRole",
      "outputs": [],
      "stateMutability": "nonpayable",
      "type": "function"
    },
    {
      "inputs": [
        {
          "internalType": "bytes32",
          "name": "role",
          "type": "bytes32"
        },
        {
          "internalType": "address",
          "name": "account",
          "type": "address"
        }
      ],
      "name": "revokeRole",
      "outputs": [],
      "stateMutability": "nonpayable",
      "type": "function"
    },
    {
      "inputs": [
        {
          "internalType": "bytes4",
          "name": "interfaceId",
          "type": "bytes4"
        }
      ],
      "name": "supportsInterface",
      "outputs": [
        {
          "internalType": "bool",
          "name": "",
          "type": "bool"
        }
      ],
      "stateMutability": "view",
      "type": "function"
    },
    {
      "inputs": [],
      "name": "totalBalance",
      "outputs": [
        {
          "internalType": "uint256",
          "name": "",
          "type": "uint256"
        }
      ],
      "stateMutability": "view",
      "type": "function"
    },
    {
      "inputs": [],
      "name": "totalDeposited",
      "outputs": [
        {
          "internalType": "uint256",
          "name": "",
          "type": "uint256"
        }
      ],
      "stateMutability": "view",
      "type": "function"
    },
    {
      "inputs": [],
      "name": "totalLockedCollateral",
      "outputs": [
        {
          "internalType": "uint256",
          "name": "",
          "type": "uint256"
        }
      ],
      "stateMutability": "view",
      "type": "function"
    },
    {
      "inputs": [],
      "name": "totalReleasedCollateral",
      "outputs": [
        {
          "internalType": "uint256",
          "name": "",
          "type": "uint256"
        }
      ],
      "stateMutability": "view",
      "type": "function"
    },
    {
      "inputs": [
        {
          "internalType": "uint256",
          "name": "lockId",
          "type": "uint256"
        }
      ],
      "name": "verifyCollateral",
      "outputs": [
        {
          "components": [
            {
              "internalType": "uint256",
              "name": "id",
              "type": "uint256"
            },
            {
              "internalType": "address",
              "name": "bankingPartner",
              "type": "address"
            },
            {
              "internalType": "uint256",
              "name": "amount",
              "type": "uint256"
            },
            {
              "internalType": "string",
              "name": "loanReference",
              "type": "string"
            },
            {
              "internalType": "string",
              "name": "purpose",
              "type": "string"
            },
            {
              "internalType": "bool",
              "name": "active",
              "type": "bool"
            },
            {
              "internalType": "uint256",
              "name": "lockedAt",
              "type": "uint256"
            },
            {
              "internalType": "uint256",
              "name": "releaseAt",
              "type": "uint256"
            }
          ],
          "internalType": "struct FoundationVault.CollateralLock",
          "name": "lock",
          "type": "tuple"
        },
        {
          "internalType": "bool",
          "name": "isValid",
          "type": "bool"
        }
      ],
      "stateMutability": "view",
      "type": "function"
    },
    {
      "inputs": [],
      "name": "vidaToken",
      "outputs": [
        {
          "internalType": "contract IERC20",
          "name": "",
          "type": "address"
        }
      ],
      "stateMutability": "view",
      "type": "function"
    }
  ],
  "bytecode": "0x60a06040523480156200001157600080fd5b506040516200248f3803806200248f83398101604081905262000034916200022f565b600180556001600160a01b038216620000a85760405162461bcd60e51b815260206004820152602b60248201527f466f756e646174696f6e5661756c743a205649444120746f6b656e206973207a60448201526a65726f206164647265737360a81b60648201526084015b60405180910390fd5b6001600160a01b038116620001135760405162461bcd60e51b815260206004820152602a60248201527f466f756e646174696f6e5661756c743a20617263686974656374206973207a65604482015269726f206164647265737360b01b60648201526084016200009f565b6001600160a01b0382166080526200012d60008262000163565b506200015a7fd81d72b65535f1777b4b20777e5306dade95bd1fde525ef999f6bd610befc1d48262000163565b50505062000267565b6000828152602081815260408083206001600160a01b038516845290915281205460ff1662000208576000838152602081815260408083206001600160a01b03861684529091529020805460ff19166001179055620001bf3390565b6001600160a01b0316826001600160a01b0316847f2f8788117e7eff1d82e926ec794901d17c78024a50270940304540a733656f0d60405160405180910390a45060016200020c565b5060005b92915050565b80516001600160a01b03811681146200022a57600080fd5b919050565b600080604083850312156200024357600080fd5b6200024e8362000212565b91506200025e6020840162000212565b90509250929050565b6080516121f06200029f6000396000818161044c01528181610b7c01528181610c240152818161155a015261179501526121f06000f3fe608060405234801561001057600080fd5b50600436106101e45760003560e01c806395d115131161010f578063d837daae116100a2578063fc35b1f411610071578063fc35b1f414610427578063fdb014e314610447578063ff50abdc14610486578063ff6adfa41461048f57600080fd5b8063d837daae146103c7578063e5729df4146103ee578063f0ce9cb814610401578063f2c2a9791461041457600080fd5b8063b19c0e5d116100de578063b19c0e5d14610385578063babbd7431461038e578063c95ddea2146103a1578063d547741f146103b457600080fd5b806395d1151314610358578063a217fddf1461036d578063ab2f0e5114610375578063ad7a672f1461037d57600080fd5b806339007b771161018757806369245ad71161015657806369245ad7146102f1578063806815bd1461030457806383962ecc1461032557806391d148541461034557600080fd5b806339007b77146102ad5780635110d8f2146102c057806355912f24146102d35780636518a0b3146102e857600080fd5b806313430d92116101c357806313430d921461023d578063248a9ca3146102645780632f2ff15d1461028757806336568abe1461029a57600080fd5b8062b56221146101e957806301ffc9a7146101fe57806302ae598f14610226575b600080fd5b6101fc6101f7366004611ac6565b6104bf565b005b61021161020c366004611ae8565b610528565b60405190151581526020015b60405180910390f35b61022f60045481565b60405190815260200161021d565b61022f7f0e58f09080507613e45c927895fdc351ce79a3743ce0a3e127396951be78d0a981565b61022f610272366004611b12565b60009081526020819052604090206001015490565b6101fc610295366004611b2b565b61055f565b6101fc6102a8366004611b2b565b61058a565b6101fc6102bb366004611b12565b6105c2565b61022f6102ce366004611b57565b610751565b61022f60008051602061219b83398151915281565b61022f60075481565b6101fc6102ff366004611ac6565b610782565b610317610312366004611b12565b6107c4565b60405161021d929190611c4a565b610338610333366004611ac6565b610973565b60405161021d9190611c6e565b610211610353366004611b2b565b610b31565b61022f60008051602061217b83398151915281565b61022f600081565b61022f610b5a565b61022f610c0c565b61022f60035481565b61022f61039c366004611cfb565b610c9c565b6101fc6103af366004611d8e565b611053565b6101fc6103c2366004611b2b565b6110f3565b6103da6103d5366004611b12565b611118565b60405161021d989796959493929190611de1565b61022f6103fc366004611ac6565b61127b565b61021161040f366004611ac6565b6114e9565b6101fc610422366004611e48565b611503565b61043a610435366004611b12565b6115cf565b60405161021d9190611e7b565b61046e7f000000000000000000000000000000000000000000000000000000000000000081565b6040516001600160a01b03909116815260200161021d565b61022f60025481565b61049761176d565b604080519586526020860194909452928401919091526060830152608082015260a00161021d565b60008051602061217b8339815191526104d781611822565b6104ef60008051602061219b8339815191528361182f565b506040516001600160a01b038316907fd528677b54b9c1a159ac03282631d0566babca97f673032464fb33c295be902e90600090a25050565b60006001600160e01b03198216637965db0b60e01b148061055957506301ffc9a760e01b6001600160e01b03198316145b92915050565b60008281526020819052604090206001015461057a81611822565b61058483836118a2565b50505050565b6001600160a01b03811633146105b35760405163334bd91960e11b815260040160405180910390fd5b6105bd828261182f565b505050565b60008051602061217b8339815191526105da81611822565b6105e261192c565b6000828152600560205260409020805483146106515760405162461bcd60e51b8152602060048201526024808201527f466f756e646174696f6e5661756c743a206c6f636b20646f6573206e6f7420656044820152631e1a5cdd60e21b60648201526084015b60405180910390fd5b600581015460ff166106b45760405162461bcd60e51b815260206004820152602660248201527f466f756e646174696f6e5661756c743a206c6f636b20616c72656164792072656044820152651b19585cd95960d21b6064820152608401610648565b60058101805460ff191690556002810154600380546000906106d7908490611ea4565b90915550506002810154600480546000906106f3908490611eb7565b9091555050600181015460028201546040519081526001600160a01b039091169084907f757b323b5139c5e30fe0a1c4b13e38dece5aad9273138c1e3d1ed9191c6e73b29060200160405180910390a35061074d60018055565b5050565b6006602052816000526040600020818154811061076d57600080fd5b90600052602060002001600091509150505481565b60008051602061217b83398151915261079a81611822565b6105bd7f0e58f09080507613e45c927895fdc351ce79a3743ce0a3e127396951be78d0a9836118a2565b6107cc611a5a565b60008281526005602090815260408083208151610100810183528154815260018201546001600160a01b03169381019390935260028101549183019190915260038101805460608401919061082090611eca565b80601f016020809104026020016040519081016040528092919081815260200182805461084c90611eca565b80156108995780601f1061086e57610100808354040283529160200191610899565b820191906000526020600020905b81548152906001019060200180831161087c57829003601f168201915b505050505081526020016004820180546108b290611eca565b80601f01602080910402602001604051908101604052809291908181526020018280546108de90611eca565b801561092b5780601f106109005761010080835404028352916020019161092b565b820191906000526020600020905b81548152906001019060200180831161090e57829003601f168201915b5050509183525050600582015460ff16151560208201526006820154604082015260079091015460609091015260a0810151909250801561096c5750815183145b9050915091565b6001600160a01b03811660009081526006602090815260408083208054825181850281018501909352808352606094938301828280156109d257602002820191906000526020600020905b8154815260200190600101908083116109be575b505050505090506000805b8251811015610a4257600560008483815181106109fc576109fc611f04565b60209081029190910181015182528101919091526040016000206005015460ff1615610a305781610a2c81611f1a565b9250505b80610a3a81611f1a565b9150506109dd565b508067ffffffffffffffff811115610a5c57610a5c611f33565b604051908082528060200260200182016040528015610a85578160200160208202803683370190505b5092506000805b8351811015610b285760056000858381518110610aab57610aab611f04565b60209081029190910181015182528101919091526040016000206005015460ff1615610b1657838181518110610ae357610ae3611f04565b6020026020010151858381518110610afd57610afd611f04565b602090810291909101015281610b1281611f1a565b9250505b80610b2081611f1a565b915050610a8c565b50505050919050565b6000918252602082815260408084206001600160a01b0393909316845291905290205460ff1690565b6040516370a0823160e01b815230600482015260009081906001600160a01b037f000000000000000000000000000000000000000000000000000000000000000016906370a0823190602401602060405180830381865afa158015610bc3573d6000803e3d6000fd5b505050506040513d601f19601f82011682018060405250810190610be79190611f49565b90506003548111610bf9576000610c06565b600354610c069082611ea4565b91505090565b6040516370a0823160e01b81523060048201526000907f00000000000000000000000000000000000000000000000000000000000000006001600160a01b0316906370a0823190602401602060405180830381865afa158015610c73573d6000803e3d6000fd5b505050506040513d601f19601f82011682018060405250810190610c979190611f49565b905090565b600060008051602061217b833981519152610cb681611822565b6001600160a01b038916610cdc5760405162461bcd60e51b815260040161064890611f62565b60008811610cfc5760405162461bcd60e51b815260040161064890611faa565b610d04610b5a565b881115610d6b5760405162461bcd60e51b815260206004820152602f60248201527f466f756e646174696f6e5661756c743a20696e73756666696369656e7420617660448201526e61696c61626c652062616c616e636560881b6064820152608401610648565b610d8360008051602061219b8339815191528a610b31565b610dde5760405162461bcd60e51b815260206004820152602660248201527f466f756e646174696f6e5661756c743a206e6f7420612062616e6b696e67207060448201526530b93a3732b960d11b6064820152608401610648565b85610e3c5760405162461bcd60e51b815260206004820152602860248201527f466f756e646174696f6e5661756c743a206c6f616e207265666572656e6365206044820152671c995c5d5a5c995960c21b6064820152608401610648565b60078054906000610e4c83611f1a565b9091555091506000610e618462015180611fed565b610e6b9042611eb7565b90506040518061010001604052808481526020018b6001600160a01b031681526020018a815260200189898080601f016020809104026020016040519081016040528093929190818152602001838380828437600092019190915250505090825250604080516020601f8a018190048102820181019092528881529181019190899089908190840183828082843760009201829052509385525050600160208085018290524260408087019190915260609586018890528985526005825293849020865181559086015191810180546001600160a01b0319166001600160a01b039093169290921790915591840151600283015550908201516003820190610f739082612052565b5060808201516004820190610f889082612052565b5060a082015160058201805460ff191691151591909117905560c082015160068083019190915560e0909201516007909101556001600160a01b038b1660009081526020918252604081208054600181018255908252918120909101849055600380548b9290610ff9908490611eb7565b92505081905550896001600160a01b0316837f56348e91a70e6b4c13c48913ce16f2229aa6eae77a9c8c920b79549a42737ef48b8b8b60405161103e9392919061213b565b60405180910390a35050979650505050505050565b60008051602061217b83398151915261106b81611822565b6001600160a01b0384166110915760405162461bcd60e51b815260040161064890611f62565b6110a960008051602061219b833981519152856118a2565b50836001600160a01b03167f2826c81823771afc5b7fbb726fcde5a92c8a0eb1f2641fe3694bed9db165d3d284846040516110e592919061215e565b60405180910390a250505050565b60008281526020819052604090206001015461110e81611822565b610584838361182f565b600560205260009081526040902080546001820154600283015460038401805493946001600160a01b039093169391929161115290611eca565b80601f016020809104026020016040519081016040528092919081815260200182805461117e90611eca565b80156111cb5780601f106111a0576101008083540402835291602001916111cb565b820191906000526020600020905b8154815290600101906020018083116111ae57829003601f168201915b5050505050908060040180546111e090611eca565b80601f016020809104026020016040519081016040528092919081815260200182805461120c90611eca565b80156112595780601f1061122e57610100808354040283529160200191611259565b820191906000526020600020905b81548152906001019060200180831161123c57829003601f168201915b5050505060058301546006840154600790940154929360ff9091169290915088565b6001600160a01b0381166000908152600660209081526040808320805482518185028101850190935280835284938301828280156112d857602002820191906000526020600020905b8154815260200190600101908083116112c4575b5050505050905060005b81518110156114e25760006005600084848151811061130357611303611f04565b6020026020010151815260200190815260200160002060405180610100016040529081600082015481526020016001820160009054906101000a90046001600160a01b03166001600160a01b03166001600160a01b031681526020016002820154815260200160038201805461137890611eca565b80601f01602080910402602001604051908101604052809291908181526020018280546113a490611eca565b80156113f15780601f106113c6576101008083540402835291602001916113f1565b820191906000526020600020905b8154815290600101906020018083116113d457829003601f168201915b5050505050815260200160048201805461140a90611eca565b80601f016020809104026020016040519081016040528092919081815260200182805461143690611eca565b80156114835780601f1061145857610100808354040283529160200191611483565b820191906000526020600020905b81548152906001019060200180831161146657829003601f168201915b5050509183525050600582015460ff16151560208201526006820154604082015260079091015460609091015260a0810151909150156114cf5760408101516114cc9085611eb7565b93505b50806114da81611f1a565b9150506112e2565b5050919050565b600061055960008051602061219b83398151915283610b31565b7f0e58f09080507613e45c927895fdc351ce79a3743ce0a3e127396951be78d0a961152d81611822565b6000841161154d5760405162461bcd60e51b815260040161064890611faa565b6115826001600160a01b037f000000000000000000000000000000000000000000000000000000000000000016333087611956565b83600260008282546115949190611eb7565b909155505060405133907f1b11a7a768a4e1c36371cdcb02cbd8a3ca813214fe3f0d1394be848f4dcca370906110e59087908790879061213b565b6115d7611a5a565b6000828152600560209081526040918290208251610100810184528154815260018201546001600160a01b03169281019290925260028101549282019290925260038201805491929160608401919061162f90611eca565b80601f016020809104026020016040519081016040528092919081815260200182805461165b90611eca565b80156116a85780601f1061167d576101008083540402835291602001916116a8565b820191906000526020600020905b81548152906001019060200180831161168b57829003601f168201915b505050505081526020016004820180546116c190611eca565b80601f01602080910402602001604051908101604052809291908181526020018280546116ed90611eca565b801561173a5780601f1061170f5761010080835404028352916020019161173a565b820191906000526020600020905b81548152906001019060200180831161171d57829003601f168201915b5050509183525050600582015460ff16151560208201526006820154604082015260079091015460609091015292915050565b6040516370a0823160e01b815230600482015260009081908190819081906001600160a01b037f000000000000000000000000000000000000000000000000000000000000000016906370a0823190602401602060405180830381865afa1580156117dc573d6000803e3d6000fd5b505050506040513d601f19601f820116820180604052508101906118009190611f49565b945061180a610b5a565b93506003549250600254915060045490509091929394565b61182c81336119b0565b50565b600061183b8383610b31565b1561189a576000838152602081815260408083206001600160a01b0386168085529252808320805460ff1916905551339286917ff6391f5c32d9c69d2a47ea670b442974b53935d1edc7fd64eb21e047a839171b9190a4506001610559565b506000610559565b60006118ae8383610b31565b61189a576000838152602081815260408083206001600160a01b03861684529091529020805460ff191660011790556118e43390565b6001600160a01b0316826001600160a01b0316847f2f8788117e7eff1d82e926ec794901d17c78024a50270940304540a733656f0d60405160405180910390a4506001610559565b60026001540361194f57604051633ee5aeb560e01b815260040160405180910390fd5b6002600155565b604080516001600160a01b0385811660248301528416604482015260648082018490528251808303909101815260849091019091526020810180516001600160e01b03166323b872dd60e01b1790526105849085906119e9565b6119ba8282610b31565b61074d5760405163e2517d3f60e01b81526001600160a01b038216600482015260248101839052604401610648565b600080602060008451602086016000885af180611a0c576040513d6000823e3d81fd5b50506000513d91508115611a24578060011415611a31565b6001600160a01b0384163b155b1561058457604051635274afe760e01b81526001600160a01b0385166004820152602401610648565b6040518061010001604052806000815260200160006001600160a01b0316815260200160008152602001606081526020016060815260200160001515815260200160008152602001600081525090565b80356001600160a01b0381168114611ac157600080fd5b919050565b600060208284031215611ad857600080fd5b611ae182611aaa565b9392505050565b600060208284031215611afa57600080fd5b81356001600160e01b031981168114611ae157600080fd5b600060208284031215611b2457600080fd5b5035919050565b60008060408385031215611b3e57600080fd5b82359150611b4e60208401611aaa565b90509250929050565b60008060408385031215611b6a57600080fd5b611b7383611aaa565b946020939093013593505050565b6000815180845260005b81811015611ba757602081850181015186830182015201611b8b565b506000602082860101526020601f19601f83011685010191505092915050565b60006101008251845260018060a01b036020840151166020850152604083015160408501526060830151816060860152611c0382860182611b81565b91505060808301518482036080860152611c1d8282611b81565b91505060a0830151151560a085015260c083015160c085015260e083015160e08501528091505092915050565b604081526000611c5d6040830185611bc7565b905082151560208301529392505050565b6020808252825182820181905260009190848201906040850190845b81811015611ca657835183529284019291840191600101611c8a565b50909695505050505050565b60008083601f840112611cc457600080fd5b50813567ffffffffffffffff811115611cdc57600080fd5b602083019150836020828501011115611cf457600080fd5b9250929050565b600080600080600080600060a0888a031215611d1657600080fd5b611d1f88611aaa565b965060208801359550604088013567ffffffffffffffff80821115611d4357600080fd5b611d4f8b838c01611cb2565b909750955060608a0135915080821115611d6857600080fd5b50611d758a828b01611cb2565b989b979a50959894979596608090950135949350505050565b600080600060408486031215611da357600080fd5b611dac84611aaa565b9250602084013567ffffffffffffffff811115611dc857600080fd5b611dd486828701611cb2565b9497909650939450505050565b8881526001600160a01b03881660208201526040810187905261010060608201819052600090611e1383820189611b81565b90508281036080840152611e278188611b81565b95151560a0840152505060c081019290925260e09091015295945050505050565b600080600060408486031215611e5d57600080fd5b83359250602084013567ffffffffffffffff811115611dc857600080fd5b602081526000611ae16020830184611bc7565b634e487b7160e01b600052601160045260246000fd5b8181038181111561055957610559611e8e565b8082018082111561055957610559611e8e565b600181811c90821680611ede57607f821691505b602082108103611efe57634e487b7160e01b600052602260045260246000fd5b50919050565b634e487b7160e01b600052603260045260246000fd5b600060018201611f2c57611f2c611e8e565b5060010190565b634e487b7160e01b600052604160045260246000fd5b600060208284031215611f5b57600080fd5b5051919050565b60208082526028908201527f466f756e646174696f6e5661756c743a20706172746e6572206973207a65726f604082015267206164647265737360c01b606082015260800190565b60208082526023908201527f466f756e646174696f6e5661756c743a20616d6f756e74206d7573742062652060408201526203e20360ec1b606082015260800190565b808202811582820484141761055957610559611e8e565b601f8211156105bd57600081815260208120601f850160051c8101602086101561202b5750805b601f850160051c820191505b8181101561204a57828155600101612037565b505050505050565b815167ffffffffffffffff81111561206c5761206c611f33565b6120808161207a8454611eca565b84612004565b602080601f8311600181146120b5576000841561209d5750858301515b600019600386901b1c1916600185901b17855561204a565b600085815260208120601f198616915b828110156120e4578886015182559484019460019091019084016120c5565b50858210156121025787850151600019600388901b60f8161c191681555b5050505050600190811b01905550565b81835281816020850137506000828201602090810191909152601f909101601f19169091010190565b838152604060208201526000612155604083018486612112565b95945050505050565b602081526000612172602083018486612112565b94935050505056fed81d72b65535f1777b4b20777e5306dade95bd1fde525ef999f6bd610befc1d47418232f5f6f6f8a69ef4e891bedc1b1a9c57ec59fbf4bf6d7f98ff971ffb70aa2646970667358221220667408060db83db19e4bcfafbd9f12887066fdfc069a3593b131625345213e4264736f6c63430008140033",
  "linkReferences": {},
  "deployedLinkReferences": {}
}